:020000021000EC
:10B0000000400020CDB701000DB801000FB80100CD
:10B010000000000000000000000000000000000030
:10B0200000000000000000000000000011B8010056
:10B03000000000000000000013B8010015B8010076
:10B0400017B8010017B8010017B8010017B80100C0
:10B0500017B801000000000017B8010017B8010080
:10B0600017B8010017B8010017B8010017B80100A0
:10B0700017B8010017B8010017B8010017B8010090
:10B0800017B8010017B8010017B8010017B8010080
:10B0900017B8010017B8010017B8010017B8010070
:10B0A00017B8010017B80100000000000000000000
:10B0B0000000000000000000000000000000000090
:10B0C00008B5054B054803331B1A062B03D9044B5F
:10B0D000002B00D0984708BDC8240020C8240020B9
:10B0E000000000000648074908B5091A8910CB0F6F
:10B0F0005918491003D0044B002B00D0984708BDC5
:10B10000C8240020C82400200000000010B5074C0F
:10B110002378002B09D1FFF7D3FF054B002B02D07A
:10B12000044800E000BF0123237010BDC8240020A4
:10B130000000000000D2010008B5094B002B03D02D
:10B140000848094900E000BF08480368002B02D105
:10B15000FFF7C8FF08BD064B002BF9D09847F7E76B
:10B160000000000000D20100CC240020C4240020F4
:10B1700000000000144B002B00D1124B9D464022D2
:10B1800092029A1A924600218B460F461148124AA3
:10B19000121A01F083FE0D4B002B00D098470C4B88
:10B1A000002B00D098470020002104000D000B4820
:10B1B00001F0E0FD01F010FE2000290000F010F881
:10B1C00001F0E0FD00000800004000200000000049
:10B1D00000000000C82400200C250020A5CD01009F
:10B1E00008B500F077F800F053F82249092000F084
:10B1F0004FFA00F0C3FA204800F0AEF81F4800F004
:10B20000C3FAFA20400000F0D9FA00F0CDFA642029
:10B2100000F0D4FA1A4800F0B7FAFA20400000F023
:10B22000CDFA00F0C1FAFA20400000F0C7FA00F0B1
:10B23000BBFA00F08DFAFA20800000F0BFFA00F0AF
:10B240003FF800F00FF9011E02D00E4800F084F81C
:10B2500000F024F9011E02D00B4800F07DF800F048
:10B260003BF9011E02D0094800F076F800F0A0F981
:10B27000002008BD127A000038D1010000005C44B3
:10B28000000077444ED101006AD101008BD101004A
:10B2900004230122A021A3209A40C905C0000A501E
:10B2A000024801330A50102BF3D170470C050000FF
:10B2B000E021A123A0220902DB00D205D150704772
:10B2C000E021A022024B0902D205D1507047C046AE
:10B2D0000C050000A023EC2101220020DB05C900A1
:10B2E0005A500C4958500121A1200B4B4942C00033
:10B2F000195008301950182008495850084980182A
:10B3000058500848084958500420243958501A60A9
:10B310007047C04664070000002000400C05000094
:10B320001405000000502700240500000122074BEF
:10B330009A60074A9850074B1A6A002AFBD00022ED
:10B340001A62024B0132DA607047C04600200040AA
:10B350001C050000FC2000400FB4F0B585B00AAB1E
:10B3600020CB03932878002865D0252829D1039B7A
:10B3700001351A1D039200272A1C1C681378642BC0
:10B3800005D00A214F43303BFF180132F6E7012672
:10B39000002C07D0201CE60F0A21013600F0ACFA81
:10B3A0000028F9D12B78642B01D00135FAE7BE4291
:10B3B00004DA2020FFF7BAFF0136F8E7002C03D1AA
:10B3C0003020FFF7B3FF34E0002301939C4202DA00
:10B3D0000133644201930026371C0A23201C191CE8
:10B3E0005F4300F06FFB201C7F180A2100F084FAF5
:10B3F0000136041EF1D1019B002B02D02D20FFF756
:10B4000095FF002F0ED0381C0A2100F05BFB303175
:10B41000C8B2FFF78BFF381C0A2100F06DFA013E1D
:10B42000071CEEE7002E04D03020FFF77FFF013E1F
:10B43000F8E7013596E705B0F0BC08BC04B0184742
:10B4400010DF704772DF704773DF7047A0DF70470F
:10B45000A2DF7047A9DF704760DF704761DF704788
:10B4600063DF704713B50020011CFFF7E9FF011EE1
:10B470000ED1084C1422201C01F010FD064B01A92E
:10B4800001930123201C23722380FFF7E5FF011C99
:10B49000081C16BDF024002078200020002210B5E2
:10B4A0000C4886B00921131CFFF7CCFF041E0DD1F8
:10B4B000211C1822684601F0F1FC6B466A461C709C
:10B4C000202368461382FFF7BFFF041C201C06B030
:10B4D00010BDC04678200020F0B5102695B02E494A
:10B4E000321C04A801F09CFC0A212C4B02AD04A8DC
:10B4F00069442B80FFF7B4FF041E49D1284B01207B
:10B500009A1C291CFFF7A2FF041E41D10E216A4696
:10B51000244B04A869449381FFF7A2FF041E37D18E
:10B520000DAD211C1C22281C01F0B8FC0A232A782E
:10B5300001AF13432B701C4B211C6B600A230322A9
:10B54000381C2B816B8101F0A9FC012333433B7034
:10B55000012306221E43BB787E70934308AE023A55
:10B560001343211C1032301CBB7001F097FC03AB5D
:10B570000893012333810123B3810C4B776033613E
:10B58000074B291C5888321C0433FFF761FF041C49
:10B59000201C15B0F0BDC046A8D10100ADDEFFFFF4
:10B5A000E4240020BEBAFFFF8120002004250020F3
:10B5B000F0B564269BB001AD321C281C002101F0BF
:10B5C0006DFC6B469C1C2680633E1C4F1C4B3A78DE
:10B5D0001B789A421FD0FE20FFF7A8FE3878FFF7AD
:10B5E000A5FE3B78164A1370002E03D0FFF760FECD
:10B5F000002610E0FFF764FE01260CE02B88102BDC
:10B6000010D100210F4BA8880A1C18800B1CFFF7D3
:10B6100021FF64232380281C211CFFF71FFF05281E
:10B62000ECD108E0112BF4D10122064B52421A80D2
:10B63000FFF734FFEDE764232380C6E704250020ED
:10B6400005250020E424002008B501F039F9021C8A
:10B650000B1C0020074900F05FFA00F03FFAA82118
:10B66000054B4208C9005A500449585004315A50F9
:10B6700008BDC0468084DE400090004044050000C4
:10B680000022024B5A6001321A607047009000405D
:10B69000F8B5A2241C4A1D4BE40013511C4D1D4B50
:10B6A0001D4E1D511D4D1E4F5A5104355E51A4268D
:10B6B0001C4DF6005A511C4D9D511C4E9F51043695
:10B6C0009D511B4D5A5107251A4A9D5000251A4B72
:10B6D0009D50033504329D508022013D92009D50C3
:10B6E0001851A8204A08C0001A5014481950A9211E
:10B6F000C9005A50FFF7C4FFE923A0220421DB0050
:10B70000D205D150F8BDC0460060004003141300BC
:10B710004091004000F001404491004014050000B9
:10B72000409000401C0500004891004024050000A6
:10B730002C050000040500000090004044050000B6
:10B740000122024B5A6000221A60704700900040AC
:10B7500038B5A8230222074C0125DB00E250FA206D
:10B760000022054B4000E5500433E25000F026F87B
:10B77000656038BD00900040440500000022014B88
:10B780001A6070470825002038B5064C051C236850
:10B79000002B03D1FFF774FF01232360281CFFF760
:10B7A00053FF38BD0825002008B5FFF7C9FF002268
:10B7B000014B1A6008BDC04608250020FA23DB00B3
:10B7C0005843013800D3FCE77047000003210A48C2
:10B7D00002680A430260094802680A430260084995
:10B7E000084A094B9B1A03DD043BC858D050FBDCC8
:10B7F00000F012F8FFF7BEFC24050040540500409D
:10B800000CD2010078200020C8240020FEE7FEE7CB
:10B81000FEE7FEE7FEE7FEE710B52D4B1A78012A9A
:10B8200019D12C4A1268120715D12B4AE02411684D
:10B83000F022081C104021420BD12849096811420E
:10B8400009D12749274A11608021274A090211603E
:10B8500001E03028F1D01A78012A0DD11D4909687C
:10B86000090709D1F0201C4909680140402903D18A
:10B870001A490968014223D01B68DBB2012B25D18C
:10B88000144B1B681B0721D1134B1A68F0231A4075
:10B89000A02A04D1114A12681A4203D016E0D02A15
:10B8A00014D1F7E7114B1A68012A03D1C022104BBB
:10B8B0001A600BE00F4A1A601A68012AFCD1F5E7FA
:10B8C000C1218020C900C0054250D5E710BDC04647
:10B8D000E00F00F0E40F00F0E80F00F0EC0F00F0D4
:10B8E000DFFF07C004050040186C004000EC064074
:10B8F00014EC06407593000003460B437FD40022EE
:10B9000043088B4274D303098B425FD3030A8B42F3
:10B9100044D3030B8B4228D3030C8B420DD3FF225D
:10B92000090212BA030C8B4202D31212090265D02B
:10B93000030B8B4219D300E0090AC30B8B4201D3DE
:10B94000CB03C01A5241830B8B4201D38B03C01A25
:10B950005241430B8B4201D34B03C01A5241030B9C
:10B960008B4201D30B03C01A5241C30A8B4201D34D
:10B97000CB02C01A5241830A8B4201D38B02C01AF8
:10B980005241430A8B4201D34B02C01A5241030A6F
:10B990008B4201D30B02C01A5241CDD2C3098B4254
:10B9A00001D3CB01C01A524183098B4201D38B01D1
:10B9B000C01A524143098B4201D34B01C01A524174
:10B9C00003098B4201D30B01C01A5241C3088B42B9
:10B9D00001D3CB00C01A524183088B4201D38B00A4
:10B9E000C01A524143088B4201D34B00C01A524146
:10B9F000411A00D201465241104670475DE0CA0F1D
:10BA000000D04942031000D34042534000229C46DC
:10BA100003098B422DD3030A8B4212D3FC228901E6
:10BA200012BA030A8B420CD3890192118B4208D3BC
:10BA3000890192118B4204D389013AD0921100E01E
:10BA40008909C3098B4201D3CB01C01A5241830932
:10BA50008B4201D38B01C01A524143098B4201D35F
:10BA60004B01C01A524103098B4201D30B01C01A8A
:10BA70005241C3088B4201D3CB00C01A5241830804
:10BA80008B4201D38B00C01A5241D9D243088B425A
:10BA900001D34B00C01A5241411A00D201466346FD
:10BAA00052415B10104601D34042002B00D5494261
:10BAB000704763465B1000D3404201B5002000F0A0
:10BAC0000BF802BD0029F8D003B5FFF715FF0EBC37
:10BAD0004243891A1847C0467047C04638B500220D
:10BAE0000C4B041C0D1C01F003F8002804D1201C91
:10BAF000291C00F0AFFE38BD064B0022201C291C7B
:10BB000000F02EFB00F0A6FE80231B069C4660443E
:10BB1000F1E7C0460000E041F0B55F4656464D46AD
:10BB20004446F0B40F0387B098464D003B0BCC0F52
:10BB3000061C924681469B466D0D01946BD0664B68
:10BB40009D4235D080275B467F031F43F300994613
:10BB5000624BFF00400F9C4607430023BB46002674
:10BB600065440093424617035000D20F53463F0BE3
:10BB7000400D904600D172E0574A904267D0802332
:10BB80005B031F435346554A5B0FFF001F43944618
:10BB900053460021DB0060444246624092462D1A23
:10BBA0000E430F2E00D9A1E04D48B60080598746BC
:10BBB0005B461E4300D076E000239B469946023345
:10BBC00008260093CEE799464346BB460193009171
:10BBD000009B022B6BD1019B9A4600215346012208
:10BBE000002789461A403C4B00213F030C0D2405D9
:10BBF0003F0B27433B4C1B0527401F437F00D207C9
:10BC00007F0817434846391C07B03CBC904699460C
:10BC1000A246AB46F0BD03433ED05B46002B00D1AD
:10BC20009CE1584600F06EFF2823311C1B1A021CB1
:10BC30005F46D940083A97400B1C96403B439B46D1
:10BC4000B1460023284D00262D1A00938AE752465C
:10BC500003213A43A0D10027002302219CE752464A
:10BC60003A4315D0002F00D185E1381C00F04AFF7F
:10BC7000021C28215046891A131CC8405146083B13
:10BC800099409F400B1C074317480021801A83E707
:10BC90000027002301217FE700239B4699460133BB
:10BCA000042600935EE703230C2600935AE7032B38
:10BCB00000D13CE2012B00D0BFE11A1C019B1A40CD
:10BCC00000210023002789468EE70023802799461C
:10BCD00000223F03004B87E7FF07000001FCFFFF46
:10BCE000B8D10100FFFF0F800DFCFFFFBB4500D95D
:10BCF00051E100D14CE14A46039200225C46904655
:10BD0000013D180E3F0238431B020193030C994674
:10BD100003041B0C4946061C201C1F1C009300F04A
:10BD200023FE021C7A4302904946201C171C00F097
:10BD3000A1FE039B09041B0C19438F420CD9029BE3
:10BD40008919013B8E4200D952E18F4200D84FE160
:10BD5000029B8919023B0293CC1B201C494600F030
:10BD600003FE009F834647434946201C00F082FEA5
:10BD7000039A0B041404240C23439F420DD95A4602
:10BD80009B19013A9E4200D930E19F4200D82DE133
:10BD90000222524294469B19E344029ADB1B170489
:10BDA0005A463A439346019C170C220C101C0492ED
:10BDB0005A4611042204120C141C090C7C430592EF
:10BDC0004A43414347436118100C09188C4203D978
:10BDD00080204002844667440C0C12040804120CB4
:10BDE0003C198118A34200D2E5E000D1DFE01F1B1F
:10BDF00043465C1AA04592415242BF1AB74200D155
:10BE00000EE1381C494600F0AFFD009B0290434311
:10BE10004946381C984600F02DFE230C0F041F43A2
:10BE2000B8450CD9029BBF19013BBE4200D9FBE0CB
:10BE3000B84500D8F8E0029BBF19023B0293434685
:10BE4000FF1A4946381C00F08FFD009B03904343C6
:10BE50004946381C984600F00DFE24040904240CC1
:10BE6000214388450CD9039B8919013B8E4200D997
:10BE7000DCE0884500D8D9E0039B8919023B039395
:10BE80004346C91A029B039A1B04059C1A43100CD3
:10BE900013049146221C049F1B0C5A4344437B43CA
:10BEA0007843E318170CDB199C4203D98024640201
:10BEB000A44660441C0C12041B04120C00199B18AD
:10BEC000814200D296E000D1FCE04A4601231A43A9
:10BED00091469B4BEB18002B00DC99E04A46520739
:10BEE0000AD00F2249460A40042A05D004314945A8
:10BEF00092418946524293445A46D20106D55A4647
:10BF0000904B1A4080239346DB00EB188E4A9342F5
:10BF100000DD62E64A465946D208490711435A46AF
:10BF200089465702514601225B053F0B5B0D0A40D3
:10BF30005AE680205A460003024208D0074206D142
:10BF400007433F0399463F0B4246804B4CE65F4612
:10BF500007433F033F0B221C7C4B45E600F0D2FD1C
:10BF6000031C2030272800DC5EE6083B9E400023AF
:10BF7000B346994665E6504600F0C4FD021C2032E7
:10BF8000272A00DC75E657460838874000237BE601
:10BF9000994500D2AFE65A46594654084A46C80762
:10BFA0005208024303924A46D2079046A9E6002768
:10BFB000884500D31CE7019F5A46BC46E044B8457B
:10BFC000BF417F42BF19FF18013ABE4206D2BC42B0
:10BFD0005FD800D19FE03F1B934609E7B742FAD1F3
:10BFE000019B4345F3D9371B934601E79346D4E6BB
:10BFF0000293B1E64A468919013A8E4218D9914610
:10C00000814200D061E7019A9A4200D05DE760E783
:10C010004F4F7F1B382F13DD012253461A404FE646
:10C0200001235B42994654E7029308E7039327E70D
:10C0300088423CD874D0914647E7019B9A4648E72E
:10C040001F2F44DC434B4A469C465B466544FA40FE
:10C05000AB4013434A46AA40151C6A1E95415A46F6
:10C06000FA402B43171C5A0709D00F221A40042A02
:10C0700005D01A1D9A429B415B42FF18131C3A02DD
:10C080003ED55346012200211A400027012389464C
:10C09000AAE502235B429C46019AE3449446E044AD
:10C0A00090459B415B429B19DF193F1BA0E6019F16
:10C0B0004A467C00BC42BF417F42BF19023AC919BF
:10C0C00001949CE7002B95D1002201929BE75A46F0
:10C0D000214B5B1BDA40202F27D0204B9C465B4630
:10C0E0006544AB4049460B43591E8B41134307221D
:10C0F00000271A4007D00F2200271A40042AB8D17F
:10C100007A077F023F0BDB0813439946012253460F
:10C110001A40002368E54145BBD89346002767E6EF
:10C12000019C9C42C3D391466DE70023DAE7802748
:10C130005B463F031F433F033F0B019A034B53E50D
:10C14000FF030000FFFFFFFEFE070000FF070000E7
:10C1500002FCFFFF1E040000E2FBFFFF3E040000A4
:10C16000F0B54D4644465F465646F0B40E1C111CD1
:10C170003203520A470F1743C5001A035800DB0F5A
:10C180009946520A4B0F83B01A43CB000193CF4B11
:10C190007400F60F640DB046400D984200D1E8E0FF
:10C1A0000123494659400B1C9E4200D1B1E0261A9A
:10C1B000002E00DC1CE1002842D1131C01990B4326
:10C1C00000D0E6E06B0700D18EE00F232B40042B5C
:10C1D00000D189E02A1DAA42AD41802301264146B3
:10C1E0006D427F191B043B400E40151C002B00D1F3
:10C1F00083E0B64B01349C4200D116E13A1CB44BAB
:10C20000ED081A405007640552020543120B640DF5
:10C21000002112030B0D1B056405120B1A43630862
:10C22000AC4CF60714401C43640064083443281CDB
:10C23000211C03B03CBC90469946A246AB46F0BDDB
:10C24000A24B9C42BED080231B041A43382E00DD33
:10C2500003E11F2E00DD3FE12020831B9946131CC4
:10C2600049468B409C46019B6046F340034301983E
:10C27000F2408840011C481E81410B43EB1A9D424D
:10C2800080411D1CBA1A4042171A3B0200D4A8E094
:10C290007A02560A002E00D1CAE0301C00F032FCAF
:10C2A000031C083B1F2B00DDCBE02822291C121A9F
:10C2B000D1409E400A1C9D4032439C4200DDC8E0B4
:10C2C0001C1B671C1F2F00DDEDE01F23291C1C1BFE
:10C2D000131CA540A340F9406C1EA541FA40194328
:10C2E0000D43171C00246DE78023012642461B04E2
:10C2F0003B401640002B00D07BE7744BED087807DD
:10C300000543FA089C423BD012036405120B640DEE
:10C310007EE7231A9A46002B00DCA5E0002844D0D3
:10C320006A48844200D14DE780200004024353460E
:10C33000382B00DC1CE1019B1A43511E8A41D1B20B
:10C3400000224919A94280410D1CD21940421718F8
:10C350003B0246D55D4B01349C4200D169E101208E
:10C360005B4A6B083A4028401843D50705435708F5
:10C3700028E7131C01990B4300D111E74B4613E743
:10C380002B1C134351D080231B031A431203120B9F
:10C390003EE7013E002E00D080E0691A8D429B41AD
:10C3A000BA1A5B42D71A0D1C6FE7101C019B184389
:10C3B00000D107E701235B429C46E2445346002B31
:10C3C00000D002E1019BD2195919A9429B415B425D
:10C3D000D7180D1CBCE76346034300D128E1071CB6
:10C3E00065466B0700D0F0E6012643461E4084E711
:10C3F000002E00D081E0601C4005400D012800DCCB
:10C4000007E10199681A84466545B641B81A764233
:10C41000861B300200D4A1E08C464D1BAC458941FF
:10C42000D21B4942561A984634E700220025EFE60F
:10C43000281C00F067FB2030031C083B1F2B00DC8E
:10C4400033E7021C283A95402A1C00259C4200DC58
:10C4500036E71F4FE41A1740B4E6019B1A43511EFA
:10C460008A41D3B2002209E7002B00D001E1601C11
:10C4700043055B0D012B00DCB0E0144B984200D16A
:10C480001EE1019BD2195919A9429B415B42D21866
:10C490004908D5070D435708041C93E60B4B9C42F3
:10C4A00000D0D3E68EE6211C131C1F39CB40191C8B
:10C4B000202F00D18EE03F231C1BA24015436A1E93
:10C4C000954100270D4300248BE7C046FF0700007D
:10C4D000FFFF7FFFFFFF0F80331C101C203BD84065
:10C4E000202E79D040239B1B9A40131C019A1343A2
:10C4F000591E8B4100220343C0E6002C53D0C74C89
:10C50000A04200D1B0E08024714289462404274330
:10C510004946382900DDCDE01F2900DD59E12024FE
:10C520003E1C611A8E408A46B04649462E1CCE40BB
:10C530005146B4468D4064464646494626436C1EE5
:10C54000A541CF4035430199D71B8C464D1BAC45C7
:10C5500092415242BF1A041C984696E663466546CD
:10C56000334300D096E60026002700240025C4E6C9
:10C570001F2B61DC2020C31A9B46131C59468B409D
:10C5800051469946019BCB409C464B46604603432F
:10C590009C465B46019999406346481E8141194378
:10C5A0005346DA40CDE63C1C2C435DD0F14389462E
:10C5B000002955D10199D21B8C464D1BAC458941B0
:10C5C0004942571A041C98465FE69448844200D0BA
:10C5D000ADE6F7E5002271E7002387E73B1C2B431C
:10C5E000002C00D0DAE0002B00D113E1131C0199DC
:10C5F0000B4300D1E6E54919A9429B41D2195B42A0
:10C60000D7183B0200D421E1854B0D1C1F40041CB0
:10C61000D8E5381C2843002C40D1002800D083E006
:10C62000101C0199084303D0171C0D1C9846C9E53E
:10C6300000260027002560E65046131C2038C34022
:10C64000181C5346202B00D1C1E0402351465B1AF1
:10C650009A40019911434A1E91410022014370E61C
:10C660006E4CA04200D053E7171C019D041C984655
:10C67000A8E5002C28D13C1C2C4300D18AE0DB43E8
:10C680009A46002B00D082E0019BD2199C4665445B
:10C690009D42894149425718041C59E600285BD144
:10C6A000101C0199084300D1A4E0171C0D1C9846EA
:10C6B0005A4C87E53D436F1EBD410027EDB242E76E
:10C6C000041C0027002518E6544CA04262D05346B3
:10C6D00080245B429A46240427435346382B00DDCE
:10C6E0008EE01F2B00DD9DE02024E31A9B463B1CBF
:10C6F00059468B40514699462B1CCB409C464B4695
:10C70000644623439C465B469D4063466C1EA541A0
:10C71000CF401D43019BBF189C4665449D429241FA
:10C720005242BF18041C13E6101C0199084300D1A3
:10C7300048E5681A844685428041BE1A4042301A54
:10C74000060200D447E68C464D1BAC458941D21BFE
:10C750004942571A984635E5101C0199084334D0D0
:10C7600080247807ED08FF0824032843274208D0D7
:10C77000D608264205D1C90852070A43101C371CA7
:10C780009846FF00420F1743C500244C1AE5234C7E
:10C79000A042A2D1171C019D041C13E5002B35D02B
:10C7A000131C01990B4310D080247807ED08FF0873
:10C7B000240328432742E4D0D3082342E1D1C90807
:10C7C00052070A43101C1F1CDBE7144CFAE400223A
:10C7D0003FE74C463E1C203CE6404946341C20299D
:10C7E00032D04026761AB7403D436F1EBD41002728
:10C7F0002543A8E680270026FF03084C00257CE59A
:10C800003D436F1EBD410027EDB283E7171C019D1C
:10C81000024CD7E4171C019DD4E4C046FF0700007A
:10C82000FFFF7FFF54463B1C203CE3401C1C53464B
:10C83000202B0DD0402351465B1A9F403D436F1E75
:10C84000BD410027254365E70027CDE70D1CC8E55E
:10C850000027F3E70B0330B5134C1A0B4B00051CF4
:10C860005B0DC90F0020A34210DD104883420EDC8F
:10C8700080200F4C40030243E41A1F2C0ADD0D48B0
:10C88000C31ADA40131C48424340581830BD0A4BC3
:10C89000C818FBE7281CE040084CA44663449A40B3
:10C8A000131C0343EFE7C046FE0300001D04000015
:10C8B0003304000013040000FFFFFF7FEDFBFFFFC8
:10C8C0004200120E511C38B5C9B243025D0AC40FB2
:10C8D000012915DDE02189008C466D071B0B6244A0
:10C8E0000021281C0D0D2D052B431C4D52052B40FE
:10C8F000520813435B00E4075B082343191C38BD4F
:10C90000002A15D1002D1FD0281C00F0FBF80A28A2
:10C910001DDC0B232A1C1B1ADA40131C021C1532C7
:10C9200095400F4A1B03121A52051B0B520DD7E7F5
:10C93000002D06D080221B0B120313436D07094AFA
:10C94000CEE7084A0023CBE700220023C8E7031CF8
:10C950000B3B9D402B1C0025E3E7C046FFFF0F80EB
:10C9600089030000FF070000002243088B4274D3B4
:10C9700003098B425FD3030A8B4244D3030B8B42E0
:10C9800028D3030C8B420DD3FF22090212BA030CE9
:10C990008B4202D31212090265D0030B8B4219D3CA
:10C9A00000E0090AC30B8B4201D3CB03C01A5241EA
:10C9B000830B8B4201D38B03C01A5241430B8B4232
:10C9C00001D34B03C01A5241030B8B4201D30B031B
:10C9D000C01A5241C30A8B4201D3CB02C01A524142
:10C9E000830A8B4201D38B02C01A5241430A8B4205
:10C9F00001D34B02C01A5241030A8B4201D30B02EE
:10CA0000C01A5241CDD2C3098B4201D3CB01C01A07
:10CA1000524183098B4201D38B01C01A5241430911
:10CA20008B4201D34B01C01A524103098B4201D3FF
:10CA30000B01C01A5241C3088B4201D3CB00C01A6C
:10CA4000524183088B4201D38B00C01A52414308E4
:10CA50008B4201D34B00C01A5241411A00D2014609
:10CA6000524110467047FFE701B50020FFF734F848
:10CA700002BDC0460029F7D003B5FFF775FF0EBC15
:10CA80004243891A1847C0468446101C62468C46A9
:10CA9000191C634600E0C0461FB500F005F90028E8
:10CAA00001D40021C8421FBD10B500F049F8404232
:10CAB000013010BD10B500F0F7F8002801DB0020B0
:10CAC00010BD012010BDC04610B500F0EDF80028E3
:10CAD00001DD002010BD012010BDC04610B500F0E2
:10CAE00073F8002801DC002010BD012010BDC046F5
:10CAF00010B500F069F8002801DA002010BD01200F
:10CB000010BDC0461C2101231B04984201D3000C18
:10CB100010391B0A984201D3000A08391B099842B0
:10CB200001D30009043902A2105C40187047C046C6
:10CB300004030202010101010000000000000000E6
:10CB4000F0B55F464D4644465646F0B41F035C00C0
:10CB5000DB0F99461B4B0E034D00C90F8446360B65
:10CB60006D0D8B4690463F0B640D9D420CD0154BCE
:10CB70009C4210D00123A54214D0181C3CBC904606
:10CB80009946A246AB46F0BD311C01230143F4D1C6
:10CB90000C4B9C42EED13A430123002AEDD10123F4
:10CBA000A542EAD1BE42E8D1C445E6D1CB4506D084
:10CBB000002DE2D13043031C581E8341DDE70023E2
:10CBC000DBE7C046FF070000F0B5574645464E4636
:10CBD000E0B40F034E00C90F8A4632491D035C00C2
:10CBE00084463F0B760D90462D0B640DDB0F8E4275
:10CBF0000FD08C4239D0002E10D1384341424141F0
:10CC00008946002C27D12A4325D1002000290ED1A6
:10CC100008E0391C01432ED1B44226D0002C0BD0A1
:10CC20009A450DD05346594201231943081C1CBC98
:10CC300090469946A246F0BD2A43F3D09A45F1D1D9
:10CC4000A642EFDC1ADA50464142484101234142F4
:10CC50001943081CEBE74A46002AE1D058425841E4
:10CC6000012241421143081CE1E7291C114302D172
:10CC7000002EC2D0D4E702204042D8E7AF42D1D83C
:10CC800009D00020AF42D2D2504641424841012350
:10CC900040421843CBE7C445C4D80020C445F3D371
:10CCA000C5E7C046FF070000F0B55F464D46444665
:10CCB00056468046F0B4061C0803000B84462C48F8
:10CCC0004C001F035D00C90F640D8B4691463F0B5E
:10CCD0006D0DDB0F844212D0854225D0002C14D17B
:10CCE00061460E4370424641002D35D0002E21D0C2
:10CCF00058425841012143420B43181C0EE0614643
:10CD0000022031430AD1A5420ED0002D12D13A4360
:10CD100010D15B46594201231943081C3CBC904684
:10CD20009946A246AB46F0BD391C02201143F5D10D
:10CD3000002CD5D09B45ECD1AC42EADC05DBBC45F0
:10CD4000E7D80FD00020BC45E8D2584641424841C0
:10CD5000414201200843E1E73A43C7D10020002EB9
:10CD6000DCD1D6E7C845D4D80020C845EDD3D5E7F7
:10CD7000FF07000008B5011C00220020002300F07E
:10CD8000D3F808BD10B50021041C00F043F9044B92
:10CD90001868C36B002B00D09847201C00F0BEF928
:10CDA000FCD1010038B5094B094CE41AA41009D094
:10CDB000084AA518AD00ED182B68013C9847043DC2
:10CDC000002CF9D100F0B2F938BDC046C0240020D3
:10CDD000C4240020FFFFFF3F70B50D4E0D4D002411
:10CDE000AD1BAD1005D0A300F35801349847A54200
:10CDF000F9D100F095F9084E084D0024AD1BAD1097
:10CE000005D0A300F35801349847A542F9D170BD6D
:10CE1000B8240020B8240020B8240020C02400201A
:10CE200070B50F2A32D9041C0C430B1CA40731D156
:10CE3000151C041C103D2D0901352D0149191E68D2
:10CE400026605E6866609E68A660DE681033E660F5
:10CE500010349942F3D10F2345191340032B1BD9EA
:10CE60001C1F0023A4080134A400CE58EE50043344
:10CE7000A342FAD1ED18C91803231A4005D00023A4
:10CE8000CC5CEC5401339342FAD170BD051C002AEE
:10CE9000F5D1FAE7051CF2E71A1CF8E770B583072D
:10CEA0003FD0541E002A3BD0CEB2031C032503E022
:10CEB000621E002C34D0141C01335A1E16702B42F3
:10CEC000F6D1032C24D9FF250D402A0215432A044C
:10CED00015430F2C11D9261C103E36090136360198
:10CEE0001A1C9B19156055609560D56010329342ED
:10CEF000F8D10F221440032C0AD9261FB608013698
:10CF0000B6001A1C9B1920C29342FCD10322144084
:10CF1000002C05D0C9B21C1919700133A342FBD1F2
:10CF200070BD141C031CCCE7F8B544465F4656465A
:10CF30004D469B462F4BF0B41C68A4235B00051C98
:10CF4000E0580E1C904600284BD043681F2B0DDC88
:10CF50005C1C002D21D102339B0044601E50002038
:10CF60003CBC90469946A246AB46F8BD224B002BEE
:10CF70003CD0C820400000E000BF002836D0A422EA
:10CF800000235200A15843600160A05040328350FA
:10CF9000043283500124002DDDD09A009146814453
:10CFA000424688214F467A50C4225200904680441F
:10CFB00042468739994012688A460A439446424657
:10CFC00061461160842249465F4652008F50022D0F
:10CFD000C1D1021C55468D32FF3211680D431560D8
:10CFE000B9E7201C4D30FF30E050AEE70120404251
:10CFF000B6E7C046FCD101000000000008B5034BB5
:10D00000002B02D00248FFF7B5FE08BD000000006B
:10D01000A5CD0100F0B556465F464D464446F0B4F6
:10D020000E1C3C4B87B01B68019003934933FF33C0
:10D030000493A422039B52009F58002F4CD0049BC2
:10D04000984600239B46C4235B009C46BC44634631
:10D050000293C6235B009A467C68BA44A5007D19FA
:10D06000013C08D526E06B1DFF331B68B34204D09A
:10D07000043D013C1ED3002EF5D17B686A68013B5C
:10D08000A3423AD05B466B60002AF1D07B680299DC
:10D0900099460123A34009680591194223D190477D
:10D0A0007B684B45C5D143461B68BB42C1D1043D9B
:10D0B000013CE0D2184B002B0ED07B68002B23D113
:10D0C0003B68002B24D04246381C136000E000BFB0
:10D0D00043461F68002FB6D107B03CBC9046994626
:10D0E000A246AB46F0BD51460968194207D12B1C38
:10D0F0008433196801989047D2E77C60C4E72B1C01
:10D10000843318689047CBE73B68B8461F1CE1E7BB
:10D110000023FAE7FCD1010000000000FEE7C04652
:10D12000F8B5C046F8BC08BC9E467047F8B5C04686
:10D13000F8BC08BC9E467047504C4159494E4720A8
:10D14000544553542C2057454845590A0D00424C2C
:10D150004520456E61626C65206572726F72206356
:10D160006F64653A2025640A0D0041647665727427
:10D17000697365207374617274206572726F7220B6
:10D18000636F64653A2025640A0D00474154545387
:10D19000207374617274206572726F7220636F64A1
:10D1A000653A2025640A0D0006476F2440E09A8FF7
:10D1B0007844C1BB423CD3F3ECBC0100DABB0100B4
:10D1C000C0BC0100C6BB0100C0BC0100CABC01005C
:10D1D000C0BC0100C6BB0100DABB0100DABB010024
:10D1E000CABC0100C6BB0100D0BB0100D0BB01001E
:10D1F000D0BB010032BF010043000000902000209E
:04D20000000000002A
:08D2040070DFFF7F0100000054
:10D20C0004096B756C03030D0F4C4544204D617480
:10D21C007269780000000000000000007C230020F0
:10D22C00E42300204C24002000000000000000003B
:10D23C0000000000000000000000000000000000E2
:10D24C00000000000000000000000000F8D1010008
:10D25C0000000000000000000000000000000000C2
:10D26C0000000000000000000000000000000000B2
:10D27C0000000000000000000000000000000000A2
:10D28C000000000000000000000000000000000092
:10D29C000000000000000000000000000000000082
:10D2AC000000000000000000000000000000000072
:10D2BC000000000000000000000000000000000062
:10D2CC0001000000000000000E33CDAB34126DE6FF
:10D2DC00ECDE05000B000000000000000000000068
:10D2EC000000000000000000000000000000000032
:10D2FC000000000000000000000000000000000022
:10D30C000000000000000000000000000000000011
:10D31C000000000000000000000000000000000001
:10D64C00FDCF010039B101000DB101000000000057
:040000031000B7CD65
:00000001FF
