:020000021000EC
:10B00000004000204DB801008DB801008FB801004C
:10B010000000000000000000000000000000000030
:10B0200000000000000000000000000091B80100D6
:10B03000000000000000000093B8010095B8010076
:10B0400097B8010097B8010097B8010097B80100C0
:10B0500097B801000000000097B8010097B8010000
:10B0600097B8010097B8010097B8010097B80100A0
:10B0700097B8010097B8010097B8010097B8010090
:10B0800097B8010097B8010097B8010097B8010080
:10B0900097B8010097B8010097B8010097B8010070
:10B0A00097B8010097B80100000000000000000000
:10B0B0000000000000000000000000000000000090
:10B0C00008B5054B054803331B1A062B03D9044B5F
:10B0D000002B00D0984708BDC8240020C8240020B9
:10B0E000000000000648074908B5091A8910CB0F6F
:10B0F0005918491003D0044B002B00D0984708BDC5
:10B10000C8240020C82400200000000010B5074C0F
:10B110002378002B09D1FFF7D3FF054B002B02D07A
:10B12000044800E000BF0123237010BDC8240020A4
:10B1300000000000C0BF010008B5094B002B03D080
:10B140000848094900E000BF08480368002B02D105
:10B15000FFF7C8FF08BD064B002BF9D09847F7E76B
:10B1600000000000C0BF0100CC240020C424002047
:10B1700000000000144B002B00D1124B9D464022D2
:10B1800092029A1A924600218B460F461148124AA3
:10B19000121A00F077FD0D4B002B00D098470C4B96
:10B1A000002B00D098470020002104000D000B4820
:10B1B00000F0D4FC00F004FD2000290000F010F89D
:10B1C00000F0D4FC00000800004000200000000057
:10B1D00000000000C82400200C2500208DBB0100C9
:10B1E00008B500F063F800F03FF8184800F0A0F848
:10B1F00000F030FA164800F09BF800F0AFFA15485E
:10B2000000F096F800F0B5FA134800F091F8FA2033
:10B21000800000F017FA00F03FF800F00FF9011E6F
:10B2200002D00E4800F084F800F024F9011E02D08C
:10B230000B4800F07DF800F03BF9011E02D00948F0
:10B2400000F076F800F0A0F9002008BD20BF010052
:10B2500026BF01002CBF010032BF010039BF010031
:10B2600055BF010076BF010004230122A021A320C5
:10B270009A40C905C0000A50024801330A50102BF9
:10B28000F3D170470C050000E021A123A0220902A0
:10B29000DB00D205D1507047E021A022024B090209
:10B2A000D205D1507047C0460C050000A023EC2108
:10B2B00001220020DB05C9005A500C4958500121D9
:10B2C000A1200B4B4942C0001950083019501820DA
:10B2D000084958500849801858500848084958509B
:10B2E0000420243958501A607047C0466407000093
:10B2F000002000400C05000014050000005027004D
:10B30000240500000122074B9A60074A9850074B1A
:10B310001A6A002AFBD000221A62024B0132DA605C
:10B320007047C046002000401C050000FC20004083
:10B330000FB4F0B585B00AAB20CB03932878002872
:10B3400065D0252829D1039B01351A1D03920027BA
:10B350002A1C1C681378642B05D00A214F43303B0C
:10B36000FF180132F6E70126002C07D0201CE60F5B
:10B370000A21013600F000FB0028F9D12B78642B5C
:10B3800001D00135FAE7BE4204DA2020FFF7BAFF08
:10B390000136F8E7002C03D13020FFF7B3FF34E08B
:10B3A000002301939C4202DA013364420193002698
:10B3B000371C0A23201C191C5F4300F0C3FB201C10
:10B3C0007F180A2100F0D8FA0136041EF1D1019B42
:10B3D000002B02D02D20FFF795FF002F0ED0381C38
:10B3E0000A2100F0AFFB3031C8B2FFF78BFF381CE9
:10B3F0000A2100F0C1FA013E071CEEE7002E04D03E
:10B400003020FFF77FFF013EF8E7013596E705B0F2
:10B41000F0BC08BC04B0184710DF704772DF7047FB
:10B4200073DF7047A0DF7047A2DF7047A9DF704766
:10B4300060DF704761DF704763DF704713B500203E
:10B44000011CFFF7E9FF011E0ED1084C1422201C3D
:10B4500000F018FC064B01A901930123201C237264
:10B460002380FFF7E5FF011C081C16BDF424002013
:10B4700078200020002210B50C4886B00921131C4A
:10B48000FFF7CCFF041E0DD1211C1822684600F0E6
:10B49000F9FB6B466A461C70202368461382FFF74F
:10B4A000BFFF041C201C06B010BDC0467820002041
:10B4B000F0B5102695B02E49321C04A800F0A4FB6C
:10B4C0000A212C4B02AD04A869442B80FFF7B4FF7E
:10B4D000041E49D1284B01209A1C291CFFF7A2FF0A
:10B4E000041E41D10E216A46244B04A8694493816D
:10B4F000FFF7A2FF041E37D10DAD211C1C22281C12
:10B5000000F0C0FB0A232A7801AF13432B701C4BB9
:10B51000211C6B600A230322381C2B816B8100F0F5
:10B52000B1FB012333433B70012306221E43BB784A
:10B530007E70934308AE023A1343211C1032301C34
:10B54000BB7000F09FFB03AB089301233381012301
:10B55000B3810C4B77603361074B291C5888321C30
:10B560000433FFF761FF041C201C15B0F0BDC0467A
:10B5700093BF0100ADDEFFFFE4240020BEBAFFFF51
:10B5800081200020F0240020F0B56424A1B007AE93
:10B590000021221C301C00F075FB02AB9D1D2448CD
:10B5A0002C80FFF7C5FE01230193224F224B3A78EE
:10B5B0001B7804AC9A4218D02048FFF7B9FE3B78BC
:10B5C0001D4A012713700422201CA370227067708B
:10B5D00000F0E4F8019B002B04D0FFF755FE002398
:10B5E000019302E0FFF758FE0197201C00F002F9DA
:10B5F000301C291CFFF71EFF052816D03388102B9E
:10B6000008D0112B0ED101220D4B52421A80FFF7A8
:10B6100031FF07E000210A4BB0880A1C18800B1C80
:10B62000FFF704FF64232B80E2E764232B80BCE751
:10B63000A3BF0100F024002008250020AABF0100BC
:10B64000E4240020FA23DB005843013800D3FCE750
:10B6500070470000A023012200200D49DB055A504D
:10B660000C495A500431585018395A50A1210A4BEC
:10B670001730C90058500949023858508018043111
:10B680005850802006494005585024395A50704778
:10B690005C07000054070000003000400C0500006B
:10B6A00024050000A0238022DB055202002802D0DE
:10B6B000A121C90000E001495A5070470C05000063
:10B6C00010B5054B054CE0500A20FFF7BBFFA32344
:10B6D000DB00E058C0B210BD1C0500000030004087
:10B6E00010B5041C0020FFF7DDFF0320FFF7E8FF83
:10B6F000201CFFF7E5FF0020FFF7E2FF041C0120FC
:10B70000FFF7D0FF201C10BD38B5051C0C1C002015
:10B71000FFF7C8FF0220FFF7D3FF281CFFF7D0FF79
:10B72000201CFFF7CDFF0120FFF7BCFF38BD70B52F
:10B73000061C0D1C141C0020FFF7B4FF0520FFF7AA
:10B74000BFFF301CFFF7BCFF281CFFF7B9FF201C10
:10B75000FFF7B6FF0120FFF7A5FF70BD08B5002079
:10B76000FFF7A0FFC020FFF7ABFF0120FFF79AFF14
:10B7700008BD08B5FFF7F2FF0E20FFF7B1FFE02389
:10B780001840802804D00F20191C8022FFF7CFFF1B
:10B790000F20E0210022FFF7CAFF08BD38B5051CC5
:10B7A0003020FFF79DFF08231840041EF8D12978A8
:10B7B0003120C908FFF7A8FF297832204901C9B212
:10B7C000FFF7A2FF0F23697835201940FFF79CFF90
:10B7D0006B789C4208DA201C2B193630C0B299785D
:10B7E000FFF792FF0134F3E730200B21FF22FFF730
:10B7F0009EFF38BD38B5041C2C20FFF771FFC3072E
:10B8000023D56120FFF76CFFC00020706220FFF796
:10B8100067FF23784009184320706520FFF760FF19
:10B820000F2300251840607063789D4208DA281CB9
:10B830006630C0B2FFF754FF631998700135F3E723
:10B840002C2001210022FFF772FF38BD03210A4896
:10B8500002680A430260094802680A430260084914
:10B86000084A094B9B1A03DD043BC858D050FBDC47
:10B8700000F012F8FFF77EFC24050040540500405C
:10B88000CCBF010078200020C8240020FEE7FEE79E
:10B89000FEE7FEE7FEE7FEE710B52D4B1A78012A1A
:10B8A00019D12C4A1268120715D12B4AE0241168CD
:10B8B000F022081C104021420BD12849096811428E
:10B8C00009D12749274A11608021274A09021160BE
:10B8D00001E03028F1D01A78012A0DD11D490968FC
:10B8E000090709D1F0201C4909680140402903D10A
:10B8F0001A490968014223D01B68DBB2012B25D10C
:10B90000144B1B681B0721D1134B1A68F0231A40F4
:10B91000A02A04D1114A12681A4203D016E0D02A94
:10B9200014D1F7E7114B1A68012A03D1C022104B3A
:10B930001A600BE00F4A1A601A68012AFCD1F5E779
:10B94000C1218020C900C0054250D5E710BDC046C6
:10B95000E00F00F0E40F00F0E80F00F0EC0F00F053
:10B96000DFFF07C004050040186C004000EC0640F3
:10B9700014EC06407593000003460B437FD400226D
:10B9800043088B4274D303098B425FD3030A8B4273
:10B9900044D3030B8B4228D3030C8B420DD3FF22DD
:10B9A000090212BA030C8B4202D31212090265D0AB
:10B9B000030B8B4219D300E0090AC30B8B4201D35E
:10B9C000CB03C01A5241830B8B4201D38B03C01AA5
:10B9D0005241430B8B4201D34B03C01A5241030B1C
:10B9E0008B4201D30B03C01A5241C30A8B4201D3CD
:10B9F000CB02C01A5241830A8B4201D38B02C01A78
:10BA00005241430A8B4201D34B02C01A5241030AEE
:10BA10008B4201D30B02C01A5241CDD2C3098B42D3
:10BA200001D3CB01C01A524183098B4201D38B0150
:10BA3000C01A524143098B4201D34B01C01A5241F3
:10BA400003098B4201D30B01C01A5241C3088B4238
:10BA500001D3CB00C01A524183088B4201D38B0023
:10BA6000C01A524143088B4201D34B00C01A5241C5
:10BA7000411A00D201465241104670475DE0CA0F9C
:10BA800000D04942031000D34042534000229C465C
:10BA900003098B422DD3030A8B4212D3FC22890166
:10BAA00012BA030A8B420CD3890192118B4208D33C
:10BAB000890192118B4204D389013AD0921100E09E
:10BAC0008909C3098B4201D3CB01C01A52418309B2
:10BAD0008B4201D38B01C01A524143098B4201D3DF
:10BAE0004B01C01A524103098B4201D30B01C01A0A
:10BAF0005241C3088B4201D3CB00C01A5241830884
:10BB00008B4201D38B00C01A5241D9D243088B42D9
:10BB100001D34B00C01A5241411A00D2014663467C
:10BB200052415B10104601D34042002B00D54942E0
:10BB3000704763465B1000D3404201B5002000F01F
:10BB40000BF802BD0029F8D003B5FFF715FF0EBCB6
:10BB50004243891A1847C0467047C04608B5011CC1
:10BB600000220020002300F0D3F808BD10B500210A
:10BB7000041C00F043F9044B1868C36B002B00D081
:10BB80009847201C00F0BEF9BCBF010038B5094B36
:10BB9000094CE41AA41009D0084AA518AD00ED1804
:10BBA0002B68013C9847043D002CF9D100F0B2F914
:10BBB00038BDC046C0240020C4240020FFFFFF3F42
:10BBC00070B50D4E0D4D0024AD1BAD1005D0A3007A
:10BBD000F35801349847A542F9D100F095F9084E81
:10BBE000084D0024AD1BAD1005D0A300F35801345F
:10BBF0009847A542F9D170BDB8240020B824002090
:10BC0000B8240020C024002070B50F2A32D9041CAB
:10BC10000C430B1CA40731D1151C041C103D2D092D
:10BC200001352D0149191E6826605E6866609E68B0
:10BC3000A660DE681033E66010349942F3D10F231A
:10BC400045191340032B1BD91C1F0023A4080134E2
:10BC5000A400CE58EE500433A342FAD1ED18C9180F
:10BC600003231A4005D00023CC5CEC5401339342EB
:10BC7000FAD170BD051C002AF5D1FAE7051CF2E7E0
:10BC80001A1CF8E770B583073FD0541E002A3BD03A
:10BC9000CEB2031C032503E0621E002C34D0141C1A
:10BCA00001335A1E16702B42F6D1032C24D9FF25DE
:10BCB0000D402A0215432A0415430F2C11D9261CC6
:10BCC000103E3609013636011A1C9B191560556065
:10BCD0009560D56010329342F8D10F221440032CA6
:10BCE0000AD9261FB6080136B6001A1C9B1920C2B5
:10BCF0009342FCD103221440002C05D0C9B21C1978
:10BD000019700133A342FBD170BD141C031CCCE796
:10BD1000F8B544465F4656464D469B462F4BF0B419
:10BD20001C68A4235B00051CE0580E1C90460028EC
:10BD30004BD043681F2B0DDC5C1C002D21D102333E
:10BD40009B0044601E5000203CBC90469946A24691
:10BD5000AB46F8BD224B002B3CD0C820400000E091
:10BD600000BF002836D0A42200235200A15843600F
:10BD70000160A05040328350043283500124002DD2
:10BD8000DDD09A0091468144424688214F467A5040
:10BD9000C422520090468044424687399940126836
:10BDA0008A460A43944642466146116084224946C7
:10BDB0005F4652008F50022DC1D1021C55468D3274
:10BDC000FF3211680D431560B9E7201C4D30FF307C
:10BDD000E050AEE701204042B6E7C046BCBF0100DC
:10BDE0000000000008B5034B002B02D00248FFF70B
:10BDF000B5FE08BD000000008DBB0100F0B5564641
:10BE00005F464D464446F0B40E1C3C4B87B01B6861
:10BE1000019003934933FF330493A422039B520000
:10BE20009F58002F4CD0049B984600239B46C42368
:10BE30005B009C46BC4463460293C6235B009A4663
:10BE40007C68BA44A5007D19013C08D526E06B1D2D
:10BE5000FF331B68B34204D0043D013C1ED3002EC7
:10BE6000F5D17B686A68013BA3423AD05B466B60C0
:10BE7000002AF1D07B68029999460123A340096802
:10BE80000591194223D190477B684B45C5D1434664
:10BE90001B68BB42C1D1043D013CE0D2184B002BD2
:10BEA0000ED07B68002B23D13B68002B24D0424668
:10BEB000381C136000E000BF43461F68002FB6D156
:10BEC00007B03CBC90469946A246AB46F0BD5146F1
:10BED0000968194207D12B1C8433196801989047CF
:10BEE000D2E77C60C4E72B1C843318689047CBE70B
:10BEF0003B68B8461F1CE1E70023FAE7BCBF01001E
:10BF000000000000FEE7C046F8B5C046F8BC08BC1B
:10BF10009E467047F8B5C046F8BC08BC9E467047C0
:10BF20007370690A0D006D63700A0D0063616E0A1B
:10BF30000D00646F6E650A0D00424C4520456E6130
:10BF4000626C65206572726F7220636F64653A205F
:10BF500025640A0D00416476657274697365207307
:10BF600074617274206572726F7220636F64653AD7
:10BF70002025640A0D0047415454532073746172A4
:10BF800074206572726F7220636F64653A20256455
:10BF90000A0D0006476F2440E09A8F7844C1BB42E7
:10BFA0003CD3F3426C75650A0D004E6577207661CF
:10BFB0006C7565210A0D00004300000090200020F0
:04BFC000000000007D
:08BFC400B0F1FF7F0100000055
:10BFCC0004096B756C03030D0F4C4544204D6174D3
:10BFDC007269780000000000000000007C23002043
:10BFEC00E42300204C24002000000000000000008E
:10BFFC000000000000000000000000000000000035
:10C00C00000000000000000000000000B8BF0100AC
:10C01C000000000000000000000000000000000014
:10C02C000000000000000000000000000000000004
:10C03C0000000000000000000000000000000000F4
:10C04C0000000000000000000000000000000000E4
:10C05C0000000000000000000000000000000000D4
:10C06C0000000000000000000000000000000000C4
:10C07C0000000000000000000000000000000000B4
:10C08C0001000000000000000E33CDAB34126DE651
:10C09C00ECDE05000B0000000000000000000000BA
:10C0AC000000000000000000000000000000000084
:10C0BC000000000000000000000000000000000074
:10C0CC000000000000000000000000000000000064
:10C0DC000000000000000000000000000000000054
:10C40C00E5BD010039B101000DB1010000000000D3
:040000031000B84DE4
:00000001FF
