:020000021000EC
:10B0000000400020D5BC010015BD010017BD0100A6
:10B010000000000000000000000000000000000030
:10B0200000000000000000000000000019BD010049
:10B0300000000000000000001BBD01001DBD01005C
:10B040001FBD01001FBD01001FBD01001FBD01008C
:10B050001FBD0100000000001FBD01001FBD010059
:10B060001FBD01001FBD01001FBD01001FBD01006C
:10B070001FBD01001FBD01001FBD01001FBD01005C
:10B080001FBD01001FBD01001FBD01001FBD01004C
:10B090001FBD01001FBD01001FBD01001FBD01003C
:10B0A0001FBD01001FBD01000000000000000000E6
:10B0B0000000000000000000000000000000000090
:10B0C00008B5054B054803331B1A062B03D9044B5F
:10B0D000002B00D0984708BDC8240020C8240020B9
:10B0E000000000000648074908B5091A8910CB0F6F
:10B0F0005918491003D0044B002B00D0984708BDC5
:10B10000C8240020C82400200000000010B5074C0F
:10B110002378002B09D1FFF7D3FF054B002B02D07A
:10B12000044800E000BF0123237010BDC8240020A4
:10B13000000000005CC5010008B5094B002B03D0DE
:10B140000848094900E000BF08480368002B02D105
:10B15000FFF7C8FF08BD064B002BF9D09847F7E76B
:10B16000000000005CC50100CC240020C4240020A5
:10B1700000000000144B002B00D1124B9D464022D2
:10B1800092029A1A924600218B460F461148124AA3
:10B19000121A01F01DF80D4B002B00D098470C4BF4
:10B1A000002B00D098470020002104000D000B4820
:10B1B00000F07AFF00F0AAFF2000290000F010F84C
:10B1C00000F07AFF000008000040002000000000AE
:10B1D00000000000C824002008250020D9C001007C
:10B1E00080B582B000AF00F001FA00F047F81E4AC7
:10B1F0001E4B0920111C1A1C00F0F6FC00F0DAF8B6
:10B20000002000F05FF800237B6000F06DFB031C62
:10B210007B607B68002B05D0154A7B68101C191CCD
:10B2200000F0F2FA00F090FB031C7B607B68002BBF
:10B2300005D0104A7B68101C191C00F0E5FA00F0DC
:10B24000B7FB031C7B607B68002B05D00A4A7B6838
:10B25000101C191C00F0D8FA00F07AFC0023181C0E
:10B26000BD4602B080BDC046093D0000841E0000FE
:10B270006CC4010088C40100ACC4010080B582B078
:10B2800000AF04237B6015E0A023DA0501217B6871
:10B2900099400B1C191CA323DB00D150A023DB0514
:10B2A00001217A6891400A1C111C054A99507B685B
:10B2B00001337B607B680F2BE6DDBD4602B080BDAD
:10B2C0000C05000080B582B000AF78607B68002B71
:10B2D00039D101235B42181C022100F037F800200D
:10B2E000022100F033F802235B42181C012100F018
:10B2F0002DF80120012100F029F802235B42181CDF
:10B30000002100F023F80120002100F01FF80223A3
:10B310005A4201235B42101C191C00F017F801234C
:10B320005B420120191C00F011F801235A4202234C
:10B330005B42101C191C00F009F802235B4200203C
:10B34000191C00F003F8BD4602B080BD80B586B080
:10B3500000AF7860396000F039F80823FB187A688C
:10B360001A600823FB183A685A600823FB18181C57
:10B3700000F040F80823FB181B687B610823FB18CA
:10B380005B683B61A023DB0501217A6991400A1CBF
:10B39000111C074A9950A023DA0501213B69994005
:10B3A0000B1C191CA123DB00D150BD4606B080BD8B
:10B3B0000C05000080B500AFA023DB050249E022A8
:10B3C00012025A50BD4680BD0C05000080B500AF8A
:10B3D000A023DB050549E02212025A50A023DA051A
:10B3E000A123DB000249D150BD4680BD0C05000001
:10B3F000F01F000080B586B000AF78607B681B68E6
:10B400007B617B685B683B617B69022B02DD022309
:10B410007B6105E07B69023302DA02235B427B61D8
:10B420003B69022B02DD02233B6105E03B690233ED
:10B4300002DA02235B423B613B690233042B00D9F1
:10B44000BEE09A00634BD3181B689F467B690233AA
:10B45000042B00D9ABE09A005F4BD3181B689F46C2
:10B460000623FB600F23BB6013E00A23FB600E235F
:10B47000BB600EE00423FB600F23BB6009E00923DF
:10B48000FB600E23BB6004E00523FB600F23BB6061
:10B49000C0468CE07B690233042B00D989E09A0016
:10B4A0004E4BD3181B689F460B23FB600D23BB60DC
:10B4B00013E00A23FB600D23BB600EE00923FB6051
:10B4C0000D23BB6009E00823FB600D23BB6004E093
:10B4D0000723FB600D23BB60C0466AE07B69023333
:10B4E000042B68D89A003E4BD3181B689F4605234F
:10B4F000FB600E23BB6013E00C23FB600D23BB60DD
:10B500000EE00623FB600E23BB6009E00C23FB600A
:10B510000F23BB6004E00423FB600E23BB60C04626
:10B5200049E07B690233042B47D89A002D4BD3188E
:10B530001B689F460723FB600F23BB6013E00823B3
:10B54000FB600F23BB600EE00923FB600F23BB6091
:10B5500009E00A23FB600F23BB6004E00B23FB60C0
:10B560000F23BB60C04628E07B690233042B26D83A
:10B570009A001D4BD3181B689F460423FB600D23C4
:10B58000BB6013E00723FB600E23BB600EE00523C6
:10B59000FB600D23BB6009E00823FB600E23BB604A
:10B5A00004E00623FB600D23BB60C04607E0C046F5
:10B5B00006E0C04604E0C04602E0C04600E0C046E7
:10B5C0007B68FA681A607B680433BA681A60BD4603
:10B5D00006B080BDCCC40100E0C40100F4C4010089
:10B5E00008C501001CC5010030C5010080B500AFD1
:10B5F000A023DA05EC23DB000121D150A023DB05D9
:10B60000124A002199501249A123DB000122524223
:10B61000CA500F49A223DB0001225242CA500C4AF1
:10B620000C4B1821D1500A4A0B4B1921D150084A12
:10B630000A4B0B49D150064AA023DB000421D1500C
:10B64000034B01221A60BD4680BDC046640700005E
:10B65000002000400C050000140500002405000037
:10B660000050270080B582B000AF021CFB1D1A708D
:10B670000C4B01229A600B49FB1D1B780A4A8B5028
:10B68000C046084A8E235B00D358002BF9D0054AE8
:10B690008E235B000021D150024B0122DA60BD46AF
:10B6A00002B080BD002000401C05000080B586B0BF
:10B6B00000AF78607B68002B03D13020FFF7D2FF0A
:10B6C0005AE000237B6100233B610023FB607B6821
:10B6D000002B04DA0123FB607B685B427B6019E08E
:10B6E0003A69131C9B009B185B003B617B68181C2C
:10B6F0000A2100F0CDFC0B1C1A1C3B699B183B6116
:10B700007B68181C0A2100F0DDFB031C7B607B6951
:10B7100001337B617B68002BE2D1FB68002B02D0F8
:10B720002D20FFF79FFF1AE03B69181C0A2100F04B
:10B73000AFFC0B1CDAB20B23FB1830321A700B2350
:10B74000FB181B78181CFFF78DFF3B69181C0A219A
:10B7500000F0B8FB031C3B617B69013B7B613B69EB
:10B76000002BE1D105E03020FFF77CFF7B69013B36
:10B770007B617B69002BF6D1BD4606B080BDC0461B
:10B7800080B584B000AF78600023FB600EE0FA68FB
:10B79000131C9B009B185B00FB607B681B78303B95
:10B7A000FA68D318FB607B6801337B607B681B7889
:10B7B000642BECD1FB68181CBD4604B080BDC046AC
:10B7C00080B584B000AF78607B68002B01D1012385
:10B7D00016E00023FB607B68002B02DAFB68013374
:10B7E000FB6009E0FB680133FB607B68181C0A21E1
:10B7F00000F068FB031C7B607B68002BF2D1FB68C8
:10B80000181CBD4604B080BD0FB480B586B000AF33
:10B810002423FB187B603B6A3B6137E03B691B7864
:10B82000252B05D03B691B78181CFFF71BFF2AE06E
:10B830007B681A1D7A601B68FB603B6901333B61C2
:10B840003B69181CFFF79CFF031CBB60FB68181CBE
:10B85000FFF7B6FF031C7B6102E03B6901333B61EC
:10B860003B691B78642BF8D105E02020FFF7FAFE36
:10B870007B6901337B617A69BB689A42F5DBFB68BF
:10B88000181CFFF713FF3B6901333B613B691B78D1
:10B89000002BC3D1BD4606B080BC08BC04B018471D
:10B8A00010DF7047181CC04672DF7047181CC04676
:10B8B00073DF7047181CC046A0DF7047181CC046D5
:10B8C000A2DF7047181CC046A9DF7047181CC0468D
:10B8D00060DF7047181CC04661DF7047181CC04607
:10B8E00063DF7047181CC04680B582B000AF0023EC
:10B8F0007B6000200021FFF7D3FF031C7B607B6887
:10B90000002B01D07B6816E00D4B181C002114227F
:10B9100000F05EFC0B4B3B60094B01221A72084B96
:10B9200001221A80064A3B1C101C191CFFF7D0FF8D
:10B93000031C7B607B68181CBD4602B080BDC046FE
:10B94000F42400207820002080B588B000AF0023C8
:10B95000FB611B23FB1809221A70144A1B23FB18D6
:10B960001B78101C191C00220023FFF79DFF031CED
:10B97000FB61FB69002B01D0FB6912E03B1C181C2A
:10B980000021182200F024FC3B1C00221A703B1CF2
:10B9900020221A823B1C181CFFF78AFF031CFB6144
:10B9A000FB69181CBD4608B080BDC0467820002049
:10B9B00080B594B000AF0023FB643C23FA185C4BC5
:10B9C000111C1A1C1023081C111C1A1C00F0C2FBAD
:10B9D0003823FB18574A1A803C23FA183823FB18DF
:10B9E0000233101C191CFFF77BFF031CFB64FB6C6C
:10B9F000002B01D0FB6C97E03823FA184E4B012046
:10BA0000111C1A1CFFF758FF031CFB64FB6C002B76
:10BA100001D0FB6C88E03423FB18484A1A803C2391
:10BA2000FA183423FB180233101C191CFFF758FFB7
:10BA3000031CFB64FB6C002B01D0FB6C74E018232F
:10BA4000FB18181C00211C2200F0C2FB1823FB1855
:10BA50001A7802210A431A701823FB181A78082151
:10BA60000A431A701823FB18354A5A601823FB182A
:10BA70000A221A811823FB180A225A811423FB1860
:10BA8000181C0021032200F0A3FB1423FB181A78D2
:10BA90000F210A40111C10220A431A701423FB18AC
:10BAA0001A780F218A43111C01220A431A701423A9
:10BAB000FB185A780F210A40111C10220A435A70B1
:10BAC0001423FB185A780F218A43111C01220A43C0
:10BAD0005A701423FB189A7806218A43111C0422F9
:10BAE0000A439A703B1C181C0021142200F070FBC2
:10BAF0003B1C3422BA181A603B1C1422BA185A6034
:10BB00003B1C01221A813B1C01229A813B1C0D4ADD
:10BB10001A610D4B58881823F9183A1C0B4BFFF784
:10BB2000CFFE031CFB64FB6C181CBD4614B080BD2B
:10BB300044C50100ADDEFFFFEA240020BEBAFFFFCE
:10BB400084200020E4240020E8240020EC240020AD
:10BB500080B59CB000AF3B1D1A1C6423101C002153
:10BB60001A1C00F035FBBB1C64221A801C4B1B788E
:10BB7000181CFFF777FD25E03B1DFB666A23FB18C9
:10BB8000FA6E12881A806A23FB181B88102B02D0C9
:10BB9000112B0DD013E0FB6E9A88124B1A80114BBB
:10BBA0001B88181C002100220023FFF78DFE06E0F1
:10BBB0000C4B012252421A80FFF7C6FEC046BB1C46
:10BBC00064221A803A1DBB1C101C191CFFF784FE4E
:10BBD000031E052BD0D1BB1C64221A80C6E7C046C9
:10BBE000E4240020E824002080B584B000AFF86091
:10BBF000B9607A60294AA223DB002949D150294A39
:10BC0000A223DB002849D150264A284B2349D15092
:10BC1000244AA323DB002649D150224A254B1F4941
:10BC2000D150204AA423DB002349D1501D4A234B85
:10BC30002349D1501B4AA523DB001F49D150194A83
:10BC4000204B1649D150174A1F4B0721D1501F4A8C
:10BC50001D4B0021D1501D4AA123DB000321D150EF
:10BC60001A4A80239B000221D1501849FA68A22366
:10BC7000DB00CA5015497A68A823DB00CA50134973
:10BC8000BB68134A8B5011497A68A923DB00CA505C
:10BC90000E4B01221A60BD4604B080BD006000401A
:10BCA0000314130000F0014040910040140500000F
:10BCB000449100401C05000048910040240500000C
:10BCC000409000402C05000004050000009000405A
:10BCD0004405000003210A4802680A43026009483B
:10BCE00002680A4302600849084A094B9B1A03DDAF
:10BCF000043BC858D050FBDC00F012F8FFF73AFACA
:10BD0000240500405405004068C50100782000204B
:10BD1000C8240020FEE7FEE7FEE7FEE7FEE7FEE7B9
:10BD200080B500AF00F034F8031E06D0124B134A62
:10BD30001A60134B802212021A6000F069F8031E89
:10BD400005D08023DA05C123DB000121D15000F0AA
:10BD500085F8031E0ED00B4B1B68012B07D0094B37
:10BD6000094A1A60C046074B1B68012BFBD1074BE1
:10BD7000C0221A60BD4680BD04050040DFFF07C039
:10BD8000186C004000EC06407593000014EC06406F
:10BD900080B500AF1A4B1B68FF221340012B2AD13C
:10BDA000184B1B680F22134025D1174B1B68F0223C
:10BDB000134006D1154B1B68F022134001D101231B
:10BDC0001AE0114B1B68F0221340102B06D10F4BC9
:10BDD0001B68F022134001D101230DE00A4B1B68C0
:10BDE000F0221340302B06D1084B1B68F022134081
:10BDF00001D1012300E00023181CBD4680BDC046D0
:10BE0000E00F00F0E40F00F0E80F00F0EC0F00F09E
:10BE100080B500AF0D4B1B68FF221340012B11D1E1
:10BE20000B4B1B680F2213400CD10A4B1B68F022EE
:10BE30001340402B06D1084B1B68F022134001D160
:10BE4000012300E00023181CBD4680BDE00F00F078
:10BE5000E40F00F0E80F00F0EC0F00F080B500AF49
:10BE6000144B1B68FF221340012B1ED1124B1B6881
:10BE70000F22134019D1114B1B68F0221340A02B45
:10BE800006D10F4B1B68F022134001D101230DE0B6
:10BE90000A4B1B68F0221340D02B06D1084B1B68BD
:10BEA000F022134001D1012300E00023181CBD46FD
:10BEB00080BDC046E00F00F0E40F00F0E80F00F096
:10BEC000EC0F00F003460B437FD4002243088B4263
:10BED00074D303098B425FD3030A8B4244D3030B11
:10BEE0008B4228D3030C8B420DD3FF22090212BAD6
:10BEF000030C8B4202D31212090265D0030B8B4252
:10BF000019D300E0090AC30B8B4201D3CB03C01A3B
:10BF10005241830B8B4201D38B03C01A5241430B16
:10BF20008B4201D34B03C01A5241030B8B4201D306
:10BF30000B03C01A5241C30A8B4201D3CB02C01A71
:10BF40005241830A8B4201D38B02C01A5241430AE9
:10BF50008B4201D34B02C01A5241030A8B4201D3D8
:10BF60000B02C01A5241CDD2C3098B4201D3CB017F
:10BF7000C01A524183098B4201D38B01C01A52412E
:10BF800043098B4201D34B01C01A524103098B4232
:10BF900001D30B01C01A5241C3088B4201D3CB001D
:10BFA000C01A524183088B4201D38B00C01A524100
:10BFB00043088B4201D34B00C01A5241411A00D2B0
:10BFC00001465241104670475DE0CA0F00D0494219
:10BFD000031000D34042534000229C4603098B4289
:10BFE0002DD3030A8B4212D3FC22890112BA030A11
:10BFF0008B420CD3890192118B4208D38901921193
:10C000008B4204D389013AD0921100E08909C30917
:10C010008B4201D3CB01C01A524183098B4201D319
:10C020008B01C01A524143098B4201D34B01C01A04
:10C03000524103098B4201D30B01C01A5241C3087C
:10C040008B4201D3CB00C01A524183088B4201D3EB
:10C050008B00C01A5241D9D243088B4201D34B0006
:10C06000C01A5241411A00D20146634652415B1048
:10C07000104601D34042002B00D549427047634629
:10C080005B1000D3404201B5002000F00BF802BD68
:10C090000029F8D003B5FFF715FF0EBC4243891AFB
:10C0A0001847C0467047C04608B5011C0022002052
:10C0B000002300F0D3F808BD10B50021041C00F0E7
:10C0C00043F9044B1868C36B002B00D09847201C21
:10C0D00000F0BEF958C5010038B5094B094CE41A07
:10C0E000A41009D0084AA518AD00ED182B68013C32
:10C0F0009847043D002CF9D100F0B2F938BDC04694
:10C10000C0240020C4240020FFFFFF3F70B50D4E67
:10C110000D4D0024AD1BAD1005D0A300F358013424
:10C120009847A542F9D100F095F9084E084D002432
:10C13000AD1BAD1005D0A300F35801349847A542BC
:10C14000F9D170BDB8240020B8240020B824002004
:10C15000C024002070B50F2A32D9041C0C430B1CDC
:10C16000A40731D1151C041C103D2D0901352D01EA
:10C1700049191E6826605E6866609E68A660DE6873
:10C180001033E66010349942F3D10F234519134060
:10C19000032B1BD91C1F0023A4080134A400CE5874
:10C1A000EE500433A342FAD1ED18C91803231A4004
:10C1B00005D00023CC5CEC5401339342FAD170BD1E
:10C1C000051C002AF5D1FAE7051CF2E71A1CF8E76E
:10C1D00070B583073FD0541E002A3BD0CEB2031C5B
:10C1E000032503E0621E002C34D0141C01335A1EB8
:10C1F00016702B42F6D1032C24D9FF250D402A02BC
:10C2000015432A0415430F2C11D9261C103E36095C
:10C21000013636011A1C9B19156055609560D56072
:10C2200010329342F8D10F221440032C0AD9261F52
:10C23000B6080136B6001A1C9B1920C29342FCD1E5
:10C2400003221440002C05D0C9B21C191970013307
:10C25000A342FBD170BD141C031CCCE7F8B54446C7
:10C260005F4656464D469B462F4BF0B41C68A423B0
:10C270005B00051CE0580E1C904600284BD043681C
:10C280001F2B0DDC5C1C002D21D102339B00446070
:10C290001E5000203CBC90469946A246AB46F8BDD5
:10C2A000224B002B3CD0C820400000E000BF0028FB
:10C2B00036D0A42200235200A15843600160A05050
:10C2C00040328350043283500124002DDDD09A0087
:10C2D00091468144424688214F467A50C4225200FA
:10C2E0009046804442468739994012688A460A43FC
:10C2F0009446424661461160842249465F46520098
:10C300008F50022DC1D1021C55468D32FF3211686B
:10C310000D431560B9E7201C4D30FF30E050AEE70B
:10C3200001204042B6E7C04658C5010000000000A9
:10C3300008B5034B002B02D00248FFF7B5FE08BD3D
:10C3400000000000D9C00100F0B556465F464D46DA
:10C350004446F0B40E1C3C4B87B01B68019003931D
:10C360004933FF330493A422039B52009F58002FAC
:10C370004CD0049B984600239B46C4235B009C46FC
:10C38000BC4463460293C6235B009A467C68BA4469
:10C39000A5007D19013C08D526E06B1DFF331B6805
:10C3A000B34204D0043D013C1ED3002EF5D17B687E
:10C3B0006A68013BA3423AD05B466B60002AF1D029
:10C3C0007B68029999460123A340096805911942A7
:10C3D00023D190477B684B45C5D143461B68BB4280
:10C3E000C1D1043D013CE0D2184B002B0ED07B683C
:10C3F000002B23D13B68002B24D04246381C13600D
:10C4000000E000BF43461F68002FB6D107B03CBC18
:10C4100090469946A246AB46F0BD5146096819427E
:10C4200007D12B1C8433196801989047D2E77C60B0
:10C43000C4E72B1C843318689047CBE73B68B846A9
:10C440001F1CE1E70023FAE758C5010000000000C7
:10C45000FEE7C046F8B5C046F8BC08BC9E4670472B
:10C46000F8B5C046F8BC08BC9E467047424C452013
:10C47000456E61626C65206572726F7220636F64D5
:10C48000653A2025640A0D0041647665727469730B
:10C4900065207374617274206572726F7220636FAD
:10C4A00064653A2025640A0D000000006E65774738
:10C4B00041545453207374617274206572726F72A8
:10C4C00020636F64653A2025640A0D004CB40100B6
:10C4D00094B40100DCB4010022B5010068B501008C
:10C4E00060B401006AB4010074B401007EB40100BC
:10C4F00088B40100A8B40100B2B40100BCB40100CA
:10C50000C6B40100D0B40100EEB40100F8B40100DB
:10C5100002B501000CB5010016B5010034B50100EB
:10C520003EB5010048B5010052B501005CB50100FF
:10C530007AB5010084B501008EB5010098B50100FF
:10C54000A2B5010006476F2440E09A8F7844C1BB32
:10C55000423CD3F343000000902000200000000084
:08C5600014ECFF7F0100000054
:10C5680004096B756C03030D0F0000004C45442053
:10C578004D61747269780000000000007C2300207F
:10C58800E42300204C2400200000000000000000EC
:10C598000000000000000000000000000000000093
:10C5A80000000000000000000000000054C5010069
:10C5B8000000000000000000000000000000000073
:10C5C8000000000000000000000000000000000063
:10C5D8000000000000000000000000000000000053
:10C5E8000000000000000000000000000000000043
:10C5F8000000000000000000000000000000000033
:10C608000000000000000000000000000000000022
:10C618000000000000000000000000000000000012
:10C6280001000000000000000E33CDAB34126DE6AF
:10C63800ECDE05000B000000000000000000000018
:10C6480000000000000000000000000000000000E2
:10C6580000000000000000000000000000000000D2
:10C6680000000000000000000000000000000000C2
:10C6780000000000000000000000000000000000B2
:10C9A80031C3010039B101000DB1010000000000E0
:040000031000BCD558
:00000001FF
