:100000000C9460030C947D030C947D030C94A40564
:100010000C947D030C947D030C947D030C94D20C02
:100020000C947D030C947D030C947D030C947D0350
:100030000C947D030C94AB0C0C947D030C947D0309
:100040000C947D030C947D030C947D030C947D0330
:100050000C947D030C947D030C947D030C947D0320
:100060000C947D030C947D030C947D030C947D0310
:1000700000000000005C00000C000C007C287C28C4
:1000800058DC68002410480028542840000C000068
:10009000007884008478000054385400107C1000EC
:1000A00080400000101010000040000060100C00A4
:1000B00038543800487C40004864580044542C00B0
:1000C0001C107C005C5424003854240064140C0080
:1000D00068542C0048543800004800008048000054
:1000E0001028440028282800442810000454080040
:1000F00038445C00781478007C5428003844280088
:100100007C4438007C5444007C140400384474005F
:100110007C107C00447C440020403C007C106C003F
:100120007C4040007C187C0078103C00384438004B
:100130007C1408003844B8007C146800485424003B
:10014000047C04007C407C003C603C007C307C00F3
:100150006C106C000C700C0064544C00007C44006B
:100160000C106000447C00000804080080808000BF
:1001700000040800304878007C48300030484800CF
:1001800030487C00306850001078140090A8780047
:100190007C08700050744000808074007C106800FF
:1001A000447C4000781078007808700030483000B7
:1001B000F82810003048F80078100800505828003F
:1001C000083C4800384078003840380078207800F3
:1001D0004830480098A0780048685800107884009B
:1001E000007C00008478100008040804000000006F
:1001F0000000005F00000007000700147F147F1458
:10020000242A7F2A1223130864623649552250009B
:1002100005030000001C2241000041221C00082AA6
:100220001C2A0808083E080800503000000808088A
:100230000808006060000020100804023E51494593
:100240003E00427F400042615149462141454B31C9
:100250001814127F1027454545393C4A4949300159
:10026000710905033649494936064949291E0036B0
:100270003600000056360000000814224114141401
:10028000141441221408000201510906324979412F
:100290003E7E1111117E7F494949363E414141223E
:1002A0007F4141221C7F494949417F090901013EA3
:1002B000414151327F0808087F00417F41002040C2
:1002C000413F017F081422417F404040407F0204AB
:1002D000027F7F0408107F3E4141413E7F090909AA
:1002E000063E4151215E7F09192946464949493157
:1002F00001017F01013F4040403F1F2040201F7F00
:100300002018207F631408146303047804036151E8
:1003100049454300007F4141020408102041417FCC
:100320000000040201020440404040400001020479
:100330000020545454787F4844443838444444207E
:10034000384444487F3854545418087E0901020840
:100350001454543C7F0804047800447D400020403D
:10036000443D00007F10284400417F40007C041879
:1003700004787C0804047838444444387C14141409
:1003800008081414187C7C080404084854545420A9
:10039000043F4440203C4040207C1C2040201C3C2A
:1003A0004030403C44281028440C5050503C446499
:1003B000544C44000836410000007F0000004136E4
:1003C000080002010302010000000000000000001C
:1003D000065F5F0600000000070700070700001423
:1003E0007F7F147F7F1400242E6B6B3A120000462F
:1003F0006630180C666200307A4F5D377A48000428
:1004000007030000000000001C3E634100000000E4
:1004100041633E1C000000082A3E1C1C3E2A0808BE
:10042000083E3E0808000000A0E060000000000850
:100430000808080808000000006060000000006074
:1004400030180C060301003E7F594D7F3E000042EC
:10045000427F7F40400000627359496F660000226E
:100460006349497F360000181C16137F7F10002750
:100470006745457D3900003C7E4B497930000003DB
:100480006371190F070000367F49497F3600000667
:100490004F49693F1E000000006C6C000000000026
:1004A000A0EC6C00000000081C3663410000001442
:1004B00014141414140000004163361C08000002D8
:1004C0000351590F0600003E7F415D5D1F1E007CF9
:1004D0007E13137E7C0000417F7F49497F36001CDC
:1004E0003E634141632200417F7F41637F1C0041A5
:1004F0007F7F495D416300417F7F491D0103001CEF
:100500003E6341517372007F7F08087F7F000000C7
:10051000417F7F41000000307040417F3F0100413A
:100520007F7F081C776300417F7F41406070007FC0
:100530007F060C067F7F007F7F060C187F7F001CE4
:100540003E6341633E1C00417F7F49090F06001E48
:100550003F21717F5E0000417F7F19396F46002681
:10056000674D597B32000003417F7F410300007FCC
:100570007F40407F7F00001F3F60603F1F00007F83
:100580007F3018307F7F0063771C081C776300077B
:100590004F78784F0700006773594D47637100002B
:1005A0007F7F41410000000103060C18306000000D
:1005B00041417F7F000000080C0603060C08008004
:1005C000808080808080800000030704000000207D
:1005D0007454543C784000413F7F44447C38003898
:1005E0007C44446C280000307848493F7F40003804
:1005F0007C54545C180000487E7F49030200009838
:10060000BCA4A4F87C0400417F7F08047C7800002F
:10061000447D7D4000000040C484FD7D0000004119
:100620007F7F10386C440000417F7F400000007CD9
:100630007C0C180C7C78007C7C04047C78000038EE
:100640007C44447C38000084FCF8A4243C18001846
:100650003C24A4F8FC8400447C78441C1800004826
:100660005C54547424000000043E7F442400003C89
:100670007C40403C7C40001C3C60603C1C00003CDA
:100680007C6030607C3C00446C3810386C44009CCA
:10069000BCA0A0FC7C00004C64745C4C64000008AE
:1006A000083E7741410000000000777700000041DC
:1006B00041773E0808000002030103020301000025
:1006C00011241FBECFEFD4E0DEBFCDBF12E0A0E00B
:1006D000B1E0E4E1F9E202C005900D92A439B1075E
:1006E000D9F722E0A4E9B2E001C01D92A63BB2070F
:1006F000E1F70E9402040C9488140C940000CF923D
:10070000DF92EF92FF920F931F93CF93DF938CE0D2
:1007100091E00E94F00F0E947F0F7C010E94840FE5
:10072000C12CD12CC0E0D0E002E211E00E947F0F8A
:10073000F601F85E808320812817A1F099279F9306
:100740008F931F922F93DF92CF921F930F930E944C
:10075000DA0F21968DB79EB708960FB6F8949EBF14
:100760000FBE8DBF9FEFC91AD90AC11488E0D80601
:10077000E9F6C7010E94840F00E010E0E12CF12CA3
:100780000F2EFBE5CF2EF1E0DF2EF02D0E947F0F24
:10079000F801F85E20812817B1F099279F938F9375
:1007A0001F922F931F930F93DF92CF920E94DA0F25
:1007B0009FEFE91AF90A8DB79EB708960FB6F8941D
:1007C0009EBF0FBE8DBF0F5F1F4F011598E0190729
:1007D000E9F6FF92EF92DF93CF9388E991E09F9340
:1007E0008F930E94DA0F0F900F900F900F900F9041
:1007F0000F90DF91CF911F910F91FF90EF90DF90BD
:10080000CF9008958FE190E00E942A0485B7806818
:1008100085BF81EF91E00E94F00F0E9456040E9474
:10082000CB040E94F7040E942D0680B7806280BF2F
:100830000E947F030E941B088DEF91E00E94F00F41
:100840002FEF8FE791E0215080409040E1F700C00A
:1008500000C0F2CF90BD89B98EE880BD1BB888E199
:100860008AB960E574E08CE394E00E948F0F0895EC
:100870005D9BFECF8CB90895CF93C82F8A3019F4B1
:100880008DE00E9438048C2F0E94380480E090E0B4
:10089000CF9108955F9B02C08CB1089580E00895C8
:1008A0000E944A04082E000C990B089587B3806BB0
:1008B00087BBBE988DB181658DB908958FB9779B3F
:1008C000FECF8FB10895882311F0C49A0895C4987B
:1008D0000895CF93C82F80E00E94630483E00E94B4
:1008E0005E048C2F0E945E0480E00E945E04C82F8C
:1008F00081E00E9463048C2FCF910895CF93DF9302
:10090000D82FC62F80E00E94630482E00E945E041C
:100910008D2F0E945E048C2F0E945E0481E00E9455
:100920006304DF91CF91089580E00E94630481E821
:100930000E945E0481E00E9463040895CF9380E0EA
:100940000E94630480EA0E945E0480E00E945E04CC
:10095000C82F81E00E9463048C2FCF9108951F93CC
:10096000CF93DF93182FD62FC42F80E00E9463040B
:1009700085E00E945E04812F0E945E048D2F0E94FC
:100980005E048C2F0E945E0481E00E946304DF916C
:10099000CF911F91089580E00E94630480EC0E9433
:1009A0005E0481E00E9463040895F8948BB780642C
:1009B0008BBF85B7886085BF78941092940240E021
:1009C00061E08BE20E94AF044FEF61E08BE20E9496
:1009D000AF0440E061E08CE20E94AF048CE20E9430
:1009E000690480FF03C081E08093940208950E940F
:1009F000CB04109294028EE00E94690480FF05C02F
:100A000040E860EE8FE00E94AF040E94D50440E011
:100A100060EE8FE00E94AF040895EF92FF920F9373
:100A20001F93CF93DF937C0106C08CEC94E0019779
:100A3000F1F700C0000080E30E94690483FDF5CF58
:100A4000F701608166956695669581E30E947E0454
:100A5000F70160816295660F607E82E30E947E04EA
:100A6000F70161816F7085E30E947E04F701818147
:100A7000882399F087010E5F1F4FC0E0D0E0F80196
:100A800061918F018C2F8A5C0E947E042196F70170
:100A9000218130E0C217D30794F34FEF6BE080E37E
:100AA0000E94AF04DF91CF911F910F91FF90EF90C3
:100AB0000895EF92FF920F931F93CF93DF937C01E2
:100AC0008CE20E94690480FD04C080919402882316
:100AD000A1F181E60E946904880F880F880FF70151
:100AE000808382E60E946904829586958770F7016B
:100AF0009081892B808385E60E9469048F70F701BD
:100B00008183882399F087010E5F1F4FC0E0D0E0FA
:100B10008C2F8A590E946904F80181938F012196D4
:100B2000F701218130E0C217D30794F340E061E080
:100B30008CE20E94AF0410929402DF91CF911F913A
:100B40000F91FF90EF9008951F920F920FB60F92A2
:100B500011242F933F934F935F936F937F938F93C2
:100B60009F93AF93BF93EF93FF93CF93DF93CDB753
:100B7000DEB72A97DEBFCDBFF8948CE20E946904ED
:100B800080FF03C081E08093940240E061E08CE24A
:100B90000E94AF04CE0101960E9459052A960FB615
:100BA000F894DEBF0FBECDBFDF91CF91FF91EF91E3
:100BB000BF91AF919F918F917F916F915F914F9175
:100BC0003F912F910F900FBE0F901F901895E5E960
:100BD000F2E0AFE9B2E08C91828311968C9111978B
:100BE000838312968C911297848313968C9113971A
:100BF000858314968C9186830895EFE9F2E0A5E948
:100C0000B2E012968C911297808313968C91139771
:100C1000818314968C911497828315968C911597E5
:100C2000838316968C91848308950F931F93CF939B
:100C3000DF930E949006082F192F0E943807CFE9F2
:100C4000D2E0088319838A839B830E9446078C83A2
:100C5000DF91CF911F910F910895E5E9F2E01082A5
:100C600085E08183E7E9F2E08FE992E01192E817ED
:100C7000F907E1F7EFE9F2E01082118212821382A4
:100C800014820895CF93DF9300D000D01F92CDB788
:100C9000DEB70E9415060E94E70585E992E00E94F2
:100CA0000D0585E0EFE9F2E0DE01119601900D926D
:100CB0008A95E1F729813A814B815C816D8170E0F1
:100CC00080E090E00F900F900F900F900F90DF91C9
:100CD000CF910895CF93DF9300D000D01F92CDB76E
:100CE000DEB785E992E00E9459050E94FD0585E086
:100CF000EFE9F2E0DE01119601900D928A95E1F79D
:100D000029813A814B815C816D8170E080E090E0C7
:100D10000F900F900F900F900F90DF91CF9108954B
:100D2000CF93DF9384E090E00E94F90CC82FD0E0CD
:100D300085E090E00E94F90C282F30E0C858D109D6
:100D400088EC8C9FA0018D9F500D1124552314F425
:100D500041505F4F852F952F990F990B863F4FEF8D
:100D600094070CF403968B3091050CF004962758E9
:100D7000310998EC929FA001939F500D11245523A7
:100D800014F441505F4F252F352F330F330B263F7F
:100D90009FEF390714F42E5F3F4F2B30310514F0CD
:100DA0002C5F3F4F922FDF91CF9108950E949006C4
:100DB000282F392F833084F0682F082E000C770BF2
:100DC000492F092E000C550B55231CF451954195C4
:100DD000510964177507ECF52E3F9CF4682F082E17
:100DE000000C770B492F092E000C550B55231CF4D2
:100DF000519541955109519541955109461757070C
:100E00005CF5333084F0692F092E000C770B482FE6
:100E1000082E000C550B55231CF451954195510992
:100E200046175707E4F03E3FECF4292F990F330B98
:100E3000082E000C990B99231CF49195819591092A
:100E4000919581959109281739077CF484E090E009
:100E5000089582E090E0089581E090E0089583E0B5
:100E600090E0089580E090E0089580E090E008959B
:100E7000CF9386E090E00E94F90CC82F87E090E0C5
:100E80000E94F90C982F8C2FCF91089586B38095EE
:100E90008170089582309105D9F028F40097E9F027
:100EA000019789F01FC08330910519F0049731F044
:100EB00019C087E092E00E94F00F08958AE092E066
:100EC0000E94F00F08958FE092E00E94F00F0895C5
:100ED00084E192E00E94F00F08958AE192E00E947E
:100EE000F00F089589EF91E09F938F930E94DA0F9E
:100EF0000F900F90089590910101992331F090E0A7
:100F00009093A5028093A4020895806B0E94500BD9
:100F10000895CF9390910101992331F090E090933F
:100F2000A7028093A6020AC0C82F8F700E94500BA0
:100F30008C2F82958F7080610E94500BCF91089505
:100F400080910101882339F080E00E947B0780E0D6
:100F50000E948907089580EB0E94500B80E00E9458
:100F6000500B80E10E94500B0895FF920F931F9346
:100F7000CF93DF9380910101882319F00E94AD097E
:100F80001DC00E94A00710E06894FF24F7F800E05D
:100F9000812F806B0E94500B80E00E94500B80E1FB
:100FA0000E94500BCF2DD02F8FEF0E94530B219713
:100FB000D9F71F5F183061F70E94A007DF91CF912A
:100FC0001F910F91FF900895CF93DF9390910101AE
:100FD000992319F00E94B50910C0806B0E94500B34
:100FE00080E00E94500B80E10E94500BC0E8D0E0EE
:100FF00080E00E94530B2197D9F7DF91CF9108959C
:10100000CF93C0910101CC2319F00E94860911C031
:1010100080EB0E94500B80E00E94500B80E10E9408
:10102000500B8C2F0E94E407CF5FC830D1F70E948D
:10103000A007CF9108958EEA0E94500B81EA0E948A
:10104000500B8AED0E94500B82E10E94500B88ECFD
:101050000E94500B88EA0E94500B8FE30E94500BB5
:1010600085ED0E94500B80E80E94500B81E80E94A1
:10107000500B80E50E94500B89ED0E94500B81E2DD
:101080000E94500B80E20E94500B82E00E94500BA5
:101090008BED0E94500B80E30E94500B8DEA0E9462
:1010A000500B80E00E94500B84EA0E94500B86EAAD
:1010B0000E94500B8FEA0E94500B809101018823FF
:1010C00019F00E949D0908950E9400080895CF9389
:1010D000C62F0E947B078C2F0E948907CF9108950D
:1010E000853039F0883049F0843059F4809300011C
:1010F0000BC085E08093000107C088E08093000169
:1011000003C088E080930001809100011F928F93BB
:1011100082E292E09F938F930E94DA0F0F900F90DC
:101120000F900F900895EF92FF921F93CF93DF934C
:1011300010910001153069F1183009F458C01430CD
:1011400009F07CC094E08902E0011124C051D04034
:101150000F2EF4EAEF2EF2E0FF2EF02DF701628160
:1011600073816F5F7F4F7383628380910101882356
:1011700039F0FE014491F70180810E94790904C091
:10118000FE0184910E94530B115021961111E6CF5C
:101190007CC0082E000C990B8097EC01CC0FDD1F52
:1011A000CC0FDD1FC80FD91FC451DE4F0F2EF4EA3C
:1011B000EF2EF2E0FF2EF02DF701628173816F5F59
:1011C0007F4F7383628380910101882339F0FE0190
:1011D0004491F70180810E94790904C0FE01849145
:1011E0000E94530B115021961111E6CF4EC0F8E02A
:1011F0008F02E0011124C953DD4F0F2EF4EAEF2EC8
:10120000F2E0FF2EF02DF701628173816F5F7F4F57
:101210007383628380910101882339F0FE01449138
:10122000F70180810E94790904C0FE0184910E9427
:10123000530B115021961111E6CF27C0F8E08F0211
:10124000E0011124C953DD4F18E00F2EF4EAEF2E10
:10125000F2E0FF2EF02DF701628173816F5F7F4F07
:101260007383628380910101882339F0FE014491E8
:10127000F70180810E94790904C0FE0184910E94D7
:10128000530B115021961111E6CFDF91CF911F9191
:10129000FF90EF9008950F931F93CF93DF93EC018E
:1012A000892B11F188818823F9F0219604EA12E054
:1012B0008A3019F00E94930814C0F801808191814E
:1012C000019687709078992324F40197886F9F6F17
:1012D0000196F801808391831382128260E00E945C
:1012E000670889918111E4CFDF91CF911F910F9110
:1012F0000895262F30E0642FA90170E8879F400DE4
:10130000511D1124CA010E94560B08951F93CF93BB
:10131000DF93D0E010E00BC0412F6C2F8D2F0E9487
:101320007909CF5FC038C1F7DF5FD83011F0C12F26
:10133000F3CFDF91CF911F9108950E9486096FEC42
:1013400079E081E00E94540C61E084E690E00E9424
:10135000050C81E00E947F0C0895C0E04FEF6C2FD8
:1013600080E00E947909CF5FF9CFCF93DF93D82F28
:10137000C0E040E06C2F8D2F0E947909CF5FC0380C
:10138000C1F7DF91CF91089570E09B0140E8849F01
:10139000200D311D1124C9010E945A0B08951F937D
:1013A000CF93DF93D0E010E08D2F806B0E94500B25
:1013B000C12F6C2F8D2F0E94C4090E94530BCF5F49
:1013C000C038B9F7DF5FD83079F7DF91CF911F913F
:1013D00008950F931F93CF93DF9390E1699F800D42
:1013E00011246770C1E0D0E002C0CC0FDD1F6A9508
:1013F000E2F7442361F0082F10E0C8010E945A0B65
:10140000C095682F6C23C8010E94560B0AC0082F94
:1014100010E0C8010E945A0B6C2F682BC8010E9473
:10142000560BDF91CF911F910F9108957F928F926C
:101430009F92AF92BF92CF92DF92EF92FF920F9363
:101440001F93CF93DF93C82FD62F142F622F70E0F6
:101450006D1B7109072E000C880B990B0E94110E51
:101460006B017C01612F70E06C1B7109072E000C71
:10147000880B990B0E94110E9B01AC01C701B601AC
:101480000E946E0D4B015C0120E030E0A9010E943A
:10149000690D882324F4B7FAB094B7F8B09420E02B
:1014A00030E0A901C701B6010E94C10E18165CF018
:1014B00020E030E0A901C701B6010E94690D782E35
:1014C000770C770802C077247394C11730F5C12CCC
:1014D000D12C7601402F6D2F8C2F0E94E909A50198
:1014E0009401C701B6010E94FD0C6B017C0120E054
:1014F00030E040E05FE30E94C10E88235CF0D70D2E
:1015000020E030E040E85FE3C701B6010E94FC0C38
:101510006B017C01CF5FC117E8F2DF91CF911F9182
:101520000F91FF90EF90DF90CF90BF90AF909F9082
:101530008F907F9008953F924F925F926F927F922B
:101540008F929F92AF92BF92CF92DF92EF92FF92D3
:101550000F931F93CF93DF93882E762EC22F302EBA
:1015600044244A94440E842F880F91E0C92EC81A4F
:1015700093E0692E681ADD24DA94D80CD40EEE2498
:10158000EA94E60EE40EFF24F394F60EF41A11E04A
:10159000180D141B55245394D0E0332001F10C2F67
:1015A000A72CAD1A2A2D4D2DBD2EB70C6B2D8D2DD0
:1015B0000E94160A2F2D8D2F880D482F6E2D0E9408
:1015C000160A2F2D882D8D1B482F6E2D0E94160A6E
:1015D0002A2D412F6B2D812F0E94160A30C04C2FCF
:1015E000AD2EA70C6A2D8D2D0E94E9094C2FB72C2A
:1015F000BD1A6B2D8D2D0E94E9094C2F6E2D9D2E4D
:10160000980C892D0E94E9094C2F6F2D892D0E947D
:10161000E9094C2F6E2D982C9D1A892D0E94E909FD
:101620004C2F6F2D892D0E94E9094C2F6A2D812F97
:101630000E94E9094C2F6B2D812F0E94E909C110EE
:1016400004C0DF5FC52C539453944A94C60C639432
:101650006394DA94EA94F3941F5F4D1608F09DCFDB
:10166000DF91CF911F910F91FF90EF90DF90CF907E
:10167000BF90AF909F908F907F906F905F904F90B2
:101680003F90089580E090E00895E0E0F4E18083E9
:101690008CEC94E00197F1F700C000008081089580
:1016A000809300100895809300120895FC01F85E65
:1016B00060830895FC01F85E80810895CF92DF92E7
:1016C000EF92FF920F931F93CF93DF93D82FC92FE1
:1016D0008B016A010E94A007101611068CF5ED2EF1
:1016E000FC2EC0E0D0E0F701819191917F010E9432
:1016F0004B09CC15DD0541F46EE68C2D0E94670880
:101700008AE20E94930807C06EE68C2F0E94670849
:1017100080E20E94930881E392E00E944B092196A7
:10172000C017D10701F7083011056CF481E392E08E
:101730000E944B090F5F1F4F08301105BCF303C017
:10174000083011059CF3DF91CF911F910F91FF900D
:10175000EF90DF90CF900895AF92BF92CF92DF923B
:10176000EF92FF920F931F93CF93DF937C018B0136
:10177000C0E0D0E0C12CD12C0F2EF7E0AF2EF02D21
:10178000B12C33C0AE01B801C7010E945E0B0E94AC
:10179000D6068330910571F4219712F4CA2DDB2D02
:1017A0009FEF2FE78AE0915020408040E1F700C092
:1017B00000C01BC0049781F42196C830D10514F0F5
:1017C000CC2DDD2D8FEF9FE72AE081509040204007
:1017D000E1F700C000C009C08FEF9FE721E0815012
:1017E00090402040E1F700C000C00E9446078823D7
:1017F00049F2CE01DF91CF911F910F91FF90EF90B1
:10180000DF90CF90BF90AF900895613011F5BC018B
:1018100080E090E00E940F0E2FE632E143E85AE3A9
:101820000E94C60E20E030E046E95AE40E94C60E4F
:1018300020E030E040E05BE30E94C60E20E030E0B4
:1018400040E85FE30E94FC0C0E94E00D7BBD6ABD96
:101850000895623021F5BC0180E090E00E940F0EF7
:101860002FE632E143E85AE30E94C60E20E030E062
:1018700046E95AE40E94C60E20E030E040E05BE317
:101880000E94C60E20E030E040E85FE30E94FC0CBE
:101890000E94E00D7093870060938600089584E3B2
:1018A00092E00E94F00F0895F894813059F41FBC23
:1018B00098E09EBD99B7906499BF7093AB02609316
:1018C000AA0216C0823079F410928B0098E09093AF
:1018D0008A00EDE7F0E09081906190837093A90217
:1018E0006093A80205C081E592E00E94F00F089580
:1018F0007894682F84E690E00E94050C089581306A
:1019000031F41DBC1CBC8EB584608EBD0895823040
:1019100051F41092890010928800EAE8F0E080818A
:1019200084608083089587E692E00E94F00F089516
:10193000813021F48EB5887F8EBD0895823031F4D8
:10194000EAE8F0E08081887F808308958EE792E066
:101950000E94F00F08951F920F920FB60F9211245C
:101960002F933F934F935F936F937F938F939F93A7
:10197000AF93BF93EF93FF93E091AA02F091AB0274
:101980000995FF91EF91BF91AF919F918F917F91B9
:101990006F915F914F913F912F910F900FBE0F90DC
:1019A0001F9018951F920F920FB60F9211242F932C
:1019B0003F934F935F936F937F938F939F93AF93D7
:1019C000BF93EF93FF93E091A802F091A9020995CC
:1019D000FF91EF91BF91AF919F918F917F916F9107
:1019E0005F914F913F912F910F900FBE0F901F90DD
:1019F00018950E94450B08955058BB27AA270E94AE
:101A0000140D0C94870E0E94790E38F00E94800EFF
:101A100020F039F49F3F19F426F40C94760E0EF45E
:101A2000E095E7FB0C94700EE92F0E94980E58F396
:101A3000BA17620773078407950720F079F4A6F5B3
:101A40000C94BA0E0EF4E0950B2EBA2FA02D0B01BC
:101A5000B90190010C01CA01A0011124FF27591BF3
:101A600099F0593F50F4503E68F11A16F040A22FF9
:101A7000232F342F4427585FF3CF4695379527956A
:101A8000A795F0405395C9F77EF41F16BA0B620B69
:101A9000730B840BBAF09150A1F0FF0FBB1F661FB0
:101AA000771F881FC2F70EC0BA0F621F731F841FF3
:101AB00048F4879577956795B795F7959E3F08F019
:101AC000B0CF9395880F08F09927EE0F97958795DB
:101AD00008950E944C0E08F481E008950E94820D42
:101AE0000C94870E0E94800E58F00E94790E40F0F0
:101AF00029F45F3F29F00C94700E51110C94BB0E29
:101B00000C94760E0E94980E68F39923B1F3552336
:101B100091F3951B550BBB27AA2762177307840700
:101B200038F09F5F5F4F220F331F441FAA1FA9F396
:101B300035D00E2E3AF0E0E832D091505040E69584
:101B4000001CCAF72BD0FE2F29D0660F771F881FE5
:101B5000BB1F261737074807AB07B0E809F0BB0BD8
:101B6000802DBF01FF2793585F4F3AF09E3F5105EC
:101B700078F00C94700E0C94BB0E5F3FE4F3983E2B
:101B8000D4F3869577956795B795F7959F5FC9F7D5
:101B9000880F911D9695879597F90895E1E0660F56
:101BA000771F881FBB1F621773078407BA0720F0CF
:101BB000621B730B840BBA0BEE1F88F7E095089538
:101BC0000E94A00E88F09F5798F0B92F9927B7511F
:101BD000B0F0E1F0660F771F881F991F1AF0BA95D1
:101BE000C9F714C0B13091F00E94BA0EB1E0089567
:101BF0000C94BA0E672F782F8827B85F39F0B93F59
:101C0000CCF3869577956795B395D9F73EF4909583
:101C10008095709561957F4F8F4F9F4F0895E89401
:101C200009C097FB3EF490958095709561957F4F24
:101C30008F4F9F4F9923A9F0F92F96E9BB279395D2
:101C4000F695879577956795B795F111F8CFFAF4E2
:101C5000BB0F11F460FF1BC06F5F7F4F8F4F9F4F13
:101C600016C0882311F096E911C0772321F09EE871
:101C7000872F762F05C0662371F096E8862F70E0D7
:101C800060E02AF09A95660F771F881FDAF7880FB1
:101C90009695879597F90895990F0008550FAA0B07
:101CA000E0E8FEEF16161706E807F907C0F012166F
:101CB0001306E407F50798F0621B730B840B950B72
:101CC00039F40A2661F0232B242B252B21F40895C7
:101CD0000A2609F4A140A6958FEF811D811D089564
:101CE00097F99F6780E870E060E008959FEF80ECCF
:101CF000089500240A941616170618060906089572
:101D000000240A9412161306140605060895092ED7
:101D10000394000C11F4882352F0BB0F40F4BF2B46
:101D200011F460FF04C06F5F7F4F8F4F9F4F089586
:101D300057FD9058440F551F59F05F3F71F047957C
:101D4000880F97FB991F61F09F3F79F08795089561
:101D5000121613061406551FF2CF4695F1DF08C080
:101D6000161617061806991FF1CF8695710561059D
:101D700008940895E894BB2766277727CB0197F945
:101D800008950E944C0E08F48FEF08950E94D90E1A
:101D90000C94870E0E94790E38F00E94800E20F07D
:101DA000952311F00C94700E0C94760E11240C9463
:101DB000BB0E0E94980E70F3959FC1F3950F50E0F3
:101DC000551F629FF001729FBB27F00DB11D639FED
:101DD000AA27F00DB11DAA1F649F6627B00DA11D93
:101DE000661F829F2227B00DA11D621F739FB00D39
:101DF000A11D621F839FA00D611D221F749F3327A9
:101E0000A00D611D231F849F600D211D822F762F41
:101E10006A2F11249F5750409AF0F1F088234AF01E
:101E2000EE0FFF1FBB1F661F771F881F915050408A
:101E3000A9F79E3F510580F00C94700E0C94BB0ED8
:101E40005F3FE4F3983ED4F3869577956795B79511
:101E5000F795E7959F5FC1F7FE2B880F911D96952B
:101E6000879597F908958F929F92AF92BF92CF92E4
:101E7000DF92EF92FF92CF93DF93EC01688179813B
:101E80008A819B81611571058105910521F464E2C8
:101E900079ED8BE597E02DE133EF41E050E00E94D2
:101EA000EE1349015A019B01AC01A7EAB1E40E947B
:101EB0000D146B017C01ACEEB4EFA50194010E94FE
:101EC0001B14DC01CB018C0D9D1DAE1DBF1DB7FF8A
:101ED00003C00197A109B04888839983AA83BB8373
:101EE0009F77DF91CF91FF90EF90DF90CF90BF90E1
:101EF000AF909F908F9008950E94330F089582E0D5
:101F000091E00E94330F0895A0E0B0E080930201B9
:101F100090930301A0930401B093050108950F93DA
:101F20001F93CF93DF93009731F46115710519F476
:101F300080E090E03AC08B01EC016EE070E081E05F
:101F400090E00E94F211FC01892B91F380E88383D9
:101F50000115110571F01387028781E88383809151
:101F6000AC029091AD02892B21F4F093AD02E09385
:101F7000AC022097C9F0D187C087838182608383B8
:101F80008091AE029091AF02892B71F4F093AF0271
:101F9000E093AE028091B0029091B102892B21F4BE
:101FA000F093B102E093B002CF01DF91CF911F9186
:101FB0000F910895A0E0B0E0E0EEFFE00C94301443
:101FC000AE014B5F5F4FFA0161917191AF0180915A
:101FD000AE029091AF020E942010E2E00C944C14EB
:101FE0000F931F93CF93DF93E091AE02F091AF0276
:101FF000238121FF1BC08C01D0E0C0E0F80181915A
:102000008F016091AE027091AF02DB011896ED91E5
:10201000FC911997882331F00995892B79F3DFEF2B
:10202000CFEFECCF8AE00995892B19F08FEF9FEF66
:1020300002C08D2F9C2FDF91CF911F910F9108959A
:10204000ACE0B0E0E6E2F0E10C9420147C016B011E
:102050008A01FC0117821682838181FFBDC1CE01F6
:1020600001964C01F7019381F60193FD859193FF51
:1020700081916F01882309F4ABC1853239F493FD56
:10208000859193FF81916F01853229F4B70190E02A
:102090000E945813E7CF512C312C20E02032A0F4BD
:1020A0008B3269F030F4803259F0833269F4206168
:1020B0002CC08D3239F0803339F4216026C0226083
:1020C000246023C0286021C027FD27C030ED380FD1
:1020D0003A3078F426FF06C0FAE05F9E300D1124F6
:1020E000532E13C08AE0389E300D1124332E206207
:1020F0000CC08E3221F426FD6BC1206406C08C36E4
:1021000011F4206802C0883641F4F60193FD8591F0
:1021100093FF81916F018111C1CF982F9F7D9554BD
:10212000933028F40C5F1F4FFFE3F9830DC0833613
:1021300031F0833771F0833509F05BC022C0F801BC
:10214000808189830E5F1F4F44244394512C540196
:1021500015C03801F2E06F0E711CF801A080B1804B
:1021600026FF03C0652D70E002C06FEF7FEFC50151
:102170002C870E944D132C0183012C852F77222E52
:1021800017C03801F2E06F0E711CF801A080B18019
:1021900026FF03C0652D70E002C06FEF7FEFC50121
:1021A0002C870E943B132C012C852068222E830152
:1021B00023FC1BC0832D90E048165906B0F4B701EC
:1021C00080E290E00E9458133A94F4CFF50127FC86
:1021D000859127FE81915F01B70190E00E9458131D
:1021E00031103A94F1E04F1A51084114510471F73B
:1021F000E5C0843611F0893639F5F80127FF07C0AC
:1022000060817181828193810C5F1F4F08C0608162
:102210007181072E000C880B990B0E5F1F4F2F76D4
:10222000722E97FF09C090958095709561957F4FAC
:102230008F4F9F4F2068722E2AE030E0A4010E9449
:102240009013A82EA81844C0853729F42F7EB22EEB
:102250002AE030E025C0F22FF97FBF2E8F36C1F083
:1022600018F4883579F0B4C0803719F0883721F038
:10227000AFC02F2F2061B22EB4FE0DC08B2D846015
:10228000B82E09C024FF0AC09F2F9660B92E06C041
:1022900028E030E005C020E130E002C020E132E07B
:1022A000F801B7FE07C060817181828193810C5F64
:1022B0001F4F06C06081718180E090E00E5F1F4F6C
:1022C000A4010E949013A82EA818FB2DFF777F2E43
:1022D00076FE0BC0372D3E7FA51450F474FE0AC065
:1022E00072FC08C0372D3E7E05C0BA2C372D03C0C6
:1022F000BA2C01C0B52C34FF0DC0FE01EA0DF11D52
:102300008081803311F4397E09C032FF06C0B39456
:10231000B39404C0832F867809F0B39433FD13C0BF
:1023200030FF06C05A2CB31418F4530C5B18B32CAE
:10233000B31468F4B70180E290E03C870E94581320
:10234000B3943C85F5CFB31410F43B1801C0312C85
:1023500034FF12C0B70180E390E03C870E9458131D
:102360003C8532FF17C031FD03C088E790E002C012
:1023700088E590E0B7010CC0832F867859F031FFD3
:1023800002C08BE201C080E237FD8DE2B70190E030
:102390000E945813A51438F4B70180E390E00E941E
:1023A00058135A94F7CFAA94F401EA0DF11D8081D5
:1023B000B70190E00E945813A110F5CF332009F423
:1023C00051CEB70180E290E00E9458133A94F6CFC4
:1023D000F7018681978102C08FEF9FEF2C96E2E193
:1023E0000C943C140F931F93CF93DF93869F80012F
:1023F000879F100D969F100D1124C8010E940E1288
:10240000EC01009729F0A80160E070E00E944613FB
:10241000CE01DF91CF911F910F910895CF93DF935C
:102420008230910510F482E090E0E091B402F091E6
:10243000B50220E030E0C0E0D0E0309711F14081FB
:10244000518148175907C0F04817590761F4828134
:102450009381209719F09B838A832BC09093B502B8
:102460008093B40226C02115310519F04217530795
:1024700018F49A01BE01DF01EF010280F381E02D23
:10248000DCCF2115310509F1281B390B243031052A
:1024900090F412968D919C9113976115710521F01E
:1024A000FB019383828304C09093B5028093B402AE
:1024B000FD01329644C0FD01E20FF31F8193919319
:1024C000225031092D933C933AC02091B2023091B1
:1024D000B302232B41F4209108013091090130937C
:1024E000B3022093B2022091060130910701211519
:1024F000310541F42DB73EB740910A0150910B01CF
:10250000241B350BE091B202F091B302E217F307FE
:10251000A0F42E1B3F0B2817390778F0AC014E5F53
:102520005F4F2417350748F04E0F5F1F5093B302DB
:102530004093B2028193919302C0E0E0F0E0CF01BA
:10254000DF91CF9108950F931F93CF93DF9300975F
:1025500009F48CC0FC013297138212820091B402FC
:102560001091B5020115110581F420813181820F8E
:10257000931F2091B2023091B3022817390779F5E1
:10258000F093B302E093B20271C0D80140E050E092
:10259000AE17BF0750F412962D913C911397AD01E1
:1025A0002115310509F1D901F3CF9D01DA013383FA
:1025B000228360817181860F971F8217930769F4C8
:1025C000EC0128813981260F371F2E5F3F4F318361
:1025D00020838A819B8193838283452B29F4F09306
:1025E000B502E093B40242C01396FC93EE931297A7
:1025F000ED01499159919E01240F351FE217F30710
:1026000071F480819181840F951F029611969C939D
:102610008E938281938113969C938E931297E0E020
:10262000F0E0D80112968D919C911397009719F0C4
:10263000F8018C01F6CF8D919C9198012E5F3F4F50
:10264000820F931F2091B2023091B30228173907ED
:1026500069F4309729F41092B5021092B40202C0C6
:10266000138212821093B3020093B202DF91CF91D2
:102670001F910F910895FC01059061507040011069
:10268000D8F7809590958E0F9F1F0895DC0101C0AB
:102690006D9341505040E0F70895FC016150704047
:1026A00001900110D8F7809590958E0F9F1F089587
:1026B0000F931F93CF93DF93FB01238121FD03C071
:1026C0008FEF9FEF28C022FF16C0468157812481DB
:1026D00035814217530744F4A081B1819D012F5FDA
:1026E0003F4F318320838C93268137812F5F3F4F6B
:1026F0003783268310C0EB01092F182F0084F18542
:10270000E02D0995892BE1F68E819F8101969F83AB
:102710008E83812F902FDF91CF911F910F9108957C
:10272000FA01AA27283051F1203181F1E8946F9302
:102730006E7F6E5F7F4F8F4F9F4FAF4FB1E03ED0A8
:10274000B4E03CD0670F781F891F9A1FA11D680F46
:10275000791F8A1F911DA11D6A0F711D811D911D79
:10276000A11D20D009F468943F912AE0269F1124EE
:102770003019305D3193DEF6CF010895462F477052
:10278000405D4193B3E00FD0C9F7F6CF462F4F70AD
:10279000405D4A3318F0495D31FD4052419302D00B
:1027A000A9F7EACFB4E0A6959795879577956795B1
:1027B000BA95C9F700976105710508959B01AC01B1
:1027C0000A2E06945795479537952795BA95C9F7D8
:1027D000620F731F841F951FA01D0895052E97FB80
:1027E0001EF400940E94051457FD07D00E94571450
:1027F00007FC03D04EF40C94051450954095309589
:1028000021953F4F4F4F5F4F08959095809570955C
:1028100061957F4F8F4F9F4F08950E947914A59F18
:10282000900DB49F900DA49F800D911D11240895CB
:10283000B7FF0C940D140E940D14821B930B089586
:102840002F923F924F925F926F927F928F929F92C0
:10285000AF92BF92CF92DF92EF92FF920F931F93AE
:10286000CF93DF93CDB7DEB7CA1BDB0B0FB6F8945F
:10287000DEBF0FBECDBF09942A88398848885F849F
:102880006E847D848C849B84AA84B984C884DF8010
:10289000EE80FD800C811B81AA81B981CE0FD11DF4
:1028A0000FB6F894DEBF0FBECDBFED010895A1E2D3
:1028B0001A2EAA1BBB1BFD010DC0AA1FBB1FEE1FBA
:1028C000FF1FA217B307E407F50720F0A21BB30B05
:1028D000E40BF50B661F771F881F991F1A9469F781
:1028E00060957095809590959B01AC01BD01CF01DD
:1028F0000895A29FB001B39FC001A39F700D811DD9
:102900001124911DB29F700D811D1124911D0895F8
:04291000F894FFCF69
:102914000501010000000000B6022000537461723A
:1029240074696E67205352414D20746573742E2E62
:102934002E00577269746520706861736520657232
:10294400726F723A206578745F72616D5B253464CE
:102954005D203D2025303258202873686F756C64E3
:102964002062652025303258290A00526574726944
:102974006576616C207068617365206572726F7230
:102984003A206578745F72616D5B2534645D203D27
:102994002025303258202873686F756C6420626576
:1029A4002025303258290A005352414D2074657352
:1029B4007420636F6D706C657465642077697468E6
:1029C400200A253464206572726F727320696E2048
:1029D400777269746520706861736520616E642024
:1029E4000A253464206572726F727320696E2072D6
:1029F400657472696576616C2070686173650A0A32
:102A0400005374617274696E672E2E2E0041546DEA
:102A140065676131363200555000444F574E004CC3
:102A2400454654005249474854004E455554524176
:102A34004C00466F6E742073697A653A2025640AE7
:102A440000200A00494E56414C4944204944205430
:102A5400494D45522053455420504552494F444511
:102A640000494E56414C49442049442054494D455F
:102A74005220494E495400494E56414C494420493C
:102A8400442054494D455220535441525400494E18
:102A940056414C49442049442054494D4552205301
:042AA400544F50003B
:00000001FF
