:100000000C9460030C9404050C947D030C947D0304
:100010000C947D030C947D030C947D030C94CD0D06
:100020000C947D030C947D030C947D030C947D0350
:100030000C947D030C94A60D0C947D030C947D030D
:100040000C947D030C947D030C947D030C947D0330
:100050000C947D030C947D030C947D030C947D0320
:100060000C947D030C947D030C947D030C947D0310
:1000700000000000005C00000C000C007C287C28C4
:1000800058DC68002410480028542840000C000068
:10009000007884008478000054385400107C1000EC
:1000A00080400000101010000040000060100C00A4
:1000B00038543800487C40004864580044542C00B0
:1000C0001C107C005C5424003854240064140C0080
:1000D00068542C0048543800004800008048000054
:1000E0001028440028282800442810000454080040
:1000F00038445C00781478007C5428003844280088
:100100007C4438007C5444007C140400384474005F
:100110007C107C00447C440020403C007C106C003F
:100120007C4040007C187C0078103C00384438004B
:100130007C1408003844B8007C146800485424003B
:10014000047C04007C407C003C603C007C307C00F3
:100150006C106C000C700C0064544C00007C44006B
:100160000C106000447C00000804080080808000BF
:1001700000040800304878007C48300030484800CF
:1001800030487C00306850001078140090A8780047
:100190007C08700050744000808074007C106800FF
:1001A000447C4000781078007808700030483000B7
:1001B000F82810003048F80078100800505828003F
:1001C000083C4800384078003840380078207800F3
:1001D0004830480098A0780048685800107884009B
:1001E000007C00008478100008040804000000006F
:1001F0000000005F00000007000700147F147F1458
:10020000242A7F2A1223130864623649552250009B
:1002100005030000001C2241000041221C00082AA6
:100220001C2A0808083E080800503000000808088A
:100230000808006060000020100804023E51494593
:100240003E00427F400042615149462141454B31C9
:100250001814127F1027454545393C4A4949300159
:10026000710905033649494936064949291E0036B0
:100270003600000056360000000814224114141401
:10028000141441221408000201510906324979412F
:100290003E7E1111117E7F494949363E414141223E
:1002A0007F4141221C7F494949417F090901013EA3
:1002B000414151327F0808087F00417F41002040C2
:1002C000413F017F081422417F404040407F0204AB
:1002D000027F7F0408107F3E4141413E7F090909AA
:1002E000063E4151215E7F09192946464949493157
:1002F00001017F01013F4040403F1F2040201F7F00
:100300002018207F631408146303047804036151E8
:1003100049454300007F4141020408102041417FCC
:100320000000040201020440404040400001020479
:100330000020545454787F4844443838444444207E
:10034000384444487F3854545418087E0901020840
:100350001454543C7F0804047800447D400020403D
:10036000443D00007F10284400417F40007C041879
:1003700004787C0804047838444444387C14141409
:1003800008081414187C7C080404084854545420A9
:10039000043F4440203C4040207C1C2040201C3C2A
:1003A0004030403C44281028440C5050503C446499
:1003B000544C44000836410000007F0000004136E4
:1003C000080002010302010000000000000000001C
:1003D000065F5F0600000000070700070700001423
:1003E0007F7F147F7F1400242E6B6B3A120000462F
:1003F0006630180C666200307A4F5D377A48000428
:1004000007030000000000001C3E634100000000E4
:1004100041633E1C000000082A3E1C1C3E2A0808BE
:10042000083E3E0808000000A0E060000000000850
:100430000808080808000000006060000000006074
:1004400030180C060301003E7F594D7F3E000042EC
:10045000427F7F40400000627359496F660000226E
:100460006349497F360000181C16137F7F10002750
:100470006745457D3900003C7E4B497930000003DB
:100480006371190F070000367F49497F3600000667
:100490004F49693F1E000000006C6C000000000026
:1004A000A0EC6C00000000081C3663410000001442
:1004B00014141414140000004163361C08000002D8
:1004C0000351590F0600003E7F415D5D1F1E007CF9
:1004D0007E13137E7C0000417F7F49497F36001CDC
:1004E0003E634141632200417F7F41637F1C0041A5
:1004F0007F7F495D416300417F7F491D0103001CEF
:100500003E6341517372007F7F08087F7F000000C7
:10051000417F7F41000000307040417F3F0100413A
:100520007F7F081C776300417F7F41406070007FC0
:100530007F060C067F7F007F7F060C187F7F001CE4
:100540003E6341633E1C00417F7F49090F06001E48
:100550003F21717F5E0000417F7F19396F46002681
:10056000674D597B32000003417F7F410300007FCC
:100570007F40407F7F00001F3F60603F1F00007F83
:100580007F3018307F7F0063771C081C776300077B
:100590004F78784F0700006773594D47637100002B
:1005A0007F7F41410000000103060C18306000000D
:1005B00041417F7F000000080C0603060C08008004
:1005C000808080808080800000030704000000207D
:1005D0007454543C784000413F7F44447C38003898
:1005E0007C44446C280000307848493F7F40003804
:1005F0007C54545C180000487E7F49030200009838
:10060000BCA4A4F87C0400417F7F08047C7800002F
:10061000447D7D4000000040C484FD7D0000004119
:100620007F7F10386C440000417F7F400000007CD9
:100630007C0C180C7C78007C7C04047C78000038EE
:100640007C44447C38000084FCF8A4243C18001846
:100650003C24A4F8FC8400447C78441C1800004826
:100660005C54547424000000043E7F442400003C89
:100670007C40403C7C40001C3C60603C1C00003CDA
:100680007C6030607C3C00446C3810386C44009CCA
:10069000BCA0A0FC7C00004C64745C4C64000008AE
:1006A000083E7741410000000000777700000041DC
:1006B00041773E0808000002030103020301000025
:1006C00011241FBECFEFD4E0DEBFCDBF13E0A0E00A
:1006D000B1E0EEE3FAE202C005900D92A03AB10754
:1006E000D9F723E0A0EAB3E001C01D92A23CB20713
:1006F000E1F70E947F030C941D150C9400000E94EA
:10070000030E0E94180E85E991E00E94E81080E037
:1007100090E0089590BD89B98EE880BD1BB888E14E
:100720008AB960EB73E08CE993E00E94871008952A
:100730005D9BFECF8CB90895CF93C82F8A3019F4F2
:100740008DE00E9498038C2F0E94980380E090E037
:10075000CF9108955F9B02C08CB1089580E0089509
:100760000E94AA03082E000C990B089587B3806B92
:1007700087BBBE988DB181658DB908958FB9779B80
:10078000FECF8FB10895882311F0C49A0895C498BC
:100790000895CF93C82F80E00E94C30383E00E9496
:1007A000BE038C2F0E94BE0380E00E94BE03C82FB0
:1007B00081E00E94C3038C2FCF910895CF93DF93E4
:1007C000D82FC62F80E00E94C30382E00E94BE03A0
:1007D0008D2F0E94BE038C2F0E94BE0381E00E94D9
:1007E000C303DF91CF91089580E00E94C30381E8A5
:1007F0000E94BE0381E00E94C3030895CF9380E06E
:100800000E94C30380EA0E94BE0380E00E94BE03F0
:10081000C82F81E00E94C3038C2FCF9108951F93AE
:10082000CF93DF93182FD62FC42F80E00E94C303ED
:1008300085E00E94BE03812F0E94BE038D2F0E947F
:10084000BE038C2F0E94BE0381E00E94C303DF9190
:10085000CF911F91089580E00E94C30380EC0E9415
:10086000BE0381E00E94C3030895F8948BB78064AF
:100870008BBF85B7886085BF78941092A00340E055
:1008800061E08BE20E940F044FEF61E08BE20E9477
:100890000F0440E061E08CE20E940F048CE20E94B1
:1008A000C90380FF03C081E08093A00308950E94E4
:1008B0002B041092A0038EE00E94C90380FF05C0A4
:1008C00040E860EE8FE00E940F040E94350440E093
:1008D00060EE8FE00E940F040895EF92FF920F9355
:1008E0001F93CF93DF937C0106C08CEC94E00197BB
:1008F000F1F700C0000080E30E94C90383FDF5CF3B
:10090000F701608166956695669581E30E94DE0336
:10091000F70160816295660F607E82E30E94DE03CC
:10092000F70161816F7085E30E94DE03F701818129
:10093000882399F087010E5F1F4FC0E0D0E0F801D7
:1009400061918F018C2F8A5C0E94DE032196F70152
:10095000218130E0C217D30794F34FEF6BE080E3BF
:100960000E940F04DF91CF911F910F91FF90EF90A4
:100970000895EF92FF920F931F93CF93DF937C0123
:100980008CE20E94C90380FD04C08091A0038823EB
:10099000A1F181E60E94C903880F880F880FF70133
:1009A000808382E60E94C903829586958770F7014D
:1009B0009081892B808385E60E94C9038F70F7019F
:1009C0008183882399F087010E5F1F4FC0E0D0E03C
:1009D0008C2F8A590E94C903F80181938F012196B7
:1009E000F701218130E0C217D30794F340E061E0C2
:1009F0008CE20E940F041092A003DF91CF911F910F
:100A00000F91FF90EF9008951F920F920FB60F92E3
:100A100011242F933F934F935F936F937F938F9303
:100A20009F93AF93BF93EF93FF93CF93DF93CDB794
:100A3000DEB72A97DEBFCDBFF8948CE20E94C903CF
:100A400080FF03C081E08093A00340E061E08CE27E
:100A50000E940F04CE0101960E94B904898183305F
:100A600031F481EA91E00E94E8100E94F70D2A9685
:100A70000FB6F894DEBF0FBECDBFDF91CF91FF91CF
:100A8000EF91BF91AF919F918F917F916F915F9106
:100A90004F913F912F910F900FBE0F901F9018957F
:100AA000E1EAF3E0108285E08183E3EAF3E08BEA98
:100AB00093E01192E817F907E1F7EBEAF3E010820F
:100AC00011821282138214820895CF93DF9300D093
:100AD00000D01F92CDB7DEB781EA93E00E94B9043F
:100AE000EBEAF3E0A1EAB3E012968C9112978083CF
:100AF00013968C911397818314968C91149782830B
:100B000015968C911597838316968C91848385E036
:100B1000DE01119601900D928A95E1F729813A81C3
:100B20004B815C816D8170E080E090E00F900F90D0
:100B30000F900F900F90DF91CF910895EF92FF9259
:100B40000F931F93CF93DF9300D000D01F92CDB7A8
:100B5000DEB70E94EF05E82EF92E0E9497060BEAF9
:100B600013E0D801EC921196FC92119712968C9397
:100B7000129713969C930E94A506F8018483E1EADC
:100B8000F3E0D8019C91928311969C9111979383E5
:100B900012969C911297948313969C9195838683C9
:100BA000CF010E946D0485E0F801DE0111960190ED
:100BB0000D928A95E1F729813A814B815C816D81A3
:100BC00070E080E090E00F900F900F900F900F90EA
:100BD000DF91CF911F910F91FF90EF900895CF93E8
:100BE000DF9384E090E00E94F40DC82FD0E085E010
:100BF00090E00E94F40D282F30E0C858D10988EC0D
:100C00008C9FA0018D9F500D1124552314F4415049
:100C10005F4F852F952F990F990B863F4FEF9407C4
:100C20000CF403968B3091050CF00496275831098B
:100C300098EC929FA001939F500D1124552314F41A
:100C400041505F4F252F352F330F330B263F9FEF3A
:100C5000390714F42E5F3F4F2B30310514F02C5F11
:100C60003F4F922FDF91CF9108950E94EF05282FDB
:100C7000392F8B3084F0682F082E000C770B492F0A
:100C8000092E000C550B55231CF451954195510923
:100C900064177507ECF5263F9CF4682F082E000CAE
:100CA000770B492F092E000C550B55231CF4519539
:100CB00041955109519541955109461757075CF5E2
:100CC0003B3084F0692F092E000C770B482F082E3B
:100CD000000C550B55231CF45195419551094617AD
:100CE0005707E4F0363FECF4292F990F330B082E09
:100CF000000C990B99231CF491958195910991957C
:100D000081959109281739077CF484E090E00895D3
:100D100082E090E0089581E090E0089583E090E023
:100D2000089580E090E0089580E090E00895CF93EA
:100D300086E090E00E94F40DC82F87E090E00E94CA
:100D4000F40D982F8C2FCF91089586B380958170E4
:100D5000089586B386958170089582309105D9F003
:100D600028F40097E9F0019789F01FC083309105BE
:100D700019F0049731F019C089EA91E00E94E81057
:100D800008958CEA91E00E94E810089581EB91E0CB
:100D90000E94E810089586EB91E00E94E810089503
:100DA0008CEB91E00E94E81008958DE991E09F930B
:100DB0008F930E94D2100F900F900895909101018F
:100DC000992331F090E09093B1038093B00308959C
:100DD000806B0E94160B0895CF9390910101992387
:100DE00031F090E09093B3038093B2030AC0C82F10
:100DF0008F700E94160B8C2F82958F7080610E94DD
:100E0000160BCF91089580910101882339F080E07D
:100E10000E94DE0680E00E94EC06089580EB0E94AE
:100E2000160B80E00E94160B80E10E94160B0895BD
:100E3000FF920F931F93CF93DF938091010188233B
:100E400019F00E9473091DC00E94030710E0689406
:100E5000FF24F7F800E0812F806B0E94160B80E0E2
:100E60000E94160B80E10E94160BCF2DD02F8FEF22
:100E70000E94190B2197D9F71F5F183061F70E9464
:100E80000307DF91CF911F910F91FF900895CF93AA
:100E9000DF9390910101992319F00E947B0910C002
:100EA000806B0E94160B80E00E94160B80E10E946E
:100EB000160BC0E8D0E080E00E94190B2197D9F70B
:100EC000DF91CF910895CF93C0910101CC2319F008
:100ED0000E944C0911C080EB0E94160B80E00E941A
:100EE000160B80E10E94160B8C2F0E944707CF5FE4
:100EF000C830D1F70E940307CF9108958EEA0E946F
:100F0000160B81EA0E94160B8AED0E94160B82E1F5
:100F10000E94160B88EC0E94160B88EA0E94160BA2
:100F20008FE30E94160B85ED0E94160B80E80E944D
:100F3000160B81E80E94160B80E50E94160B89EDC6
:100F40000E94160B81E20E94160B80E20E94160B93
:100F500082E00E94160B8BED0E94160B80E30E942C
:100F6000160B8DEA0E94160B80E00E94160B84EA95
:100F70000E94160B86EA0E94160B8FEA0E94160B3F
:100F800080910101882319F00E94630908950E944D
:100F900063070895CF93C62F0E94DE068C2F0E9410
:100FA000EC06CF910895853039F0883049F08430CF
:100FB00059F480930001089585E08093000108951D
:100FC00088E080930001089588E0809300010895EF
:100FD000CF93C82F81E80E94160B8C2F0E94160B0E
:100FE000CF910895EF92FF921F93CF93DF931091CB
:100FF0000001153069F1183009F458C0143009F0B7
:101000007CC094E08902E0011124C051D0400F2E31
:10101000F0EBEF2EF3E0FF2EF02DF70162817381EC
:101020006F5F7F4F7383628380910101882339F062
:10103000FE014491F70180810E943F0904C0FE0136
:1010400084910E94190B115021961111E6CF7CC09A
:10105000082E000C990B8097EC01CC0FDD1FCC0FF4
:10106000DD1FC80FD91FC451DE4F0F2EF0EBEF2E3E
:10107000F3E0FF2EF02DF701628173816F5F7F4FE8
:101080007383628380910101882339F0FE014491CA
:10109000F70180810E943F0904C0FE0184910E94F3
:1010A000190B115021961111E6CF4EC0F8E08F02B6
:1010B000E0011124C953DD4F0F2EF0EBEF2EF3E0CA
:1010C000FF2EF02DF701628173816F5F7F4F738375
:1010D000628380910101882339F0FE014491F70178
:1010E00080810E943F0904C0FE0184910E94190B77
:1010F000115021961111E6CF27C0F8E08F02E001D0
:101100001124C953DD4F18E00F2EF0EBEF2EF3E062
:10111000FF2EF02DF701628173816F5F7F4F738324
:10112000628380910101882339F0FE014491F70127
:1011300080810E943F0904C0FE0184910E94190B26
:10114000115021961111E6CFDF91CF911F91FF90A1
:10115000EF900895CF92DF92EF92FF920F931F933B
:10116000CF93DF93009721F480E30E94F20750C0F1
:1011700099233CF491958195910921F1E1E0F0E00A
:1011800002C0E0E0F0E0C0E0D0E000E010E02AE0E3
:1011900030E0AE01440F551FCC0FDD1FCC0FDD1F1B
:1011A000CC0FDD1FC40FD51FB9010E94280EC80F38
:1011B000D91F862F972F0F5F1F4F009751F7EF2BE7
:1011C00041F004C0C0E0D0E000E010E08DE20E94F9
:1011D000F2072097A1F00F2EFAE0CF2ED12CF02DA0
:1011E000CE01B6010E94280EE62EF72E805D0E94E9
:1011F000F207CE2DDF2D01501109209789F7011537
:10120000110531F080E30E94F20701501109D1F776
:10121000DF91CF911F910F91FF90EF90DF90CF90D2
:1012200008950F931F93CF93DF93EC01892B11F156
:1012300088818823F9F0219600EB13E08A3019F0B9
:101240000E94F20714C0F801808191810196877095
:101250009078992324F40197886F9F6F0196F80185
:10126000808391831382128260E00E94CA07899171
:101270008111E4CFDF91CF911F910F910895262F17
:1012800030E0642FA90170E8879F400D511D1124A3
:10129000CA010E941C0B08951F93CF93DF93D0E0E7
:1012A00010E00BC0412F6C2F8D2F0E943F09CF5FA4
:1012B000C038C1F7DF5FD83011F0C12FF3CFDF9115
:1012C000CF911F9108950E944C0965E979E081E072
:1012D0000E944F0D61E084E690E00E94000D81E0E5
:1012E0000E947A0D0895C0E04FEF6C2F80E00E94BD
:1012F0003F09CF5FF9CFCF93DF93D82FC0E040E015
:101300006C2F8D2F0E943F09CF5FC038C1F7DF914E
:10131000CF91089570E09B0140E8849F200D311D1E
:101320001124C9010E94200B08951F93CF93DF93CE
:10133000D0E010E08D2F806B0E94160BC12F6C2F18
:101340008D2F0E948A090E94190BCF5FC038B9F710
:10135000DF5FD83079F7DF91CF911F9108950F9318
:101360001F93CF93DF9390E1699F800D11246770E5
:10137000C1E0D0E002C0CC0FDD1F6A95E2F7442344
:1013800061F0082F10E0C8010E94200BC095682F63
:101390006C23C8010E941C0B0AC0082F10E0C80172
:1013A0000E94200B6C2F682BC8010E941C0BDF9140
:1013B000CF911F910F9108957F928F929F92AF923C
:1013C000BF92CF92DF92EF92FF920F931F93CF9332
:1013D000DF93C82FD62F142F622F70E06D1B710979
:1013E000072E000C880B990B0E94650F6B017C0186
:1013F000612F70E06C1B7109072E000C880B990B94
:101400000E94650F9B01AC01C701B6010E94C20E8C
:101410004B015C0120E030E0A9010E94BD0E882351
:1014200024F4B7FAB094B7F8B09420E030E0A90102
:10143000C701B6010E94151018165CF020E030E0DC
:10144000A901C701B6010E94BD0E782E770C77085E
:1014500002C077247394C11730F5C12CD12C7601CA
:10146000402F6D2F8C2F0E94AF09A5019401C70159
:10147000B6010E94510E6B017C0120E030E040E09B
:101480005FE30E94151088235CF0D70D20E030E068
:1014900040E85FE3C701B6010E94500E6B017C017A
:1014A000CF5FC117E8F2DF91CF911F910F91FF90AD
:1014B000EF90DF90CF90BF90AF909F908F907F90F4
:1014C00008953F924F925F926F927F928F929F9278
:1014D000AF92BF92CF92DF92EF92FF920F931F9342
:1014E000CF93DF93882E762EC22F302E44244A9439
:1014F000440E842F880F91E0C92EC81A93E0692EFC
:10150000681ADD24DA94D80CD40EEE24EA94E60EA0
:10151000E40EFF24F394F60EF41A11E0180D141BD8
:1015200055245394D0E0332001F10C2FA72CAD1A91
:101530002A2D4D2DBD2EB70C6B2D8D2D0E94DC0953
:101540002F2D8D2F880D482F6E2D0E94DC092F2DF9
:10155000882D8D1B482F6E2D0E94DC092A2D412FCE
:101560006B2D812F0E94DC0930C04C2FAD2EA70CB3
:101570006A2D8D2D0E94AF094C2FB72CBD1A6B2DF3
:101580008D2D0E94AF094C2F6E2D9D2E980C892D0C
:101590000E94AF094C2F6F2D892D0E94AF094C2F4F
:1015A0006E2D982C9D1A892D0E94AF094C2F6F2DFE
:1015B000892D0E94AF094C2F6A2D812F0E94AF09FF
:1015C0004C2F6B2D812F0E94AF09C11004C0DF5F2B
:1015D000C52C539453944A94C60C63946394DA9440
:1015E000EA94F3941F5F4D1608F09DCFDF91CF91E1
:1015F0001F910F91FF90EF90DF90CF90BF90AF9031
:101600009F908F907F906F905F904F903F90089544
:1016100080E090E00895E0E0F4E180838CEC94E0D9
:101620000197F1F700C000008081089580930010B9
:101630000895809300120895FC01F85E6083089578
:10164000FC01F85E80810895EF92FF920F931F9343
:10165000CF93DF93D82FC92F79010E9403070D2F55
:101660001C2FC0E0D0E0F801819191918F010E9480
:101670001109CE15DF0541F46EE68E2D0E94CA07D2
:101680008AE20E94F20707C06EE68C2F0E94CA070A
:1016900080E20E94F20760E08C2F8F5F0E94CA07F1
:1016A0002196C830D105F9F6DF91CF911F910F91A6
:1016B000FF90EF900895AF92BF92CF92DF92EF929A
:1016C000FF920F931F93CF93DF937C018B016A01ED
:1016D000EB015B01A40EB51E21E0A21AB10834C0D3
:1016E0009E01A601B801C7010E94240B0E94350685
:1016F0008330910579F42197C017D1070CF4E501E7
:101700008FEF9FEF22E0815090402040E1F700C032
:1017100000C01AC0049779F42196AC16BD060CF4EB
:10172000E8018FEF9FEF22E0815090402040E1F7E9
:1017300000C000C009C08FEF9FE721E081509040BA
:101740002040E1F700C000C00E94A506882341F2B6
:101750008FEF9FE724E0815090402040E1F700C0E8
:1017600000000E94630760E08C2F0E94CA07CE0130
:10177000880F991FF701E80FF91F808191810E945E
:1017800011096EE68C2F0E94CA0786E70E94F207B5
:101790008FEF9FE727E0815090402040E1F700C0A5
:1017A00000000E946307CE01DF91CF911F910F913E
:1017B000FF90EF90DF90CF90BF90AF9008950E9480
:1017C00063070E94030784EC91E00E9411091FC087
:1017D0000E949E052FEF8FE791E0215080409040BE
:1017E000E1F700C000C00E94A906811115C060E0A9
:1017F00082E00E94CA0782E00E94470783EE91E0E0
:101800000E9411090E94FD0D90E00E94AA080E940A
:10181000FD0D8111DDCF06C00E94630784E10E94A7
:10182000000E08950E94630785EF91E00E94110960
:101830002FEF8FEF9BE3215080409040E1F700C0F5
:101840000000EACFCF93DF93CDB7DEB72A970FB66C
:10185000F894DEBF0FBECDBF81E089838A8345E067
:1018600050E061E070E082E391E00E945B0B813028
:101870009105ACF3853091051CF0059739F0EFCF59
:1018800081508B83CE0101960E946D042A960FB67B
:10189000F894DEBF0FBECDBFDF91CF91089544E035
:1018A00050E061E070E082E291E00E945B0B8230E8
:1018B000910571F01CF4019739F0F1CF8330910557
:1018C00059F0049761F0EBCF84E10E94000E089577
:1018D0008AE00E94000E089585E00E94000E08959F
:1018E00043E050E061E070E082E491E00E945B0B35
:1018F0008230910541F08330910541F0019781F7E5
:101900000E94220CEDCF0E944F0CEACF089545E0D3
:1019100050E061E070E082E191E00E945B0B833077
:101920009105A9F034F48130910549F0029759F0FE
:10193000EECF8430910579F0059781F0E8CF80E40F
:101940000E94E807089580E80E94E807089580EC67
:101950000E94E80708958FEF0E94E807089544E089
:1019600050E061E070E082E091E00E945B0B823029
:10197000910571F01CF4019739F0F1CF8330910596
:1019800059F0049761F0EBCF84E00E94D3070895EB
:1019900085E00E94D307089588E00E94D307089548
:1019A00043E050E061E070E082E591E00E945B0B73
:1019B0008230910541F08330910541F0019781F724
:1019C0000E94870CEDCF0E94AF0CEACF089543E050
:1019D00050E060E070E082E691E00E945B0B8130B5
:1019E000910541F08230910541F0892B81F70E94E9
:1019F000DF0BEDCF0E94D00CEACF0E94700CE7CF36
:101A0000613011F5BC0180E090E00E94630F2FE689
:101A100032E143E85AE30E941A1020E030E046E940
:101A20005AE40E941A1020E030E040E05BE30E949C
:101A30001A1020E030E040E85FE30E94500E0E9460
:101A4000340F7BBD6ABD0895623021F5BC0180E092
:101A500090E00E94630F2FE632E143E85AE30E94D0
:101A60001A1020E030E046E95AE40E941A1020E003
:101A700030E040E05BE30E941A1020E030E040E8F4
:101A80005FE30E94500E0E94340F709387006093B2
:101A9000860008958AE393E00E94E8100895F89480
:101AA000813059F41FBC98E09EBD99B7906499BFEE
:101AB0007093B7036093B60316C0823079F4109226
:101AC0008B0098E090938A00EDE7F0E090819061C0
:101AD00090837093B5036093B40305C087E593E0EA
:101AE0000E94E81008957894682F84E690E00E94A0
:101AF000000D0895813031F41DBC1CBC8EB584608E
:101B00008EBD0895823051F41092890010928800A1
:101B1000EAE8F0E080818460808308958DE693E0B8
:101B20000E94E8100895813021F48EB5887F8EBD23
:101B30000895823031F4EAE8F0E08081887F808384
:101B4000089584E893E00E94E81008951F920F9290
:101B50000FB60F9211242F933F934F935F936F9380
:101B60007F938F939F93AF93BF93EF93FF93E091F6
:101B7000B603F091B7030995FF91EF91BF91AF9133
:101B80009F918F917F916F915F914F913F912F9195
:101B90000F900FBE0F901F9018951F920F920FB6C7
:101BA0000F9211242F933F934F935F936F937F93E3
:101BB0008F939F93AF93BF93EF93FF93E091B40301
:101BC000F091B5030995FF91EF91BF91AF919F916E
:101BD0008F917F916F915F914F913F912F910F90D6
:101BE0000FBE0F901F9018950E940B0B08958091C7
:101BF000720181508093720108958091720108955D
:101C00008093720108958FE190E00E948A0385B766
:101C1000806885BF0E94B6030E942B040E9457046F
:101C20000E94500580B7806280BF0E947E070895A1
:101C30008AE993E00E94E8102FEF8FE791E02150AE
:101C400080409040E1F700C000C00E94E70CF0CF58
:101C500097FB072E16F4009407D077FD09D00E9459
:101C60003C0E07FC05D03EF4909581959F4F08955A
:101C7000709561957F4F0895AA1BBB1B51E107C06A
:101C8000AA1FBB1FA617B70710F0A61BB70B881F0C
:101C9000991F5A95A9F780959095BC01CD0108959B
:101CA0005058BB27AA270E94680E0C94DB0F0E9495
:101CB000CD0F38F00E94D40F20F039F49F3F19F473
:101CC00026F40C94CA0F0EF4E095E7FB0C94C40FB5
:101CD000E92F0E94EC0F58F3BA17620773078407C5
:101CE000950720F079F4A6F50C940E100EF4E0950B
:101CF0000B2EBA2FA02D0B01B90190010C01CA01C6
:101D0000A0011124FF27591B99F0593F50F4503E70
:101D100068F11A16F040A22F232F342F4427585F62
:101D2000F3CF469537952795A795F0405395C9F77A
:101D30007EF41F16BA0B620B730B840BBAF0915032
:101D4000A1F0FF0FBB1F661F771F881FC2F70EC0D1
:101D5000BA0F621F731F841F48F4879577956795A4
:101D6000B795F7959E3F08F0B0CF9395880F08F090
:101D70009927EE0F9795879508950E94A00F08F474
:101D800081E008950E94D60E0C94DB0F0E94D40FC0
:101D900058F00E94CD0F40F029F45F3F29F00C94D9
:101DA000C40F51110C940F100C94CA0F0E94EC0F29
:101DB00068F39923B1F3552391F3951B550BBB277A
:101DC000AA2762177307840738F09F5F5F4F220FBF
:101DD000331F441FAA1FA9F335D00E2E3AF0E0E8B6
:101DE00032D091505040E695001CCAF72BD0FE2F00
:101DF00029D0660F771F881FBB1F26173707480794
:101E0000AB07B0E809F0BB0B802DBF01FF2793584B
:101E10005F4F3AF09E3F510578F00C94C40F0C943C
:101E20000F105F3FE4F3983ED4F38695779567955E
:101E3000B795F7959F5FC9F7880F911D9695879580
:101E400097F90895E1E0660F771F881FBB1F62179F
:101E500073078407BA0720F0621B730B840BBA0B5D
:101E6000EE1F88F7E09508950E94F40F88F09F57C1
:101E700098F0B92F9927B751B0F0E1F0660F771FAE
:101E8000881F991F1AF0BA95C9F714C0B13091F0A4
:101E90000E940E10B1E008950C940E10672F782F59
:101EA0008827B85F39F0B93FCCF386957795679569
:101EB000B395D9F73EF490958095709561957F4FD5
:101EC0008F4F9F4F0895E89409C097FB3EF490957B
:101ED0008095709561957F4F8F4F9F4F9923A9F003
:101EE000F92F96E9BB279395F69587957795679592
:101EF000B795F111F8CFFAF4BB0F11F460FF1BC0D6
:101F00006F5F7F4F8F4F9F4F16C0882311F096E968
:101F100011C0772321F09EE8872F762F05C0662316
:101F200071F096E8862F70E060E02AF09A95660FCF
:101F3000771F881FDAF7880F9695879597F9089588
:101F4000990F0008550FAA0BE0E8FEEF16161706CA
:101F5000E807F907C0F012161306E407F50798F032
:101F6000621B730B840B950B39F40A2661F0232B4B
:101F7000242B252B21F408950A2609F4A140A695C7
:101F80008FEF811D811D089597F99F6780E870E0AC
:101F900060E008959FEF80EC089500240A941616DF
:101FA000170618060906089500240A941216130647
:101FB000140605060895092E0394000C11F48823D5
:101FC00052F0BB0F40F4BF2B11F460FF04C06F5FF1
:101FD0007F4F8F4F9F4F089557FD9058440F551FC7
:101FE00059F05F3F71F04795880F97FB991F61F09B
:101FF0009F3F79F087950895121613061406551F12
:10200000F2CF4695F1DF08C0161617061806991F7D
:10201000F1CF86957105610508940895E894BB2772
:1020200066277727CB0197F908950E94A00F08F43F
:102030008FEF08950E942D100C94DB0F0E94CD0F9E
:1020400038F00E94D40F20F0952311F00C94C40FA7
:102050000C94CA0F11240C940F100E94EC0F70F313
:10206000959FC1F3950F50E0551F629FF001729F3D
:10207000BB27F00DB11D639FAA27F00DB11DAA1F4C
:10208000649F6627B00DA11D661F829F2227B00D99
:10209000A11D621F739FB00DA11D621F839FA00D24
:1020A000611D221F749F3327A00D611D231F849F74
:1020B000600D211D822F762F6A2F11249F575040CB
:1020C0009AF0F1F088234AF0EE0FFF1FBB1F661F46
:1020D000771F881F91505040A9F79E3F510580F00F
:1020E0000C94C40F0C940F105F3FE4F3983ED4F3AC
:1020F000869577956795B795F795E7959F5FC1F7B3
:10210000FE2B880F911D9695879597F908950F934B
:102110001F93CF93DF93009731F46115710519F484
:1021200080E090E03AC08B01EC016EE070E081E06D
:1021300090E00E94EA12FC01892B91F380E88383EE
:102140000115110571F01387028781E8838380915F
:10215000B8039091B903892B21F4F093B903E0936C
:10216000B8032097C9F0D187C087838182608383B9
:102170008091BA039091BB03892B71F4F093BB0358
:10218000E093BA038091BC039091BD03892B21F4A5
:10219000F093BD03E093BC03CF01DF91CF911F917A
:1021A0000F910895A0E0B0E0E8EDF0E10C94F61492
:1021B000AE014B5F5F4FFA0161917191AF01809168
:1021C000BA039091BB030E941811E2E00C9412151F
:1021D0000F931F93CF93DF93E091BA03F091BB036A
:1021E000238121FF1BC08C01D0E0C0E0F801819168
:1021F0008F016091BA037091BB03DB011896ED91DA
:10220000FC911997882331F00995892B79F3DFEF39
:10221000CFEFECCF8AE00995892B19F08FEF9FEF74
:1022200002C08D2F9C2FDF91CF911F910F910895A8
:10223000ACE0B0E0EEE1F1E10C94E6147C016B015E
:102240008A01FC0117821682838181FFBDC1CE0104
:1022500001964C01F7019381F60193FD859193FF5F
:1022600081916F01882309F4ABC1853239F493FD64
:10227000859193FF81916F01853229F4B70190E038
:102280000E945014E7CF512C312C20E02032A0F4D2
:102290008B3269F030F4803259F0833269F4206176
:1022A0002CC08D3239F0803339F4216026C0226091
:1022B000246023C0286021C027FD27C030ED380FDF
:1022C0003A3078F426FF06C0FAE05F9E300D112404
:1022D000532E13C08AE0389E300D1124332E206215
:1022E0000CC08E3221F426FD6BC1206406C08C36F2
:1022F00011F4206802C0883641F4F60193FD8591FF
:1023000093FF81916F018111C1CF982F9F7D9554CB
:10231000933028F40C5F1F4FFFE3F9830DC0833621
:1023200031F0833771F0833509F05BC022C0F801CA
:10233000808189830E5F1F4F44244394512C5401A4
:1023400015C03801F2E06F0E711CF801A080B18059
:1023500026FF03C0652D70E002C06FEF7FEFC5015F
:102360002C870E9445142C0183012C852F77222E67
:1023700017C03801F2E06F0E711CF801A080B18027
:1023800026FF03C0652D70E002C06FEF7FEFC5012F
:102390002C870E9433142C012C852068222E830167
:1023A00023FC1BC0832D90E048165906B0F4B701FA
:1023B00080E290E00E9450143A94F4CFF50127FC9B
:1023C000859127FE81915F01B70190E00E94501432
:1023D00031103A94F1E04F1A51084114510471F749
:1023E000E5C0843611F0893639F5F80127FF07C0BA
:1023F00060817181828193810C5F1F4F08C0608171
:102400007181072E000C880B990B0E5F1F4F2F76E2
:10241000722E97FF09C090958095709561957F4FBA
:102420008F4F9F4F2068722E2AE030E0A4010E9457
:102430008814A82EA81844C0853729F42F7EB22E00
:102440002AE030E025C0F22FF97FBF2E8F36C1F091
:1024500018F4883579F0B4C0803719F0883721F046
:10246000AFC02F2F2061B22EB4FE0DC08B2D846023
:10247000B82E09C024FF0AC09F2F9660B92E06C04F
:1024800028E030E005C020E130E002C020E132E089
:10249000F801B7FE07C060817181828193810C5F72
:1024A0001F4F06C06081718180E090E00E5F1F4F7A
:1024B000A4010E948814A82EA818FB2DFF777F2E58
:1024C00076FE0BC0372D3E7FA51450F474FE0AC073
:1024D00072FC08C0372D3E7E05C0BA2C372D03C0D4
:1024E000BA2C01C0B52C34FF0DC0FE01EA0DF11D60
:1024F0008081803311F4397E09C032FF06C0B39465
:10250000B39404C0832F867809F0B39433FD13C0CD
:1025100030FF06C05A2CB31418F4530C5B18B32CBC
:10252000B31468F4B70180E290E03C870E94501435
:10253000B3943C85F5CFB31410F43B1801C0312C93
:1025400034FF12C0B70180E390E03C870E94501432
:102550003C8532FF17C031FD03C088E790E002C020
:1025600088E590E0B7010CC0832F867859F031FFE1
:1025700002C08BE201C080E237FD8DE2B70190E03E
:102580000E945014A51438F4B70180E390E00E9433
:1025900050145A94F7CFAA94F401EA0DF11D8081EA
:1025A000B70190E00E945014A110F5CF332009F438
:1025B00051CEB70180E290E00E9450143A94F6CFD9
:1025C000F7018681978102C08FEF9FEF2C96E2E1A1
:1025D0000C9402150F931F93CF93DF93869F800176
:1025E000879F100D969F100D1124C8010E9406139D
:1025F000EC01009729F0A80160E070E00E943E1411
:10260000CE01DF91CF911F910F910895CF93DF936A
:102610008230910510F482E090E0E091C003F091E7
:10262000C10320E030E0C0E0D0E0309711F14081FC
:10263000518148175907C0F04817590761F4828142
:102640009381209719F09B838A832BC09093C103B9
:102650008093C00326C02115310519F04217530796
:1026600018F49A01BE01DF01EF010280F381E02D31
:10267000DCCF2115310509F1281B390B2430310538
:1026800090F412968D919C9113976115710521F02C
:10269000FB019383828304C09093C1038093C003A2
:1026A000FD01329644C0FD01E20FF31F8193919327
:1026B000225031092D933C933AC02091BE033091B2
:1026C000BF03232B41F420917501309176013093A3
:1026D000BF032093BE032091730130917401211533
:1026E000310541F42DB73EB7409177015091780103
:1026F000241B350BE091BE03F091BF03E217F307F3
:10270000A0F42E1B3F0B2817390778F0AC014E5F61
:102710005F4F2417350748F04E0F5F1F5093BF03DC
:102720004093BE038193919302C0E0E0F0E0CF01BB
:10273000DF91CF9108950F931F93CF93DF9300976D
:1027400009F48CC0FC013297138212820091C003FD
:102750001091C1030115110581F420813181820F8F
:10276000931F2091BE033091BF032817390779F5D5
:10277000F093BF03E093BE0371C0D80140E050E086
:10278000AE17BF0750F412962D913C911397AD01EF
:102790002115310509F1D901F3CF9D01DA01338308
:1027A000228360817181860F971F8217930769F4D6
:1027B000EC0128813981260F371F2E5F3F4F31836F
:1027C00020838A819B8193838283452B29F4F09314
:1027D000C103E093C00342C01396FC93EE9312979B
:1027E000ED01499159919E01240F351FE217F3071E
:1027F00071F480819181840F951F029611969C93AC
:102800008E938281938113969C938E931297E0E02E
:10281000F0E0D80112968D919C911397009719F0D2
:10282000F8018C01F6CF8D919C9198012E5F3F4F5E
:10283000820F931F2091BE033091BF0328173907E1
:1028400069F4309729F41092C1031092C00302C0BA
:10285000138212821093BF030093BE03DF91CF91C6
:102860001F910F910895FC01059061507040011077
:10287000D8F7809590958E0F9F1F0895DC0101C0B9
:102880006D9341505040E0F70895FC016150704055
:1028900001900110D8F7809590958E0F9F1F089595
:1028A0000F931F93CF93DF93FB01238121FD03C07F
:1028B0008FEF9FEF28C022FF16C0468157812481E9
:1028C00035814217530744F4A081B1819D012F5FE8
:1028D0003F4F318320838C93268137812F5F3F4F79
:1028E0003783268310C0EB01092F182F0084F18550
:1028F000E02D0995892BE1F68E819F8101969F83BA
:102900008E83812F902FDF91CF911F910F9108958A
:10291000FA01AA27283051F1203181F1E8946F9310
:102920006E7F6E5F7F4F8F4F9F4FAF4FB1E03ED0B6
:10293000B4E03CD0670F781F891F9A1FA11D680F54
:10294000791F8A1F911DA11D6A0F711D811D911D87
:10295000A11D20D009F468943F912AE0269F1124FC
:102960003019305D3193DEF6CF010895462F477060
:10297000405D4193B3E00FD0C9F7F6CF462F4F70BB
:10298000405D4A3318F0495D31FD4052419302D019
:10299000A9F7EACFB4E0A6959795879577956795BF
:1029A000BA95C9F700976105710508959B01AC01BF
:1029B0000A2E06945795479537952795BA95C9F7E6
:1029C000620F731F841F951FA01D08952F923F92C1
:1029D0004F925F926F927F928F929F92AF92BF922F
:1029E000CF92DF92EF92FF920F931F93CF93DF93DB
:1029F000CDB7DEB7CA1BDB0B0FB6F894DEBF0FBE38
:102A0000CDBF09942A88398848885F846E847D8484
:102A10008C849B84AA84B984C884DF80EE80FD8086
:102A20000C811B81AA81B981CE0FD11D0FB6F894FC
:0E2A3000DEBF0FBECDBFED010895F894FFCFBD
:102A3E000501070218021F0226022D02F401F401FD
:102A4E00F401320242024902500257022D02F401F1
:102A5E00F4015F026A026F0276022D02F401F401A4
:102A6E00F401860292029B02A302B2022D02F4012D
:102A7E00F401C202D002DC022D02F401F401F401D1
:102A8E00F401E702F70204032D02F401F401F4014C
:102A9E00F40112031C032C03F401F401F401F401FC
:102AAE000000140000C20320000400010005000114
:102ABE0000040001000500010003000100030001F5
:102ACE00000300000053746F7070696E672E2E2E17
:102ADE00007265636569766500555000444F574E28
:102AEE00004C454654005249474854004E455554F3
:102AFE0052414C005072657373206C65667420628F
:102B0E007574746F6E20746F20656E64200A676131
:102B1E006D65004E756D626572206F66206C69760C
:102B2E0065733A20000A0A20202047414D45204F68
:102B3E00564552203A280043484F4F534520464FA2
:102B4E004E542053495A450053697A652034005338
:102B5E00697A6520350053697A65203800426163D1
:102B6E006B0043484F4F534520434F4E54524153F1
:102B7E00540032352E3020250035302E30202500E1
:102B8E0037352E302025003130302E3020250044B0
:102B9E004946464943554C5459004561737900489E
:102BAE0061726465720053757065726475706572DA
:102BBE00206861726400434F4E54524F4C4C455244
:102BCE0053004A6F79737469636B00536C69646563
:102BDE007273005220736C69646572202B206A6FC9
:102BEE007900426C7565746F6F7468202B206A6F64
:102BFE00790047414D452053455454494E475300A3
:102C0E00436F6E74726F6C6C6572730044696666A6
:102C1E006963756C74790053595354454D2053456F
:102C2E005454494E47530053657420636F6E74724B
:102C3E006173740053657420666F6E742073697AC5
:102C4E006500506C61792067616D6500537973740E
:102C5E00656D2073657474696E67730047616D6589
:102C6E002073657474696E677300494E56414C4902
:102C7E00442049442054494D455220534554205038
:102C8E004552494F444500494E56414C494420490E
:102C9E00442054494D455220494E495400494E5600
:102CAE00414C49442049442054494D4552205354E7
:102CBE0041525400494E56414C49442049442054F7
:102CCE00494D45522053544F50006E6F646531008C
:00000001FF
