:100000000C94D7000C94F8000C94F8000C94910216
:100010000C94F8000C94F8000C94F8000C94F80080
:100020000C94F8000C94F8000C94F8000C94F80070
:100030000C94F8000C94F8000C94F8000C94F80060
:100040000C94F8000C94FB040C94F8000C94F80049
:100050000C94F8000C94F8000C94F8000C94F80040
:100060000C94F8000C94F8000C94F8000C94F80030
:100070000C94F8000C94F8000C94F8000C94F80020
:100080000C94F8000C94F8000C94F8000C94F80010
:100090000C94F8000C94F8000C94F8000C940806EA
:1000A0000C94F8000C94F8000C9426050C94F800BD
:1000B0000C94F8000C94F8000C94F8000C94F800E0
:1000C0000C94F8000C94F8000C94F8000C94F800D0
:1000D0000C94F8000C94F8000C94F8000C94F800C0
:1000E0000C94F800270679067906790679067906D0
:1000F000790679062706790679067906790679065A
:100100007906790629067906790679067906790647
:1001100079067906790679067906790679067906E7
:100120007906790629067906790679067906790627
:1001300079067906790679067906790679067906C7
:1001400079067906750679067906790679067906BB
:1001500079067906520679067906790679067906CE
:100160007906790679067906790679067906790697
:1001700079067906460679067906790679067906BA
:100180007906790664060C9427060C9475060C947F
:1001900029060C9452060C9464060C9479060C946F
:1001A0003A010C9472050C9446060C942301112418
:1001B0001FBECFEFD1E2DEBFCDBF00E00CBF12E02B
:1001C000A0E0B2E0E2E7FAE100E00BBF02C0079076
:1001D0000D92AA36B107D9F722E0AAE6B2E001C033
:1001E0001D92AB3AB207E1F70E94FA000C94370D6A
:1001F0000C9400000E947E082FEF81EE94E02150C5
:1002000080409040E1F700C000000E947907F4CFE1
:100210009093C5008093C4008EE08093C20010923A
:10022000C00088E18093C1006AE371E083E291E05D
:100230000E946C0B0895E0ECF0E0908195FFFDCFFB
:100240008093C6000895CF93C82F8A3019F48DE0AB
:100250000E941B018C2F0E941B0180E090E0CF9137
:1002600008958091C00088231CF48091C6000895F1
:1002700080E008950E943101082E000C990B08952A
:1002800084B1866884B9209A23988CB581658CBD29
:1002900008958EBD0DB407FEFDCF8EB50895882359
:1002A00011F02F9A08952F980895CF93C82F80E0CA
:1002B0000E944F0183E00E9449018C2F0E94490156
:1002C00080E00E944901C82F81E00E944F018C2FDD
:1002D000CF910895CF93DF93D82FC62F80E00E944F
:1002E0004F0182E00E9449018D2F0E9449018C2F0D
:1002F0000E94490181E00E944F01DF91CF91089552
:1003000080E00E944F0181E80E94490181E00E9443
:100310004F010895CF9380E00E944F0180EA0E9430
:10032000490180E00E944901C82F81E00E944F01ED
:100330008C2FCF9108951F93CF93DF93182FD62F33
:10034000C42F80E00E944F0185E00E944901812F67
:100350000E9449018D2F0E9449018C2F0E94490162
:1003600081E00E944F01DF91CF911F91089580E0BD
:100370000E944F0180EC0E94490181E00E944F01E0
:1003800008955298F894EA9AEAE6F0E08081826053
:100390008083789410926A0240E061E08BE20E94D0
:1003A0009B014FEF61E08BE20E949B0140E061E026
:1003B0008CE20E949B018CE20E94550180FF03C0E9
:1003C00081E080936A0208950E94B70110926A0248
:1003D0008EE00E94550180FF05C040E860EE8FE08E
:1003E0000E949B010E94C10140E060EE8FE00E94EC
:1003F0009B010895EF92FF920F931F93CF93DF938A
:100400007C0106C08FE99FE00197F1F700C0000072
:1004100080E30E94550183FDF5CFF7016081669569
:100420006695669581E30E946A01F7016081629595
:10043000660F607E82E30E946A01F70161816F703E
:1004400085E30E946A01F7018181882399F0870181
:100450000E5F1F4FC0E0D0E0F80161918F018C2F3B
:100460008A5C0E946A012196F701218130E0C2175F
:10047000D30794F34FEF6BE080E30E949B01DF9181
:10048000CF911F910F91FF90EF900895EF92FF92FF
:100490000F931F93CF93DF937C018CE20E94550151
:1004A00080FD04C080916A028823A1F181E60E9448
:1004B0005501880F880F880FF701808382E60E941C
:1004C0005501829586958770F7019081892B8083ED
:1004D00085E60E9455018F70F7018183882399F08A
:1004E00087010E5F1F4FC0E0D0E08C2F8A590E9419
:1004F0005501F80181938F012196F701218130E0A8
:10050000C217D30794F340E061E08CE20E949B01A4
:1005100010926A02DF91CF911F910F91FF90EF909F
:1005200008951F920F920FB60F9211240BB60F92DF
:10053000EF92FF920F931F932F933F934F935F93ED
:100540006F937F938F939F93AF93BF93EF93FF939B
:10055000CF93DF93CDB7DEB72A97DEBFCDBFF89438
:100560008CE20E94550180FF03C081E080936A0203
:1005700040E061E08CE20E949B01CE0101960E9466
:1005800046028981811142C080910002909101024E
:10059000009751F08130910569F0029789F403E0EA
:1005A00010E0E12CF12C0CC000E010E0EE24E3940C
:1005B000F12C06C003E010E06894EE24E2F8F12C80
:1005C000E3E0F0E0EC0FFD1FEE0DFF1D80818A508F
:1005D0000E949703E3E0F0E0EC0FFD1FE00FF11F36
:1005E000808122E3829FC00111240E9455078F81E0
:1005F000882351F00E947808811103C00E94670887
:1006000005C08F81811102C00E947B0889818130E1
:1006100031F48B8190E090930102809300022A963E
:100620000FB6F894DEBF0FBECDBFDF91CF91FF9123
:10063000EF91BF91AF919F918F917F916F915F915A
:100640004F913F912F911F910F91FF90EF900F903D
:100650000BBE0F900FBE0F901F901895EBE6F2E0C7
:10066000A5E7B2E08C91828311968C9111978383D8
:1006700012968C911297848313968C91139785838D
:1006800014968C9186830895E5E7F2E0ABE6B2E03C
:1006900012968C911297808313968C911397818375
:1006A00014968C911497828315968C911597838359
:1006B00016968C9184830895EBE6F2E0108285E033
:1006C0008183EDE6F2E085E792E01192E817F90701
:1006D000E1F7E5E7F2E010821182128213821482C0
:1006E0000895CF93DF9300D01F921F92CDB7DEB74E
:1006F0008BE692E00E9446020E94440385E0E5E713
:10070000F2E0DE01119601900D928A95E1F72981C0
:100710003A814B815C816D8170E080E090E00F90C8
:100720000F900F900F900F90DF91CF910895CF927F
:10073000DF92EF92FF928B350CF08AE5682F863AB4
:100740000CF466EA062E000C770B880B990B0E94BE
:100750004A0A20E030E044E353E40E94A7099B01E9
:10076000AC0160E070E080EC9FE30E9435096B0112
:100770007C0120E030E040E050E40E94A20918161D
:1007800014F120E030E040E85FE3C701B6010E94C9
:10079000FA0A8823C4F0609196007091970080E077
:1007A00090E00E94480AA70196010E94FF0A20E0FB
:1007B00030E040EA51E40E94A7090E94190A7093B0
:1007C000990060939800FF90EF90DF90CF9008958C
:1007D000F8946B9AE0E9F0E080E8808380818260A1
:1007E0008083E1E9F0E0808188618083808182609C
:1007F00080838FE39CE99093970080939600789490
:1008000080E00E949703089520E030E040E851E442
:100810000E94FF0A9B01AC0160E074E284E79BE464
:100820000E94A70920E030E040E85FE30E9435091C
:100830000E94190AE6E2F1E0718360838081918170
:100840009695879590932901809328010895E1E278
:10085000F1E08081887F80830895E1E2F1E080818A
:1008600082608083089510927B0080E480937C00F6
:1008700080E880937A000895EAE7F0E08081806460
:100880008083808186FDFDCF8091780090917900F2
:100890000895613021F5BC0180E090E00E94480A93
:1008A0002FE632E143E85AE30E94FF0A20E034E2F7
:1008B00044E75BE40E94FF0A20E030E040E05BE3B5
:1008C0000E94FF0A20E030E040E85FE30E94350923
:1008D0000E94190A7093890060938800089562301D
:1008E00021F5BC0180E090E00E94480A2FE632E149
:1008F00043E85AE30E94FF0A20E034E244E75BE465
:100900000E94FF0A20E030E040E05BE30E94FF0A23
:1009100020E030E040E85FE30E9435090E94190AB8
:100920007093A9006093A800089589E092E00E9466
:10093000B70B0895F894813079F41092800098E014
:1009400090938100EFE6F0E0908192609083709345
:100950007D0260937C0216C0823079F41092A00070
:1009600098E09093A100E2E7F0E09081926090839C
:1009700070937B0260937A0205C086E292E00E9447
:10098000B70B08957894682F84E690E00E9449049C
:100990000895813051F41092850010928400E1E8AE
:1009A000F0E08081846080830895823051F4109259
:1009B000A5001092A400E1EAF0E0808184608083C9
:1009C00008958CE392E00E94B70B0895813031F4D2
:1009D000E1E8F0E08081887F80830895823031F4FF
:1009E000E1EAF0E08081887F8083089583E592E0EA
:1009F0000E94B70B08951F920F920FB60F92112409
:100A00000BB60F922F933F934F935F936F937F9308
:100A10008F939F93AF93BF93EF93FF93E0917C02EB
:100A2000F0917D021995FF91EF91BF91AF919F9148
:100A30008F917F916F915F914F913F912F910F9087
:100A40000BBE0F900FBE0F901F9018951F920F9224
:100A50000FB60F9211240BB60F922F933F934F9323
:100A60005F936F937F938F939F93AF93BF93EF9316
:100A7000FF93E0917A02F0917B021995FF91EF913B
:100A8000BF91AF919F918F917F916F915F914F91A6
:100A90003F912F910F900BBE0F900FBE0F901F90A4
:100AA00018951092800210927F0210927E0262E7E7
:100AB00075E082E00E949A0462E082E390E00E9486
:100AC000490482E00E94C90408958091800208953B
:100AD0000E943C0421E030E0C29710F020E030E0BA
:100AE000C90108950E946805892BB9F080917E02A2
:100AF00090917F02892B01F5809180028F5F809316
:100B0000800262E084EF91E00E94490481E090E07D
:100B100090937F0280937E02089580917E0290914F
:100B20007F02892B49F010927F0210927E0262E0D0
:100B300082E390E00E94490408958CE08093B8001D
:100B40008FEF8093BB0084E08093BC000895809178
:100B5000BC0081700895ECEBF0E0808180FDFDCF5A
:100B6000809102020895CF93DF93EC01ECEBF0E06B
:100B7000908190FDFDCF60938302988190938402D1
:100B800090FD13C0623088F0FE013196A5E8B2E016
:100B90006250262F30E02E5F3F4FCE01820F931F11
:100BA00021912D93E817F907D9F71092810288EF68
:100BB0008093020285EA8093BC00DF91CF91089573
:100BC000ECEBF0E0808180FDFDCF1092810288EF98
:100BD0008093020285EA8093BC000895ECEBF0E07C
:100BE000208120FDFDCF2091810220FF0DC06623D2
:100BF00059F024E832E0A82FB92FF90181918D93A3
:100C00008E2F821B8617D0F3809181028170089508
:100C10001F920F920FB60F9211240BB60F922F93C3
:100C20003F938F939F93AF93BF93EF93FF93E09185
:100C3000B9008E2F90E0FC013897E135F10508F0FE
:100C400058C08827EE58FF4F8F4F0C94D50810924C
:100C50008202E091820280918302E81770F481E0C1
:100C60008E0F80938202F0E0EC57FD4F80818093DD
:100C7000BB0085E88093BC0043C080918102816005
:100C80008093810284E98093BC003AC0E0918202A3
:100C900081E08E0F809382028091BB00F0E0EC57E0
:100CA000FD4F80832091820230E08091830290E0AA
:100CB00001972817390724F485EC8093BC0020C0E5
:100CC00085E88093BC001CC08091BB00E09182024B
:100CD000F0E0EC57FD4F808380918102816080932A
:100CE000810284E98093BC000BC085EA8093BC003C
:100CF00007C08091B9008093020284E08093BC0019
:100D0000FF91EF91BF91AF919F918F913F912F9163
:100D10000F900BBE0F900FBE0F901F901895CF93A2
:100D2000DF9300D0CDB7DEB790E599831A828B832D
:100D300063E0CE0101960E94B3058FE99FE0019721
:100D4000F1F700C000000F900F900F90DF91CF914E
:100D50000895E2E0F1E080818F7D80838081877F4C
:100D600080832AE62A95F1F700C0A6E0B1E08C91D5
:100D700090E0982F88272081286020832AE62A95F2
:100D8000F1F700C03C91208120622083832B0895DD
:100D9000E2E0F1E080818F7B80838AE68A95F1F73B
:100DA00000C0808180648083089510920701E1E093
:100DB000F1E080818A678083E2E0F1E080818061F8
:100DC00080830E94C80680E00E948F0610928802ED
:100DD0000895882331F0E2E0F1E080818260808331
:100DE0000895E2E0F1E080818D7F80830895CF93C4
:100DF000DF938B3F2FEF920784F4CC27DD27C61BB0
:100E0000D70B8C179D070CF4EC0180E00E94E906DB
:100E10008C2F81950E948F0612C08630910564F058
:100E2000EC01861797070CF4EB0181E00E94E906BC
:100E30008C2F0E948F0603C080E00E948F06DF91F6
:100E4000CF910895CF93DF939B01CAE8D2E01C8233
:100E50001D821E821F821B821A8219821882998724
:100E600088877B876A875D874C87BC016F5F7F4F70
:100E70008FEF9FE70E94A2087F876E872F5F3F4F0B
:100E8000032E000C440B550B6FEF7FEF8FEF9FE3AA
:100E90000E94B608288B398B4A8B5B8B82E390E0EB
:100EA0009D8B8C8BDF91CF91089590938B028093D3
:100EB0008A02089590939F0280939E020895109253
:100EC0008E0210928F021092900210929102089559
:100ED00061E00E944904089581E00E94C9040895D8
:100EE00081E00E94E604089580918A0290918B022D
:100EF0000895CF92DF92EF92FF920F931F93CF93BB
:100F0000DF930E94A906FC01CC27DD27C81BD90B63
:100F1000AAE8B2E04D915C911197480F591F1E96B7
:100F20008D919C911F978417950794F091958195C9
:100F30009109481759077CF0809192029091930291
:100F4000489F8001499F100D589F100D112405C026
:100F50000FEF1FE702C001E010E8AAE8B2E0052E9B
:100F6000000C660B770B1496CD90DD90ED90FC9005
:100F700017979A01AB012C0D3D1D4E1D5F1D50961C
:100F80008D919D910D90BC91A02D82179307A40780
:100F9000B5076CF480938E0290938F02A093900219
:100FA000B09391024FEF5FEF6FEF7FE329C0CC2446
:100FB000DD247601C81AD90AEA0AFB0A2C153D0578
:100FC0004E055F056CF480938E0290938F02A09380
:100FD0009002B093910241E050E060E070EC10C0EC
:100FE000AAE8B2E014962D933D934D935C93179726
:100FF0001A960D90BC91A02D0E94DD08AB01BC019A
:10100000AAE8B2E012968D919C911397E80FF91F10
:101010001C962D913C911D97E29FC001E39F900D7E
:10102000F29F900D11241396DC93CE931297012E0C
:10103000000C220B330B400F511F621F731F092E30
:10104000000CAA0BBB0B480F591F6A1F7B1FDB014B
:10105000CA01772324F481589F4FAF4FBF4F689444
:1010600016F8B595A795979587951694D1F7813081
:1010700020E892072FEFA207B20724F481E090E85E
:10108000AFEFBFEF811520E89207A105B10524F06D
:101090008FEF9FE7A0E0B0E08093890260919E020D
:1010A00070919F020E94F706DF91CF911F910F91DF
:1010B000FF90EF90DF90CF900895749A0895749800
:1010C00008956C9A1092A0020E945D08089581E034
:1010D0008093A0020E945F082FE789EA93E02150E5
:1010E00080409040E1F700C000000E945D08089534
:1010F0008091A00208951092A002089587E690E0E2
:101100000E94080185B7806885BF0E9440010E9447
:10111000B7010E94E4010E945C030E94E8030E9460
:1011200033040E9451050E9461080E949D050E949F
:10113000D50644E050E060E070E084E090E00E947A
:101140002207089597FB072E16F4009407D077FD29
:1011500009D00E94E50807FC05D03EF490958195E2
:101160009F4F0895709561957F4F0895052E97FBC9
:101170001EF400940E94CD0857FD07D00E94F90884
:1011800007FC03D04EF40C94CD0850954095309553
:1011900021953F4F4F4F5F4F0895909580957095E3
:1011A00061957F4F8F4F9F4F0895EE0FFF1F881F50
:1011B0008BBF0790F691E02D1994B7FF0C941B0993
:1011C0000E941B09821B930B0895AA1BBB1B51E1B4
:1011D00007C0AA1FBB1FA617B70710F0A61BB70BA7
:1011E000881F991F5A95A9F780959095BC01CD014C
:1011F0000895A1E21A2EAA1BBB1BFD010DC0AA1F58
:10120000BB1FEE1FFF1FA217B307E407F50720F06F
:10121000A21BB30BE40BF50B661F771F881F991FEA
:101220001A9469F760957095809590959B01AC0133
:10123000BD01CF0108950E942609A59F900DB49F7E
:10124000900DA49F800D911D11240895A29FB001BF
:10125000B39FC001A39F700D811D1124911DB29FEA
:10126000700D811D1124911D08955058BB27AA2788
:101270000E944D090C94C00A0E94B20A38F00E94E4
:10128000B90A20F039F49F3F19F426F40C94AF0A00
:101290000EF4E095E7FB0C94A90AE92F0E94D10A0D
:1012A00058F3BA17620773078407950720F079F49B
:1012B000A6F50C94F30A0EF4E0950B2EBA2FA02D90
:1012C0000B01B90190010C01CA01A0011124FF27F3
:1012D000591B99F0593F50F4503E68F11A16F040EE
:1012E000A22F232F342F4427585FF3CF46953795ED
:1012F0002795A795F0405395C9F77EF41F16BA0BB2
:10130000620B730B840BBAF09150A1F0FF0FBB1F5F
:10131000661F771F881FC2F70EC0BA0F621F731FA8
:10132000841F48F4879577956795B795F7959E3F05
:1013300008F0B0CF9395880F08F09927EE0F979596
:10134000879508950E94850A08F481E008950E9417
:10135000BB090C94C00A0E94B90A58F00E94B20A54
:1013600040F029F45F3F29F00C94A90A51110C9424
:10137000F40A0C94AF0A0E94D10A68F39923B1F3DE
:10138000552391F3951B550BBB27AA2762177307AB
:10139000840738F09F5F5F4F220F331F441FAA1F3F
:1013A000A9F335D00E2E3AF0E0E832D091505040FB
:1013B000E695001CCAF72BD0FE2F29D0660F771FA9
:1013C000881FBB1F261737074807AB07B0E809F08F
:1013D000BB0B802DBF01FF2793585F4F3AF09E3F14
:1013E000510578F00C94A90A0C94F40A5F3FE4F3D9
:1013F000983ED4F3869577956795B795F7959F5F57
:10140000C9F7880F911D9695879597F90895E1E0A2
:10141000660F771F881FBB1F621773078407BA0701
:1014200020F0621B730B840BBA0BEE1F88F7E0955C
:1014300008950E94D90A88F09F5798F0B92F9927EC
:10144000B751B0F0E1F0660F771F881F991F1AF0AF
:10145000BA95C9F714C0B13091F00E94F30AB1E017
:1014600008950C94F30A672F782F8827B85F39F016
:10147000B93FCCF3869577956795B395D9F73EF448
:1014800090958095709561957F4F8F4F9F4F0895F0
:10149000E89409C097FB3EF490958095709561950E
:1014A0007F4F8F4F9F4F9923A9F0F92F96E9BB27C4
:1014B0009395F695879577956795B795F111F8CF40
:1014C000FAF4BB0F11F460FF1BC06F5F7F4F8F4FAB
:1014D0009F4F16C0882311F096E911C0772321F0A1
:1014E0009EE8872F762F05C0662371F096E8862F39
:1014F00070E060E02AF09A95660F771F881FDAF790
:10150000880F9695879597F90895990F0008550FBC
:10151000AA0BE0E8FEEF16161706E807F907C0F079
:1015200012161306E407F50798F0621B730B840B81
:10153000950B39F40A2661F0232B242B252B21F45B
:1015400008950A2609F4A140A6958FEF811D811DFB
:10155000089597F99F6780E870E060E008959FEF35
:1015600080EC089500240A9416161706180609063A
:10157000089500240A941216130614060506089509
:10158000092E0394000C11F4882352F0BB0F40F491
:10159000BF2B11F460FF04C06F5F7F4F8F4F9F4FD1
:1015A000089557FD9058440F551F59F05F3F71F053
:1015B0004795880F97FB991F61F09F3F79F08795BA
:1015C0000895121613061406551FF2CF4695F1DF43
:1015D00008C0161617061806991FF1CF86957105D3
:1015E000610508940895E894BB2766277727CB0107
:1015F00097F908950E94850A08F48FEF08950E94D4
:10160000120B0C94C00A0E94B20A38F00E94B90A68
:1016100020F0952311F00C94A90A0C94AF0A112420
:101620000C94F40A0E94D10A70F3959FC1F3950FB0
:1016300050E0551F629FF001729FBB27F00DB11D56
:10164000639FAA27F00DB11DAA1F649F6627B00DE6
:10165000A11D661F829F2227B00DA11D621F739FCF
:10166000B00DA11D621F839FA00D611D221F749FDD
:101670003327A00D611D231F849F600D211D822F24
:10168000762F6A2F11249F5750409AF0F1F088234B
:101690004AF0EE0FFF1FBB1F661F771F881F915078
:1016A0005040A9F79E3F510580F00C94A90A0C9474
:1016B000F40A5F3FE4F3983ED4F3869577956795F7
:1016C000B795F795E7959F5FC1F7FE2B880F911DA2
:1016D0009695879597F908950F931F93CF93DF936E
:1016E000009731F46115710519F480E090E03AC07B
:1016F0008B01EC016EE070E081E090E00E94E70B6E
:10170000FC01892B91F380E883830115110571F0A9
:101710001387028781E883838091A1029091A202BE
:10172000892B21F4F093A202E093A1022097C9F043
:10173000D187C0878381826083838091A302909147
:10174000A402892B71F4F093A402E093A302809188
:10175000A5029091A602892B21F4F093A602E093B2
:10176000A502CF01DF91CF911F910F9108950F93A3
:101770001F93CF93DF93E091A302F091A402238102
:1017800021FF1BC08C01D0E0C0E0F80181918F01E6
:101790006091A3027091A402DB011896ED91FC9177
:1017A0001997882331F01995892B79F3DFEFCFEF63
:1017B000ECCF8AE01995892B19F08FEF9FEF02C0CB
:1017C0008D2F9C2FDF91CF911F910F9108950F9333
:1017D0001F93CF93DF93869F8001879F100D969F65
:1017E000100D1124C8010E94030CEC01009729F090
:1017F000A80160E070E00E94300DCE01DF91CF9132
:101800001F910F910895CF93DF938230910510F4CB
:1018100082E090E0E091A902F091AA0220E030E09D
:10182000C0E0D0E0309711F140815181481759074D
:10183000C0F04817590761F482819381209719F00D
:101840009B838A832BC09093AA028093A90226C00F
:101850002115310519F04217530718F49A01BE01FA
:10186000DF01EF010280F381E02DDCCF211531058E
:1018700009F1281B390B2430310590F412968D9113
:101880009C9113976115710521F0FB01938382836D
:1018900004C09093AA028093A902FD01329644C02D
:1018A000FD01E20FF31F81939193225031092D9393
:1018B0003C933AC02091A7023091A802232B41F417
:1018C00020910502309106023093A8022093A702CE
:1018D00020910302309104022115310541F42DB706
:1018E0003EB74091070250910802241B350BE0914E
:1018F000A702F091A802E217F307A0F42E1B3F0BFA
:101900002817390778F0AC014E5F5F4F2417350771
:1019100048F04E0F5F1F5093A8024093A702819397
:10192000919302C0E0E0F0E0CF01DF91CF91089504
:101930000F931F93CF93DF93009709F48CC0FC01A2
:101940003297138212820091A9021091AA02011506
:10195000110581F420813181820F931F2091A7020C
:101960003091A8022817390779F5F093A802E0937F
:10197000A70271C0D80140E050E0AE17BF0750F495
:1019800012962D913C911397AD012115310509F166
:10199000D901F3CF9D01DA01338322836081718104
:1019A000860F971F8217930769F4EC01288139810C
:1019B000260F371F2E5F3F4F318320838A819B8103
:1019C00093838283452B29F4F093AA02E093A90222
:1019D00042C01396FC93EE931297ED0149915991F1
:1019E0009E01240F351FE217F30771F48081918166
:1019F000840F951F029611969C938E9382819381FA
:101A000013969C938E931297E0E0F0E0D801129623
:101A10008D919C911397009719F0F8018C01F6CFE6
:101A20008D919C9198012E5F3F4F820F931F2091C3
:101A3000A7023091A8022817390769F4309729F4D2
:101A40001092AA021092A90202C01382128210936D
:101A5000A8020093A702DF91CF911F910F910895E3
:101A6000DC0101C06D9341505040E0F70895F894B7
:021A7000FFCFA6
:101A72000200F80000AB022000494E56414C494496
:101A82002049442054494D45522053455420504545
:101A920052494F444500494E56414C49442049441D
:101AA2002054494D455220494E495400494E564111
:101AB2004C49442049442054494D455220535441F5
:101AC200525400494E56414C4944204944205449FD
:0A1AD2004D45522053544F500000C0
:00000001FF
