:100000000C94D7000C94F8000C94F8000C94950212
:100010000C94F8000C94F8000C94F8000C94F80080
:100020000C94F8000C94F8000C94F8000C94F80070
:100030000C94F8000C94F8000C94F8000C94F80060
:100040000C94F8000C9415050C94F8000C94F8002E
:100050000C94F8000C94F8000C94F8000C94F80040
:100060000C94F8000C94F8000C94F8000C94F80030
:100070000C94F8000C94F8000C94F8000C94F80020
:100080000C94F8000C94F8000C94F8000C94F80010
:100090000C94F8000C94F8000C94F8000C944E06A4
:1000A0000C94F8000C94F8000C9440050C94F800A3
:1000B0000C94F8000C94F8000C94F8000C94F800E0
:1000C0000C94F8000C94F8000C94F8000C94F800D0
:1000D0000C94F8000C94F8000C94F8000C94F800C0
:1000E0000C94F8006D06BF06BF06BF06BF06BF062C
:1000F000BF06BF066D06BF06BF06BF06BF06BF062A
:10010000BF06BF066F06BF06BF06BF06BF06BF0617
:10011000BF06BF06BF06BF06BF06BF06BF06BF06B7
:10012000BF06BF066F06BF06BF06BF06BF06BF06F7
:10013000BF06BF06BF06BF06BF06BF06BF06BF0697
:10014000BF06BF06BB06BF06BF06BF06BF06BF068B
:10015000BF06BF069806BF06BF06BF06BF06BF069E
:10016000BF06BF06BF06BF06BF06BF06BF06BF0667
:10017000BF06BF068C06BF06BF06BF06BF06BF068A
:10018000BF06BF06AA060C94BF060C9498060C94F2
:100190006F060C94BB060C946D060C943E010C94F7
:1001A0008D050C94AA060C9427010C948C0611243E
:1001B0001FBECFEFD1E2DEBFCDBF00E00CBF12E02B
:1001C000A0E0B2E0E0E8F0E200E00BBF02C0079080
:1001D0000D92A63BB107D9F722E0A6EBB2E001C031
:1001E0001D92A73FB207E1F70E94FA000C943E105F
:1001F0000C9400000E94C4088DE092E00E94170C4D
:100200002FEF81EE94E0215080409040E1F700C054
:1002100000000E94BF07F4CF9093C5008093C400F4
:100220008EE08093C2001092C00088E18093C100EC
:100230006EE371E087E291E00E94B80B0895E0EC74
:10024000F0E0908195FFFDCF8093C6000895CF9395
:10025000C82F8A3019F48DE00E941F018C2F0E9454
:100260001F0180E090E0CF9108958091C000882325
:100270001CF48091C600089580E008950E94350125
:10028000082E000C990B089584B1866884B9209AD1
:1002900023988CB581658CBD08958EBD0DB407FE85
:1002A000FDCF8EB50895882311F02F9A08952F98C9
:1002B0000895CF93C82F80E00E94530183E00E94ED
:1002C0004D018C2F0E944D0180E00E944D01C82FEE
:1002D00081E00E9453018C2FCF910895CF93DF933B
:1002E000D82FC62F80E00E94530182E00E944D016A
:1002F0008D2F0E944D018C2F0E944D0181E00E94A4
:100300005301DF91CF91089580E00E94530181E86D
:100310000E944D0181E00E9453010895CF9380E037
:100320000E94530180EA0E944D0180E00E944D012D
:10033000C82F81E00E9453018C2FCF9108951F9305
:10034000CF93DF93182FD62FC42F80E00E94530144
:1003500085E00E944D01812F0E944D018D2F0E944A
:100360004D018C2F0E944D0181E00E945301DF91CD
:10037000CF911F91089580E00E94530180EC0E946C
:100380004D0181E00E94530108955298F894EA9A31
:10039000EAE6F0E080818260808378941092B60271
:1003A00040E061E08BE20E949F014FEF61E08BE251
:1003B0000E949F0140E061E08CE20E949F018CE27C
:1003C0000E94590180FF03C081E08093B602089526
:1003D0000E94BB011092B6028EE00E94590180FF7C
:1003E00005C040E860EE8FE00E949F010E94C501B9
:1003F00040E060EE8FE00E949F010895EF92FF922F
:100400000F931F93CF93DF937C0106C08FE99FE08A
:100410000197F1F700C0000080E30E94590183FDBD
:10042000F5CFF701608166956695669581E30E9438
:100430006E01F70160816295660F607E82E30E9423
:100440006E01F70161816F7085E30E946E01F70113
:100450008181882399F087010E5F1F4FC0E0D0E0B3
:10046000F80161918F018C2F8A5C0E946E012196A8
:10047000F701218130E0C217D30794F34FEF6BE00F
:1004800080E30E949F01DF91CF911F910F91FF9018
:10049000EF900895EF92FF920F931F93CF93DF9306
:1004A0007C018CE20E94590180FD04C08091B6025B
:1004B0008823A1F181E60E945901880F880F880FD7
:1004C000F701808382E60E945901829586958770A4
:1004D000F7019081892B808385E60E9459018F70F6
:1004E000F7018183882399F087010E5F1F4FC0E0D9
:1004F000D0E08C2F8A590E945901F80181938F0115
:100500002196F701218130E0C217D30794F340E030
:1005100061E08CE20E949F011092B602DF91CF91C0
:100520001F910F91FF90EF9008951F920F920FB6B9
:100530000F9211240BB60F921F932F933F934F935B
:100540005F936F937F938F939F93AF93BF93EF933B
:10055000FF93CF93DF93CDB7DEB72A97DEBFCDBF32
:10056000F8948CE20E94590180FF03C081E08093DF
:10057000B60240E061E08CE20E949F01CE0101964C
:100580000E944A02998191115CC080910002909171
:100590000102892B31F00E946B051092010210922A
:1005A000000220910402309105022115310591F4D9
:1005B0001C811A508B81082E000C990B80589F4F7C
:1005C00022E3AC01249FC001259F900D11240E94BD
:1005D0009B0725C02130310551F41D8112588E81B1
:1005E00052E3859FC00111240E949B0718C022304E
:1005F000310551F41B811A508E8122E3829FC00184
:1006000011240E949B070BC02330310541F41B814C
:100610001A5081E090E09093030280930202812FB0
:100620000E94B1038F81882351F00E94BE0881117E
:1006300003C00E94AD0805C08F81811102C00E94D5
:10064000C1088981813039F48B8190E09093050253
:10065000809304021CC08430D1F48B811F928F934D
:1006600089E192E09F938F930E94030C0F900F906B
:100670000F900F908091020290910302892B39F024
:100680008B8142E3849FC00111240E949B072A961C
:100690000FB6F894DEBF0FBECDBFDF91CF91FF91B3
:1006A000EF91BF91AF919F918F917F916F915F91EA
:1006B0004F913F912F911F910F900BBE0F900FBE46
:1006C0000F901F901895E7EBF2E0108285E0818390
:1006D000E9EBF2E081EC92E01192E817F907E1F71B
:1006E000E1ECF2E0108211821282138214820895EA
:1006F000CF93DF9300D01F921F92CDB7DEB787EB69
:1007000092E00E944A02E1ECF2E0A7EBB2E012961E
:100710008C911297808313968C91139781831496F2
:100720008C911497828315968C91159783831696D6
:100730008C91848385E0DE01119601900D928A955B
:10074000E1F729813A814B815C816D8170E080E025
:1007500090E00F900F900F900F900F90DF91CF913E
:100760000895CF92DF92EF92FF928B350CF08AE5DD
:10077000682F863A0CF466EA062E000C770B880B7D
:10078000990B0E94960A20E030E044E353E40E9473
:10079000F3099B01AC0160E070E080EC9FE30E94F4
:1007A00081096B017C0120E030E040E050E40E94D0
:1007B000EE09181614F120E030E040E85FE3C701CD
:1007C000B6010E94460B8823C4F060919600709198
:1007D000970080E090E00E94940AA70196010E9491
:1007E0004B0B20E030E040EA51E40E94F3090E9404
:1007F000650A7093990060939800FF90EF90DF90E6
:10080000CF900895F8946B9AE0E9F0E080E8808357
:10081000808182608083E1E9F0E08081886180836B
:100820008081826080838FE39CE99093970080931E
:100830009600789480E00E94B103089520E030E0B3
:1008400040E851E40E944B0B9B01AC0160E074E274
:1008500084E79BE40E94F30920E030E040E85FE396
:100860000E9481090E94650AE6E2F1E071836083DB
:100870008081918196958795909329018093280195
:100880000895E1E2F1E08081887F80830895E1E2CC
:10089000F1E0808182608083089510927B0080E483
:1008A00080937C0080E880937A000895EAE7F0E086
:1008B000808180648083808186FDFDCF8091780077
:1008C000909179000895613021F5BC0180E090E0BD
:1008D0000E94940A2FE632E143E85AE30E944B0B50
:1008E00020E034E244E75BE40E944B0B20E030E080
:1008F00040E05BE30E944B0B20E030E040E85FE328
:100900000E9481090E94650A7093890060938800A3
:100910000895623021F5BC0180E090E00E94940AC5
:100920002FE632E143E85AE30E944B0B20E034E229
:1009300044E75BE40E944B0B20E030E040E05BE3E7
:100940000E944B0B20E030E040E85FE30E94810909
:100950000E94650A7093A9006093A800089587E239
:1009600092E00E94170C0895F894813079F4109267
:10097000800098E090938100EFE6F0E09081926033
:1009800090837093C9026093C80216C0823079F4D4
:100990001092A00098E09093A100E2E7F0E090812F
:1009A000926090837093C7026093C60205C084E48E
:1009B00092E00E94170C08957894682F84E690E0E6
:1009C0000E9463040895813051F4109285001092C2
:1009D0008400E1E8F0E080818460808308958230C3
:1009E00051F41092A5001092A400E1EAF0E0808199
:1009F0008460808308958AE592E00E94170C089530
:100A0000813031F4E1E8F0E08081887F80830895CF
:100A1000823031F4E1EAF0E08081887F80830895BC
:100A200081E792E00E94170C08951F920F920FB673
:100A30000F9211240BB60F922F933F934F935F9316
:100A40006F937F938F939F93AF93BF93EF93FF9396
:100A5000E091C802F091C9021995FF91EF91BF9101
:100A6000AF919F918F917F916F915F914F913F9146
:100A70002F910F900BBE0F900FBE0F901F901895E7
:100A80001F920F920FB60F9211240BB60F922F9355
:100A90003F934F935F936F937F938F939F93AF9306
:100AA000BF93EF93FF93E091C602F091C7021995AF
:100AB000FF91EF91BF91AF919F918F917F916F9136
:100AC0005F914F913F912F910F900BBE0F900FBEF2
:100AD0000F901F9018951092CC021092CB0210929A
:100AE000CA026DE875E082E00E94B40462E088EC1E
:100AF00090E00E94630482E00E94E30408958091E4
:100B0000CC0208950E94560421E030E080329340E8
:100B100010F020E030E0C9010895CF93DF93CDB706
:100B2000DEB72A970FB6F894DEBF0FBECDBF0E9486
:100B30008205892B81F18091CB028F938091CA022B
:100B40008F9387E892E09F938F930E94030C0F90FE
:100B50000F900F900F908091CA029091CB02892B39
:100B600049F581E090E09093CB028093CA0283E044
:100B7000898381E08A838B83CE0101960E94FE01E6
:100B80008091CC028F5F8093CC0262E08CEB92E08C
:100B90000E9463040FC08091CA029091CB02892BFE
:100BA00049F01092CB021092CA0262E088EC90E009
:100BB0000E9463042A960FB6F894DEBF0FBECDBF25
:100BC000DF91CF9108958CE08093B8008FEF8093F0
:100BD000BB0084E08093BC0008958091BC008170CC
:100BE0000895ECEBF0E0808180FDFDCF809106025E
:100BF0000895CF93DF93EC01ECEBF0E0908190FD52
:100C0000FDCF6093CF0298819093D00290FD13C0E6
:100C1000623088F0FE013196A1EDB2E06250262FDD
:100C200030E02E5F3F4FCE01820F931F21912D9315
:100C3000E817F907D9F71092CD0288EF80930602E2
:100C400085EA8093BC00DF91CF910895ECEBF0E052
:100C5000808180FDFDCF1092CD0288EF8093060247
:100C600085EA8093BC000895ECEBF0E0208120FD44
:100C7000FDCF2091CD0220FF0DC0662359F020ED5D
:100C800032E0A82FB92FF90181918D938E2F821B0D
:100C90008617D0F38091CD02817008951F920F9234
:100CA0000FB60F9211240BB60F922F933F938F9391
:100CB0009F93AF93BF93EF93FF93E091B9008E2F73
:100CC00090E0FC013897E135F10508F058C088271D
:100CD000EE58FF4F8F4F0C9421091092CE02E091F5
:100CE000CE028091CF02E81770F481E08E0F8093DE
:100CF000CE02F0E0E053FD4F80818093BB0085E899
:100D00008093BC0043C08091CD0281608093CD026E
:100D100084E98093BC003AC0E091CE0281E08E0F5E
:100D20008093CE028091BB00F0E0E053FD4F8083C2
:100D30002091CE0230E08091CF0290E001972817F9
:100D4000390724F485EC8093BC0020C085E88093AB
:100D5000BC001CC08091BB00E091CE02F0E0E053EB
:100D6000FD4F80838091CD0281608093CD0284E924
:100D70008093BC000BC085EA8093BC0007C08091C3
:100D8000B9008093060284E08093BC00FF91EF914C
:100D9000BF91AF919F918F913F912F910F900BBE7B
:100DA0000F900FBE0F901F901895CF93DF9300D038
:100DB000CDB7DEB790E599831A828B8363E0CE01CD
:100DC00001960E94F9058FE99FE00197F1F700C0B5
:100DD00000000F900F900F90DF91CF910895E2E007
:100DE000F1E080818F7D80838081877F80832AE608
:100DF0002A95F1F700C0A6E0B1E08C9190E0982F21
:100E000088272081286020832AE62A95F1F700C0F0
:100E10003C91208120622083832B0895E2E0F1E061
:100E200080818F7B80838AE68A95F1F700C080817C
:100E300080648083089510920701E1E0F1E08081F1
:100E40008A678083E2E0F1E08081806180830E9494
:100E50000E0780E00E94D5061092D40208958823E0
:100E600031F0E2E0F1E08081826080830895E2E089
:100E7000F1E080818D7F80830895CF93DF938B3F56
:100E80002FEF920784F4CC27DD27C61BD70B8C17D6
:100E90009D070CF4EC0180E00E942F078C2F8195B8
:100EA0000E94D50612C08630910564F0EC018617C9
:100EB00097070CF4EB0181E00E942F078C2F0E9412
:100EC000D50603C080E00E94D506DF91CF9108953A
:100ED000CF93DF939B01C6EDD2E01C821D821E8260
:100EE0001F821B821A8219821882998788877B87C2
:100EF0006A875D874C87BC016F5F7F4F8FEF9FE7ED
:100F00000E94EE087F876E872F5F3F4F032E000CF5
:100F1000440B550B6FEF7FEF8FEF9FE30E940209A9
:100F2000288B398B4A8B5B8B82E390E09D8B8C8B7B
:100F3000DF91CF9108959093D7028093D6020895C0
:100F40009093EB028093EA0208951092DA021092D5
:100F5000DB021092DC021092DD02089561E00E9433
:100F60006304089581E00E94E304089581E00E94F3
:100F7000000508958091D6029091D7020895CF92EE
:100F8000DF92EF92FF920F931F93CF93DF930E9414
:100F9000EF06FC01CC27DD27C81BD90BA6EDB2E07C
:100FA0004D915C911197480F591F1E968D919C9100
:100FB0001F978417950794F091958195910948178B
:100FC00059077CF08091DE029091DF02489F8001FA
:100FD000499F100D589F100D112405C00FEF1FE7FA
:100FE00002C001E010E8A6EDB2E0052E000C660B91
:100FF000770B1496CD90DD90ED90FC9017979A01A9
:10100000AB012C0D3D1D4E1D5F1D50968D919D9188
:101010000D90BC91A02D82179307A407B5076CF41F
:101020008093DA029093DB02A093DC02B093DD029E
:101030004FEF5FEF6FEF7FE329C0CC24DD24760113
:10104000C81AD90AEA0AFB0A2C153D054E055F05A8
:101050006CF48093DA029093DB02A093DC02B093ED
:10106000DD0241E050E060E070EC10C0A6EDB2E0BF
:1010700014962D933D934D935C9317971A960D906C
:10108000BC91A02D0E942909AB01BC01A6EDB2E0E4
:1010900012968D919C911397E80FF91F1C962D9134
:1010A0003C911D97E29FC001E39F900DF29F900D30
:1010B00011241396DC93CE931297012E000C220B71
:1010C000330B400F511F621F731F092E000CAA0B18
:1010D000BB0B480F591F6A1F7B1FDB01CA01772317
:1010E00024F481589F4FAF4FBF4F689416F8B595C1
:1010F000A795979587951694D1F7813020E89207A8
:101100002FEFA207B20724F481E090E8AFEFBFEF22
:10111000811520E89207A105B10524F08FEF9FE724
:10112000A0E0B0E08093D5026091EA027091EB02FA
:101130000E943D07DF91CF911F910F91FF90EF909B
:10114000DF90CF900895749A0895749808956C9ADA
:101150001092EC020E94A308089581E08093EC02B3
:101160000E94A5082FE789EA93E021508040904033
:10117000E1F700C000000E94A30808958091EC02EE
:1011800008951092EC02089587E690E00E940C0109
:1011900085B7806885BF89E992E00E94170C0E949C
:1011A00044010E94BB010E94E8010E9463030E9467
:1011B00002040E944D040E94A7080E94E3050E94B9
:1011C0001B0744E050E060E070E084E090E00E94A3
:1011D000680789EA92E00E94170C089597FB072E92
:1011E00016F4009407D077FD09D00E94310907FC5E
:1011F00005D03EF4909581959F4F08957095619527
:101200007F4F0895052E97FB1EF400940E94190944
:1012100057FD07D00E94450907FC03D04EF40C94FB
:10122000190950954095309521953F4F4F4F5F4F8D
:10123000089590958095709561957F4F8F4F9F4F42
:101240000895EE0FFF1F881F8BBF0790F691E02DCA
:101250001994B7FF0C9467090E946709821B930BCE
:101260000895AA1BBB1B51E107C0AA1FBB1FA617ED
:10127000B70710F0A61BB70B881F991F5A95A9F73F
:1012800080959095BC01CD010895A1E21A2EAA1B6C
:10129000BB1BFD010DC0AA1FBB1FEE1FFF1FA21726
:1012A000B307E407F50720F0A21BB30BE40BF50B23
:1012B000661F771F881F991F1A9469F760957095AC
:1012C000809590959B01AC01BD01CF0108950E94CE
:1012D0007209A59F900DB49F900DA49F800D911D44
:1012E00011240895A29FB001B39FC001A39F700D68
:1012F000811D1124911DB29F700D811D1124911D1E
:1013000008955058BB27AA270E9499090C940C0BEA
:101310000E94FE0A38F00E94050B20F039F49F3F2E
:1013200019F426F40C94FB0A0EF4E095E7FB0C94F8
:10133000F50AE92F0E941D0B58F3BA1762077307CD
:101340008407950720F079F4A6F50C943F0B0EF472
:10135000E0950B2EBA2FA02D0B01B90190010C01C5
:10136000CA01A0011124FF27591B99F0593F50F4DD
:10137000503E68F11A16F040A22F232F342F442735
:10138000585FF3CF469537952795A795F04053952D
:10139000C9F77EF41F16BA0B620B730B840BBAF0FD
:1013A0009150A1F0FF0FBB1F661F771F881FC2F768
:1013B0000EC0BA0F621F731F841F48F4879577957C
:1013C0006795B795F7959E3F08F0B0CF9395880F36
:1013D00008F09927EE0F9795879508950E94D10AF6
:1013E00008F481E008950E94070A0C940C0B0E94F7
:1013F000050B58F00E94FE0A40F029F45F3F29F0E7
:101400000C94F50A51110C94400B0C94FB0A0E94A9
:101410001D0B68F39923B1F3552391F3951B550BDD
:10142000BB27AA2762177307840738F09F5F5F4FB7
:10143000220F331F441FAA1FA9F335D00E2E3AF0F6
:10144000E0E832D091505040E695001CCAF72BD00E
:10145000FE2F29D0660F771F881FBB1F261737075F
:101460004807AB07B0E809F0BB0B802DBF01FF2791
:1014700093585F4F3AF09E3F510578F00C94F50A6F
:101480000C94400B5F3FE4F3983ED4F38695779538
:101490006795B795F7959F5FC9F7880F911D96954A
:1014A000879597F90895E1E0660F771F881FBB1FA6
:1014B000621773078407BA0720F0621B730B840B53
:1014C000BA0BEE1F88F7E09508950E94250B88F06F
:1014D0009F5798F0B92F9927B751B0F0E1F0660FF8
:1014E000771F881F991F1AF0BA95C9F714C0B13039
:1014F00091F00E943F0BB1E008950C943F0B672FD1
:10150000782F8827B85F39F0B93FCCF38695779567
:101510006795B395D9F73EF4909580957095619550
:101520007F4F8F4F9F4F0895E89409C097FB3EF47B
:1015300090958095709561957F4F8F4F9F4F992320
:10154000A9F0F92F96E9BB279395F695879577959E
:101550006795B795F111F8CFFAF4BB0F11F460FF5E
:101560001BC06F5F7F4F8F4F9F4F16C0882311F0B6
:1015700096E911C0772321F09EE8872F762F05C0CA
:10158000662371F096E8862F70E060E02AF09A9565
:10159000660F771F881FDAF7880F9695879597F95A
:1015A0000895990F0008550FAA0BE0E8FEEF1616F4
:1015B0001706E807F907C0F012161306E407F50747
:1015C00098F0621B730B840B950B39F40A2661F0BB
:1015D000232B242B252B21F408950A2609F4A1405E
:1015E000A6958FEF811D811D089597F99F6780E86B
:1015F00070E060E008959FEF80EC089500240A9465
:101600001616170618060906089500240A941216DD
:101610001306140605060895092E0394000C11F410
:10162000882352F0BB0F40F4BF2B11F460FF04C0BD
:101630006F5F7F4F8F4F9F4F089557FD9058440F16
:10164000551F59F05F3F71F04795880F97FB991F21
:1016500061F09F3F79F087950895121613061406DE
:10166000551FF2CF4695F1DF08C01616170618066B
:10167000991FF1CF86957105610508940895E89446
:10168000BB2766277727CB0197F908950E94D10AD7
:1016900008F48FEF08950E945E0B0C940C0B0E94CF
:1016A000FE0A38F00E94050B20F0952311F00C94EF
:1016B000F50A0C94FB0A11240C94400B0E941D0B9C
:1016C00070F3959FC1F3950F50E0551F629FF00195
:1016D000729FBB27F00DB11D639FAA27F00DB11DAE
:1016E000AA1F649F6627B00DA11D661F829F222737
:1016F000B00DA11D621F739FB00DA11D621F839FBE
:10170000A00D611D221F749F3327A00D611D231F93
:10171000849F600D211D822F762F6A2F11249F57E1
:1017200050409AF0F1F088234AF0EE0FFF1FBB1FE4
:10173000661F771F881F91505040A9F79E3F5105A3
:1017400080F00C94F50A0C94400B5F3FE4F3983E54
:10175000D4F3869577956795B795F795E7959F5F4D
:10176000C1F7FE2B880F911D9695879597F90895DF
:101770000F931F93CF93DF93009731F46115710599
:1017800019F480E090E03AC08B01EC016EE070E06B
:1017900081E090E00E94420EFC01892B91F380E8E9
:1017A00083830115110571F01387028781E8838314
:1017B0008091ED029091EE02892B21F4F093EE02DC
:1017C000E093ED022097C9F0D187C08783818260C2
:1017D00083838091EF029091F002892B71F4F09352
:1017E000F002E093EF028091F1029091F202892BD6
:1017F00021F4F093F202E093F102CF01DF91CF9157
:101800001F910F910895CF93DF93CDB7DEB7AE014F
:101810004A5F5F4FFA0161917191AF018091EF02D0
:101820009091F0020E94470CDF91CF9108950F93A1
:101830001F93CF93DF93E091EF02F091F0022381A9
:1018400021FF1BC08C01D0E0C0E0F80181918F0125
:101850006091EF027091F002DB011896ED91FC911E
:101860001997882331F01995892B79F3DFEFCFEFA2
:10187000ECCF8AE01995892B19F08FEF9FEF02C00A
:101880008D2F9C2FDF91CF911F910F9108952F9253
:101890003F924F925F926F927F928F929F92AF9200
:1018A000BF92CF92DF92EF92FF920F931F93CF934D
:1018B000DF93CDB7DEB72C970FB6F894DEBF0FBE1F
:1018C000CDBF7C016B018A01FC01178216828381E6
:1018D00081FFBDC1CE0101964C01F7019381F60154
:1018E00093FD859193FF81916F01882309F4ABC12A
:1018F000853239F493FD859193FF81916F01853293
:1019000029F4B70190E00E94A80FE7CF512C312CA9
:1019100020E02032A0F48B3269F030F4803259F0AC
:10192000833269F420612CC08D3239F0803339F470
:10193000216026C02260246023C0286021C027FDCA
:1019400027C030ED380F3A3078F426FF06C0FAE0B1
:101950005F9E300D1124532E13C08AE0389E300D47
:101960001124332E20620CC08E3221F426FD6BC16F
:10197000206406C08C3611F4206802C0883641F419
:10198000F60193FD859193FF81916F018111C1CF84
:10199000982F9F7D9554933028F40C5F1F4FFFE3E1
:1019A000F9830DC0833631F0833771F0833509F048
:1019B0005BC022C0F801808189830E5F1F4F4424E1
:1019C0004394512C540115C03801F2E06F0E711C84
:1019D000F801A080B18026FF03C0652D70E002C031
:1019E0006FEF7FEFC5012C870E949D0F2C018301B3
:1019F0002C852F77222E17C03801F2E06F0E711C54
:101A0000F801A080B18026FF03C0652D70E002C000
:101A10006FEF7FEFC5012C870E948B0F2C012C8567
:101A20002068222E830123FC1BC0832D90E04816E2
:101A30005906B0F4B70180E290E00E94A80F3A94F2
:101A4000F4CFF50127FC859127FE81915F01B70155
:101A500090E00E94A80F31103A94F1E04F1A51081B
:101A60004114510471F7E5C0843611F0893639F517
:101A7000F80127FF07C060817181828193810C5F2B
:101A80001F4F08C060817181072E000C880B990BD5
:101A90000E5F1F4F2F76722E97FF09C0909580958D
:101AA000709561957F4F8F4F9F4F2068722E2AE06F
:101AB00030E0A4010E94E00FA82EA81844C085378A
:101AC00029F42F7EB22E2AE030E025C0F22FF97FD4
:101AD000BF2E8F36C1F018F4883579F0B4C0803746
:101AE00019F0883721F0AFC02F2F2061B22EB4FE3D
:101AF0000DC08B2D8460B82E09C024FF0AC09F2F13
:101B00009660B92E06C028E030E005C020E130E044
:101B100002C020E132E0F801B7FE07C060817181A8
:101B2000828193810C5F1F4F06C06081718180E0CC
:101B300090E00E5F1F4FA4010E94E00FA82EA8188E
:101B4000FB2DFF777F2E76FE0BC0372D3E7FA51431
:101B500050F474FE0AC072FC08C0372D3E7E05C0EA
:101B6000BA2C372D03C0BA2C01C0B52C34FF0DC0E0
:101B7000FE01EA0DF11D8081803311F4397E09C028
:101B800032FF06C0B394B39404C0832F867809F063
:101B9000B39433FD13C030FF06C05A2CB31418F4AD
:101BA000530C5B18B32CB31468F4B70180E290E0D7
:101BB0003C870E94A80FB3943C85F5CFB31410F472
:101BC0003B1801C0312C34FF12C0B70180E390E014
:101BD0003C870E94A80F3C8532FF17C031FD03C02F
:101BE00088E790E002C088E590E0B7010CC0832F41
:101BF000867859F031FF02C08BE201C080E237FDE8
:101C00008DE2B70190E00E94A80FA51438F4B70147
:101C100080E390E00E94A80F5A94F7CFAA94F401B1
:101C2000EA0DF11D8081B70190E00E94A80FA1107C
:101C3000F5CF332009F451CEB70180E290E00E9445
:101C4000A80F3A94F6CFF7018681978102C08FEFF3
:101C50009FEF2C960FB6F894DEBF0FBECDBFDF917D
:101C6000CF911F910F91FF90EF90DF90CF90BF9099
:101C7000AF909F908F907F906F905F904F903F902C
:101C80002F9008950F931F93CF93DF93869F80012A
:101C9000879F100D969F100D1124C8010E945E0EA3
:101CA000EC01009729F0A80160E070E00E94960F17
:101CB000CE01DF91CF911F910F910895CF93DF93C4
:101CC0008230910510F482E090E0E091F502F0910D
:101CD000F60220E030E0C0E0D0E0309711F1408122
:101CE000518148175907C0F04817590761F482819C
:101CF0009381209719F09B838A832BC09093F602DF
:101D00008093F50226C02115310519F042175307BB
:101D100018F49A01BE01DF01EF010280F381E02D8A
:101D2000DCCF2115310509F1281B390B2430310591
:101D300090F412968D919C9113976115710521F085
:101D4000FB019383828304C09093F6028093F50293
:101D5000FD01329644C0FD01E20FF31F8193919380
:101D6000225031092D933C933AC02091F3023091D7
:101D7000F402232B41F42091090230910A0230939E
:101D8000F4022093F30220910702309108022115FA
:101D9000310541F42DB73EB740910B0250910C0232
:101DA000241B350BE091F302F091F402E217F307E4
:101DB000A0F42E1B3F0B2817390778F0AC014E5FBB
:101DC0005F4F2417350748F04E0F5F1F5093F40202
:101DD0004093F3028193919302C0E0E0F0E0CF01E1
:101DE000DF91CF9108950F931F93CF93DF930097C7
:101DF00009F48CC0FC013297138212820091F50223
:101E00001091F6020115110581F420813181820FB4
:101E1000931F2091F3023091F4022817390779F5C6
:101E2000F093F402E093F30271C0D80140E050E077
:101E3000AE17BF0750F412962D913C911397AD0148
:101E40002115310509F1D901F3CF9D01DA01338361
:101E5000228360817181860F971F8217930769F42F
:101E6000EC0128813981260F371F2E5F3F4F3183C8
:101E700020838A819B8193838283452B29F4F0936D
:101E8000F602E093F50242C01396FC93EE9312978C
:101E9000ED01499159919E01240F351FE217F30777
:101EA00071F480819181840F951F029611969C9305
:101EB0008E938281938113969C938E931297E0E088
:101EC000F0E0D80112968D919C911397009719F02C
:101ED000F8018C01F6CF8D919C9198012E5F3F4FB8
:101EE000820F931F2091F3023091F40228173907D3
:101EF00069F4309729F41092F6021092F50202C0AC
:101F0000138212821093F4020093F302DF91CF91B7
:101F10001F910F910895FC010590615070400110D0
:101F2000D8F7809590958E0F9F1F0895DC0101C012
:101F30006D9341505040E0F70895FC0161507040AE
:101F400001900110D8F7809590958E0F9F1F0895EE
:101F50000F931F93CF93DF93FB01238121FD03C0D8
:101F60008FEF9FEF28C022FF16C046815781248142
:101F700035814217530744F4A081B1819D012F5F41
:101F80003F4F318320838C93268137812F5F3F4FD2
:101F90003783268310C0EB01092F182F0084F185A9
:101FA000E02D1995892BE1F68E819F8101969F8303
:101FB0008E83812F902FDF91CF911F910F910895E4
:101FC000FA01AA27283051F1203181F1E8946F936A
:101FD0006E7F6E5F7F4F8F4F9F4FAF4FB1E03ED010
:101FE000B4E03CD0670F781F891F9A1FA11D680FAE
:101FF000791F8A1F911DA11D6A0F711D811D911DE1
:10200000A11D20D009F468943F912AE0269F112455
:102010003019305D3193DEF6CF010895462F4770B9
:10202000405D4193B3E00FD0C9F7F6CF462F4F7014
:10203000405D4A3318F0495D31FD4052419302D072
:10204000A9F7EACFB4E0A695979587957795679518
:10205000BA95C9F700976105710508959B01AC0118
:102060000A2E06945795479537952795BA95C9F73F
:10207000620F731F841F951FA01D0895F894FFCF52
:10208000010001000300F80000F702200053746112
:102090007274696E672E2E2E00426C7565746F6FB8
:1020A00074682120256400494E56414C494420491A
:1020B000442054494D4552205345542050455249DF
:1020C0004F444500494E56414C4944204944205410
:1020D000494D455220494E495400494E56414C49BC
:1020E000442049442054494D4552205354415254B0
:1020F00000494E56414C49442049442054494D45DD
:10210000522053544F5000616C72656164795F676F
:102110006F616C3A2025640A00496E697469616CCC
:10212000697A696E672E2E2E00496E697469616C3A
:06213000697A65642100DC
:00000001FF
