:100000000C94D7000C94F8000C94F8000C94E302C4
:100010000C94F8000C94F8000C94F8000C94F80080
:100020000C94F8000C94F8000C94F8000C94F80070
:100030000C94F8000C94F8000C94F8000C94F80060
:100040000C94F8000C94E4040C94F8000C94F80060
:100050000C94F8000C94F8000C94F8000C94F80040
:100060000C94F8000C94F8000C94F8000C94F80030
:100070000C94F8000C94F8000C94F8000C94F80020
:100080000C94F8000C94F8000C94F8000C94F80010
:100090000C94F8000C94F8000C94F8000C94F10502
:1000A0000C94F8000C94F8000C940F050C94F800D4
:1000B0000C94F8000C94F8000C94F8000C94F800E0
:1000C0000C94F8000C94F8000C94F8000C94F800D0
:1000D0000C94F8000C94F8000C94F8000C94F800C0
:1000E0000C94F8001006620662066206620662065A
:1000F0006206620610066206620662066206620612
:1001000062066206120662066206620662066206FF
:10011000620662066206620662066206620662069F
:1001200062066206120662066206620662066206DF
:10013000620662066206620662066206620662067F
:10014000620662065E066206620662066206620673
:10015000620662063B066206620662066206620686
:10016000620662066206620662066206620662064F
:10017000620662062F066206620662066206620672
:10018000620662064D060C943B060C948C010C949E
:1001900062060C944D060C9412060C942F060C94D7
:1001A0005E060C9410060C9476010C945B051124E9
:1001B0001FBECFEFD1E2DEBFCDBF00E00CBF12E02B
:1001C000A0E0B2E0E6E5FFE100E00BBF02C007906F
:1001D0000D92AA39B107D9F722E0AAE9B2E001C02D
:1001E0001D92A93DB207E1F70E94FA000C94A90FF5
:1001F0000C94000087E690E00E945B0185B7806860
:1002000085BF87E092E00E94820B0E9492010E94CB
:1002100009020E9436020E9474030E9400040E9498
:100220001C040E943A050E943C080E9486050E9418
:10023000BE0642E050E060E070E085E090E00E94A1
:100240000A070F2EFEE1EF2EF2E0FF2EF02D08E25E
:1002500012E0C1E3D2E083E192E00E94820B0E94AF
:100260004E051F928F93FF92EF920E946E0B0E9499
:1002700092069F938F931F930F930E946E0B0E9481
:1002800053079F938F93DF93CF930E946E0B9FEF43
:1002900021EE84E0915020408040E1F700C0000052
:1002A0008DB79EB70C960FB6F8949EBF0FBE8DBF4C
:1002B0000E945807D0CF9093C5008093C4008EE071
:1002C0008093C2001092C00088E18093C1006CE866
:1002D00071E086E791E00E94230B0895E0ECF0E0E6
:1002E000908195FFFDCF8093C6000895CF93C82FCE
:1002F0008A3019F48DE00E946E018C2F0E946E01ED
:1003000080E090E0CF910895E0ECF0E080818823D8
:10031000ECF78091C60008950E948401082E000C1D
:10032000990B089584B1866884B9209A23988CB576
:1003300081658CBD08958EBD0DB407FEFDCF8EB5D1
:100340000895882311F02F9A08952F980895CF9338
:10035000C82F80E00E94A10183E00E949B018C2FA6
:100360000E949B0180E00E949B01C82F81E00E94B7
:10037000A1018C2FCF910895CF93DF93D82FC62F53
:1003800080E00E94A10182E00E949B018D2F0E94CB
:100390009B018C2F0E949B0181E00E94A101DF91B3
:1003A000CF91089580E00E94A10181E80E949B0105
:1003B00081E00E94A1010895CF9380E00E94A101F5
:1003C00080EA0E949B0180E00E949B01C82F81E08F
:1003D0000E94A1018C2FCF9108951F93CF93DF939B
:1003E000182FD62FC42F80E00E94A10185E00E9423
:1003F0009B01812F0E949B018D2F0E949B018C2FBE
:100400000E949B0181E00E94A101DF91CF911F9189
:10041000089580E00E94A10180EC0E949B0181E090
:100420000E94A10108955298F894EA9AEAE6F0E051
:10043000808182608083789410929A0240E061E02B
:100440008BE20E94ED014FEF61E08BE20E94ED0133
:1004500040E061E08CE20E94ED018CE20E94A70185
:1004600080FF03C081E080939A0208950E940902F0
:1004700010929A028EE00E94A70180FF05C040E81A
:1004800060EE8FE00E94ED010E94130240E060EEFA
:100490008FE00E94ED010895EF92FF920F931F935A
:1004A000CF93DF937C0106C08FE99FE00197F1F7BE
:1004B00000C0000080E30E94A70183FDF5CFF70193
:1004C000608166956695669581E30E94BC01F7019F
:1004D00060816295660F607E82E30E94BC01F70135
:1004E00061816F7085E30E94BC01F70181818823DF
:1004F00099F087010E5F1F4FC0E0D0E0F8016191D5
:100500008F018C2F8A5C0E94BC012196F70121810A
:1005100030E0C217D30794F34FEF6BE080E30E9403
:10052000ED01DF91CF911F910F91FF90EF90089512
:10053000EF92FF920F931F93CF93DF937C018CE296
:100540000E94A70180FD04C080919A028823A1F136
:1005500081E60E94A701880F880F880FF70180832A
:1005600082E60E94A701829586958770F7019081A7
:10057000892B808385E60E94A7018F70F701818314
:10058000882399F087010E5F1F4FC0E0D0E08C2FC9
:100590008A590E94A701F80181938F012196F701E2
:1005A000218130E0C217D30794F340E061E08CE290
:1005B0000E94ED0110929A02DF91CF911F910F914D
:1005C000FF90EF9008951F920F920FB60F92112493
:1005D0000BB60F922F933F934F935F936F937F933D
:1005E0008F939F93AF93BF93EF93FF93CF93DF933B
:1005F000CDB7DEB72A97DEBFCDBFF8948CE20E945C
:10060000A70180FF03C081E080939A0240E061E08F
:100610008CE20E94ED01CE0101960E949802898130
:10062000811119C08B810E94AF038E8128E2829FC5
:10063000C00111240E9439078F81882351F00E9444
:100640005308811103C00E94420805C08F818111A7
:1006500002C00E9456082A960FB6F894DEBF0FBE5D
:10066000CDBFDF91CF91FF91EF91BF91AF919F915E
:100670008F917F916F915F914F913F912F910F904B
:100680000BBE0F900FBE0F901F901895EBE9F2E094
:10069000A5EAB2E08C91828311968C9111978383A5
:1006A00012968C911297848313968C91139785835D
:1006B00014968C9186830895E5EAF2E0ABE9B2E006
:1006C00012968C911297808313968C911397818345
:1006D00014968C911497828315968C911597838329
:1006E00016968C9184830895EBE9F2E0108285E000
:1006F0008183EDE9F2E085EA92E01192E817F907CB
:10070000E1F7E5EAF2E0108211821282138214828C
:100710000895CF93DF9300D01F921F92CDB7DEB71D
:100720008BE992E00E9498020E945C0385E0E5EA72
:10073000F2E0DE01119601900D928A95E1F7298190
:100740003A814B815C816D8170E080E090E00F9098
:100750000F900F900F900F90DF91CF910895CF924F
:10076000DF92EF92FF928B350CF08AE5682F863A84
:100770000CF466EA062E000C770B880B990B0E948E
:10078000010A20E030E044E353E40E945E099B014B
:10079000AC0160E070E080EC9FE30E94EC086B012C
:1007A0007C0120E030E040E050E40E945909181636
:1007B00014F120E030E040E85FE3C701B6010E9499
:1007C000B10A8823C4F0609196007091970080E090
:1007D00090E00E94FF09A70196010E94B60A20E05E
:1007E00030E040EA51E40E945E090E94D009709313
:1007F000990060939800FF90EF90DF90CF9008955C
:10080000F8946B9AE0E9F0E080E880838081826070
:100810008083E1E9F0E0808188618083808182606B
:1008200080838FE39CE9909397008093960078945F
:1008300080E00E94AF03089510927B0080E48093D3
:100840007C0080E880937A000895EAE7F0E08081F8
:1008500080648083808186FDFDCF809178009091B7
:1008600079000895613021F5BC0180E090E00E949C
:10087000FF092FE632E143E85AE30E94B60A20E07E
:1008800034E244E75BE40E94B60A20E030E040E056
:100890005BE30E94B60A20E030E040E85FE30E949C
:1008A000EC080E94D0097093890060938800089535
:1008B000623021F5BC0180E090E00E94FF092FE644
:1008C00032E143E85AE30E94B60A20E034E244E70A
:1008D0005BE40E94B60A20E030E040E05BE30E9467
:1008E000B60A20E030E040E85FE30E94EC080E9496
:1008F000D0097093A9006093A80008958AE392E05C
:100900000E94820B0895F894813079F4109280004F
:1009100098E090938100EFE6F0E090819260908300
:100920007093AD026093AC0216C0823079F41092DD
:10093000A00098E09093A100E2E7F0E0908192603F
:1009400090837093AB026093AA0205C087E592E0A2
:100950000E94820B08957894682F84E690E00E94AC
:1009600032040895813051F4109285001092840071
:10097000E1E8F0E08081846080830895823051F462
:100980001092A5001092A400E1EAF0E0808184605A
:10099000808308958DE692E00E94820B0895813055
:1009A00031F4E1E8F0E08081887F8083089582302F
:1009B00031F4E1EAF0E08081887F8083089584E863
:1009C00092E00E94820B08951F920F920FB60F9231
:1009D00011240BB60F922F933F934F935F936F9316
:1009E0007F938F939F93AF93BF93EF93FF93E09188
:1009F000AC02F091AD021995FF91EF91BF91AF91CB
:100A00009F918F917F916F915F914F913F912F9126
:100A10000F900BBE0F900FBE0F901F9018951F9256
:100A20000F920FB60F9211240BB60F922F933F9394
:100A30004F935F936F937F938F939F93AF93BF93E6
:100A4000EF93FF93E091AA02F091AB021995FF9109
:100A5000EF91BF91AF919F918F917F916F915F9136
:100A60004F913F912F910F900BBE0F900FBE0F90A3
:100A70001F9018951092B0021092AF021092AE0221
:100A80006BE575E082E00E94830462E082E390E01F
:100A90000E94320482E00E94B20408958091B00264
:100AA00008950E94250421E030E0C29710F020E074
:100AB00030E0C90108950E945105892BB9F0809159
:100AC000AE029091AF02892B01F58091B0028F5F49
:100AD0008093B00262E084EF91E00E94320481E0F2
:100AE00090E09093AF028093AE0208958091AE02A1
:100AF0009091AF02892B49F01092AF021092AE0292
:100B000062E082E390E00E94320408958CE08093DA
:100B1000B8008FEF8093BB0084E08093BC00089501
:100B20008091BC0081700895ECEBF0E0808180FD45
:100B3000FDCF809100020895CF93DF93EC01ECEBA1
:100B4000F0E0908190FDFDCF6093B3029881909387
:100B5000B40290FD13C0623088F0FE013196A5EB1F
:100B6000B2E06250262F30E02E5F3F4FCE01820F61
:100B7000931F21912D93E817F907D9F71092B1022D
:100B800088EF8093000285EA8093BC00DF91CF91CB
:100B90000895ECEBF0E0808180FDFDCF1092B10272
:100BA00088EF8093000285EA8093BC000895ECEB07
:100BB000F0E0208120FDFDCF2091B10220FF0DC08B
:100BC000662359F024EB32E0A82FB92FF901819167
:100BD0008D938E2F821B8617D0F38091B102817086
:100BE00008951F920F920FB60F9211240BB60F9219
:100BF0002F933F938F939F93AF93BF93EF93FF9365
:100C0000E091B9008E2F90E0FC013897E135F105B5
:100C100008F058C08827EE58FF4F8F4F0C948C086F
:100C20001092B202E091B2028091B302E81770F420
:100C300081E08E0F8093B202F0E0EC54FD4F808192
:100C40008093BB0085E88093BC0043C08091B102D3
:100C500081608093B10284E98093BC003AC0E09146
:100C6000B20281E08E0F8093B2028091BB00F0E06F
:100C7000EC54FD4F80832091B20230E08091B302AA
:100C800090E001972817390724F485EC8093BC0085
:100C900020C085E88093BC001CC08091BB00E0911F
:100CA000B202F0E0EC54FD4F80838091B10281608C
:100CB0008093B10284E98093BC000BC085EA8093E5
:100CC000BC0007C08091B9008093000284E080934B
:100CD000BC00FF91EF91BF91AF919F918F913F9198
:100CE0002F910F900BBE0F900FBE0F901F90189575
:100CF000CF93DF9300D0CDB7DEB790E599831A820A
:100D00008B8363E0CE0101960E949C058FE99FE0F2
:100D10000197F1F700C000000F900F900F90DF9146
:100D2000CF910895E2E0F1E080818F7D8083808122
:100D3000877F80832AE62A95F1F700C0A6E0B1E01C
:100D40008C9190E0982F88272081286020832AE6C4
:100D50002A95F1F700C03C91208120622083832BEB
:100D60000895E2E0F1E080818F7B80838AE68A95B6
:100D7000F1F700C08081806480830895109207019C
:100D8000E1E0F1E080818A678083E2E0F1E0808148
:100D9000806180830E94B10680E00E9478061092F4
:100DA000B8020895882331F0E2E0F1E080818260AA
:100DB00080830895E2E0F1E080818D7F8083089553
:100DC000CF93DF93EC01CB3F8FEFD80774F4CB3B8D
:100DD0008FEFD80714F0CAEBDFEF80E00E94D20655
:100DE0008C2F81950E94780612C0C630D10564F020
:100DF000C634D10514F4C6E4D0E081E00E94D206E6
:100E00008C2F0E94780603C080E00E947806DF9154
:100E1000CF910895CF93DF939B01CAEBD2E01C8260
:100E20001D821E821F821B821A8219821882998754
:100E300088877B876A875D874C87BC016F5F7F4FA0
:100E40008FEF9FE70E9459087F876E872F5F3F4F84
:100E5000032E000C440B550B6FEF7FEF8FEF9FE3DA
:100E60000E946D08288B398B4A8B5B8BDF91CF9169
:100E700008959093BB028093BA0208951092BE0227
:100E80001092BF021092C0021092C102089561E058
:100E90000E943204089581E00E94B204089581E026
:100EA0000E94CF0408958091BA029091BB020895E8
:100EB000CF92DF92EF92FF920F931F93CF93DF9326
:100EC0000E949206FC01CC27DD27C81BD90BAAEB98
:100ED000B2E04D915C911197480F591F1E968D916C
:100EE0009C911F978417950794F09195819591098E
:100EF000481759077CF08091C2029091C302489F25
:100F00008001499F100D589F100D112405C00FEF4F
:100F10001FE702C001E010E8AAEBB2E0052E000CCA
:100F2000660B770B1496CD90DD90ED90FC901797A3
:100F30009A01AB012C0D3D1D4E1D5F1D50968D91EC
:100F40009D910D90BC91A02D82179307A407B50722
:100F50006CF48093BE029093BF02A093C002B09342
:100F6000C1024FEF5FEF6FEF7FE329C0CC24DD2498
:100F70007601C81AD90AEA0AFB0A2C153D054E0566
:100F80005F056CF48093BE029093BF02A093C002F1
:100F9000B093C10241E050E060E070EC10C0AAEBF9
:100FA000B2E014962D933D934D935C9317971A9648
:100FB0000D90BC91A02D0E949408AB01BC01AAEB3E
:100FC000B2E012968D919C911397E80FF91F1C9631
:100FD0002D913C911D97E29FC001E39F900DF29FE0
:100FE000900D11241396DC93CE931297012E000CD2
:100FF000220B330B400F511F621F731F092E000C71
:10100000AA0BBB0B480F591F6A1F7B1FDB01CA01CC
:10101000772324F481589F4FAF4FBF4F689416F841
:10102000B595A795979587951694D1F7813020E8C7
:1010300092072FEFA207B20724F481E090E8AFEF08
:10104000BFEF811520E89207A105B10524F08FEFCD
:101050009FE7A0E0B0E08093B9020E94E006DF9134
:10106000CF911F910F91FF90EF90DF90CF90089557
:10107000749A0895749808956C9A1092CE020E9402
:101080003808089581E08093CE020E943A082FE745
:1010900089EA93E0215080409040E1F700C00000D1
:1010A0000E94380808958091CE0208951092CE02D1
:1010B000089597FB072E16F4009407D077FD09D00A
:1010C0000E949C0807FC05D03EF4909581959F4FA7
:1010D0000895709561957F4F0895052E97FB1EF436
:1010E00000940E94840857FD07D00E94B00807FCB6
:1010F00003D04EF40C94840850954095309521957A
:101100003F4F4F4F5F4F0895909580957095619533
:101110007F4F8F4F9F4F0895EE0FFF1F881F8BBF8C
:101120000790F691E02D1994B7FF0C94D2080E9415
:10113000D208821B930B0895AA1BBB1B51E107C069
:10114000AA1FBB1FA617B70710F0A61BB70B881F57
:10115000991F5A95A9F780959095BC01CD010895E6
:10116000A1E21A2EAA1BBB1BFD010DC0AA1FBB1FAB
:10117000EE1FFF1FA217B307E407F50720F0A21B1D
:10118000B30BE40BF50B661F771F881F991F1A948A
:1011900069F760957095809590959B01AC01BD01B4
:1011A000CF0108950E94DD08A59F900DB49F900D7A
:1011B000A49F800D911D11240895A29FB001B39F9B
:1011C000C001A39F700D811D1124911DB29F700D50
:1011D000811D1124911D08955058BB27AA270E94F4
:1011E00004090C94770A0E94690A38F00E94700A78
:1011F00020F039F49F3F19F426F40C94660A0EF49B
:10120000E095E7FB0C94600AE92F0E94880A58F3E6
:10121000BA17620773078407950720F079F4A6F5DB
:101220000C94AA0A0EF4E0950B2EBA2FA02D0B01F8
:10123000B90190010C01CA01A0011124FF27591B1B
:1012400099F0593F50F4503E68F11A16F040A22F21
:10125000232F342F4427585FF3CF46953795279592
:10126000A795F0405395C9F77EF41F16BA0B620B91
:10127000730B840BBAF09150A1F0FF0FBB1F661FD8
:10128000771F881FC2F70EC0BA0F621F731F841F1B
:1012900048F4879577956795B795F7959E3F08F041
:1012A000B0CF9395880F08F09927EE0F9795879503
:1012B00008950E943C0A08F481E008950E94720992
:1012C0000C94770A0E94700A58F00E94690A40F054
:1012D00029F45F3F29F00C94600A51110C94AB0A79
:1012E0000C94660A0E94880A68F39923B1F3552387
:1012F00091F3951B550BBB27AA2762177307840729
:1013000038F09F5F5F4F220F331F441FAA1FA9F3BE
:1013100035D00E2E3AF0E0E832D091505040E695AC
:10132000001CCAF72BD0FE2F29D0660F771F881F0D
:10133000BB1F261737074807AB07B0E809F0BB0B00
:10134000802DBF01FF2793585F4F3AF09E3F510514
:1013500078F00C94600A0C94AB0A5F3FE4F3983E7B
:10136000D4F3869577956795B795F7959F5FC9F7FD
:10137000880F911D9695879597F90895E1E0660F7E
:10138000771F881FBB1F621773078407BA0720F0F7
:10139000621B730B840BBA0BEE1F88F7E095089560
:1013A0000E94900A88F09F5798F0B92F9927B7515B
:1013B000B0F0E1F0660F771F881F991F1AF0BA95F9
:1013C000C9F714C0B13091F00E94AA0AB1E00895A3
:1013D0000C94AA0A672F782F8827B85F39F0B93F95
:1013E000CCF3869577956795B395D9F73EF49095AC
:1013F0008095709561957F4F8F4F9F4F0895E8942A
:1014000009C097FB3EF490958095709561957F4F4C
:101410008F4F9F4F9923A9F0F92F96E9BB279395FA
:10142000F695879577956795B795F111F8CFFAF40A
:10143000BB0F11F460FF1BC06F5F7F4F8F4F9F4F3B
:1014400016C0882311F096E911C0772321F09EE899
:10145000872F762F05C0662371F096E8862F70E0FF
:1014600060E02AF09A95660F771F881FDAF7880FD9
:101470009695879597F90895990F0008550FAA0B2F
:10148000E0E8FEEF16161706E807F907C0F0121697
:101490001306E407F50798F0621B730B840B950B9A
:1014A00039F40A2661F0232B242B252B21F40895EF
:1014B0000A2609F4A140A6958FEF811D811D08958C
:1014C00097F99F6780E870E060E008959FEF80ECF7
:1014D000089500240A94161617061806090608959A
:1014E00000240A9412161306140605060895092E00
:1014F0000394000C11F4882352F0BB0F40F4BF2B6F
:1015000011F460FF04C06F5F7F4F8F4F9F4F0895AE
:1015100057FD9058440F551F59F05F3F71F04795A4
:10152000880F97FB991F61F09F3F79F08795089589
:10153000121613061406551FF2CF4695F1DF08C0A8
:10154000161617061806991FF1CF869571056105C5
:1015500008940895E894BB2766277727CB0197F96D
:1015600008950E943C0A08F48FEF08950E94C90A6A
:101570000C94770A0E94690A38F00E94700A20F0E1
:10158000952311F00C94600A0C94660A11240C94B3
:10159000AB0A0E94880A70F3959FC1F3950F50E043
:1015A000551F629FF001729FBB27F00DB11D639F15
:1015B000AA27F00DB11DAA1F649F6627B00DA11DBB
:1015C000661F829F2227B00DA11D621F739FB00D61
:1015D000A11D621F839FA00D611D221F749F3327D1
:1015E000A00D611D231F849F600D211D822F762F6A
:1015F0006A2F11249F5750409AF0F1F088234AF047
:10160000EE0FFF1FBB1F661F771F881F91505040B2
:10161000A9F79E3F510580F00C94600A0C94AB0A28
:101620005F3FE4F3983ED4F3869577956795B79539
:10163000F795E7959F5FC1F7FE2B880F911D969553
:10164000879597F908950F931F93CF93DF93009792
:1016500031F46115710519F480E090E03AC08B0116
:10166000EC016EE070E081E090E00E94AD0DFC01C5
:10167000892B91F380E883830115110571F013879D
:10168000028781E883838091CF029091D002892BD9
:1016900021F4F093D002E093CF022097C9F0D187D4
:1016A000C0878381826083838091D1029091D2022E
:1016B000892B71F4F093D202E093D1028091D3028E
:1016C0009091D402892B21F4F093D402E093D302B9
:1016D000CF01DF91CF911F910F910895CF93DF93A9
:1016E000CDB7DEB7AE014A5F5F4FFA0161917191EC
:1016F000AF018091D1029091D2020E94B20BDF9192
:10170000CF9108950F931F93CF93DF93E091D10270
:10171000F091D202238121FF1BC08C01D0E0C0E0F8
:10172000F80181918F016091D1027091D202DB01A9
:101730001896ED91FC911997882331F01995892B12
:1017400079F3DFEFCFEFECCF8AE01995892B19F011
:101750008FEF9FEF02C08D2F9C2FDF91CF911F91B4
:101760000F9108952F923F924F925F926F927F92C6
:101770008F929F92AF92BF92CF92DF92EF92FF92A1
:101780000F931F93CF93DF93CDB7DEB72C970FB690
:10179000F894DEBF0FBECDBF7C016B018A01FC0156
:1017A00017821682838181FFBDC1CE0101964C0153
:1017B000F7019381F60193FD859193FF81916F016C
:1017C000882309F4ABC1853239F493FD859193FFE9
:1017D00081916F01853229F4B70190E00E94130FC7
:1017E000E7CF512C312C20E02032A0F48B3269F06D
:1017F00030F4803259F0833269F420612CC08D328C
:1018000039F0803339F4216026C02260246023C07F
:10181000286021C027FD27C030ED380F3A3078F41A
:1018200026FF06C0FAE05F9E300D1124532E13C030
:101830008AE0389E300D1124332E20620CC08E3287
:1018400021F426FD6BC1206406C08C3611F420689B
:1018500002C0883641F4F60193FD859193FF819192
:101860006F018111C1CF982F9F7D9554933028F43B
:101870000C5F1F4FFFE3F9830DC0833631F08337D0
:1018800071F0833509F05BC022C0F8018081898343
:101890000E5F1F4F44244394512C540115C038014E
:1018A000F2E06F0E711CF801A080B18026FF03C02A
:1018B000652D70E002C06FEF7FEFC5012C870E949D
:1018C000080F2C0183012C852F77222E17C0380199
:1018D000F2E06F0E711CF801A080B18026FF03C0FA
:1018E000652D70E002C06FEF7FEFC5012C870E946D
:1018F000F60E2C012C852068222E830123FC1BC0B0
:10190000832D90E048165906B0F4B70180E290E0CC
:101910000E94130F3A94F4CFF50127FC859127FE1E
:1019200081915F01B70190E00E94130F31103A944A
:10193000F1E04F1A51084114510471F7E5C08436A3
:1019400011F0893639F5F80127FF07C060817181F0
:10195000828193810C5F1F4F08C060817181072EC7
:10196000000C880B990B0E5F1F4F2F76722E97FF7E
:1019700009C090958095709561957F4F8F4F9F4FCF
:101980002068722E2AE030E0A4010E944B0FA82E9E
:10199000A81844C0853729F42F7EB22E2AE030E003
:1019A00025C0F22FF97FBF2E8F36C1F018F488358D
:1019B00079F0B4C0803719F0883721F0AFC02F2FED
:1019C0002061B22EB4FE0DC08B2D8460B82E09C0EC
:1019D00024FF0AC09F2F9660B92E06C028E030E091
:1019E00005C020E130E002C020E132E0F801B7FE9E
:1019F00007C060817181828193810C5F1F4F06C097
:101A00006081718180E090E00E5F1F4FA4010E9411
:101A10004B0FA82EA818FB2DFF777F2E76FE0BC04C
:101A2000372D3E7FA51450F474FE0AC072FC08C026
:101A3000372D3E7E05C0BA2C372D03C0BA2C01C00D
:101A4000B52C34FF0DC0FE01EA0DF11D80818033FD
:101A500011F4397E09C032FF06C0B394B39404C0B8
:101A6000832F867809F0B39433FD13C030FF06C08E
:101A70005A2CB31418F4530C5B18B32CB31468F439
:101A8000B70180E290E03C870E94130FB3943C853D
:101A9000F5CFB31410F43B1801C0312C34FF12C041
:101AA000B70180E390E03C870E94130F3C8532FF32
:101AB00017C031FD03C088E790E002C088E590E0E0
:101AC000B7010CC0832F867859F031FF02C08BE23A
:101AD00001C080E237FD8DE2B70190E00E94130F54
:101AE000A51438F4B70180E390E00E94130F5A94D4
:101AF000F7CFAA94F401EA0DF11D8081B70190E0BF
:101B00000E94130FA110F5CF332009F451CEB70175
:101B100080E290E00E94130F3A94F6CFF70186819D
:101B2000978102C08FEF9FEF2C960FB6F894DEBF1F
:101B30000FBECDBFDF91CF911F910F91FF90EF901E
:101B4000DF90CF90BF90AF909F908F907F906F90DD
:101B50005F904F903F902F9008950F931F93CF93D6
:101B6000DF93869F8001879F100D969F100D112493
:101B7000C8010E94C90DEC01009729F0A80160E09E
:101B800070E00E94010FCE01DF91CF911F910F9164
:101B90000895CF93DF938230910510F482E090E0B6
:101BA000E091D702F091D80220E030E0C0E0D0E030
:101BB000309711F14081518148175907C0F04817FB
:101BC000590761F482819381209719F09B838A835E
:101BD0002BC09093D8028093D70226C021153105DF
:101BE00019F04217530718F49A01BE01DF01EF0103
:101BF0000280F381E02DDCCF2115310509F1281B8E
:101C0000390B2430310590F412968D919C911397E5
:101C10006115710521F0FB019383828304C09093C9
:101C2000D8028093D702FD01329644C0FD01E20F35
:101C3000F31F81939193225031092D933C933AC025
:101C40002091D5023091D602232B41F4209103023A
:101C5000309104023093D6022093D50220910102E4
:101C6000309102022115310541F42DB73EB7409164
:101C7000050250910602241B350BE091D502F0912C
:101C8000D602E217F307A0F42E1B3F0B28173907E3
:101C900078F0AC014E5F5F4F2417350748F04E0FC8
:101CA0005F1F5093D6024093D5028193919302C057
:101CB000E0E0F0E0CF01DF91CF9108950F931F9303
:101CC000CF93DF93009709F48CC0FC013297138205
:101CD00012820091D7021091D8020115110581F4EA
:101CE00020813181820F931F2091D5023091D6023D
:101CF0002817390779F5F093D602E093D50271C021
:101D0000D80140E050E0AE17BF0750F412962D9175
:101D10003C911397AD012115310509F1D901F3CF9C
:101D20009D01DA013383228360817181860F971FC1
:101D30008217930769F4EC0128813981260F371F38
:101D40002E5F3F4F318320838A819B8193838283DF
:101D5000452B29F4F093D802E093D70242C01396A2
:101D6000FC93EE931297ED01499159919E01240F36
:101D7000351FE217F30771F480819181840F951F5D
:101D8000029611969C938E938281938113969C93D5
:101D90008E931297E0E0F0E0D80112968D919C911D
:101DA0001397009719F0F8018C01F6CF8D919C9153
:101DB00098012E5F3F4F820F931F2091D5023091E3
:101DC000D6022817390769F4309729F41092D802FF
:101DD0001092D70202C0138212821093D60200938F
:101DE000D502DF91CF911F910F910895FC010590CD
:101DF000615070400110D8F7809590958E0F9F1F0D
:101E00000895DC0101C06D9341505040E0F7089502
:101E1000FC016150704001900110D8F780959095B9
:101E20008E0F9F1F08950F931F93CF93DF93FB0196
:101E3000238121FD03C08FEF9FEF28C022FF16C032
:101E400046815781248135814217530744F4A0818C
:101E5000B1819D012F5F3F4F318320838C93268179
:101E600037812F5F3F4F3783268310C0EB01092F47
:101E7000182F0084F185E02D1995892BE1F68E81CC
:101E80009F8101969F838E83812F902FDF91CF9129
:101E90001F910F910895FA01AA27283051F120319E
:101EA00081F1E8946F936E7F6E5F7F4F8F4F9F4FEE
:101EB000AF4FB1E03ED0B4E03CD0670F781F891F30
:101EC0009A1FA11D680F791F8A1F911DA11D6A0FFE
:101ED000711D811D911DA11D20D009F468943F91B1
:101EE0002AE0269F11243019305D3193DEF6CF01B0
:101EF0000895462F4770405D4193B3E00FD0C9F776
:101F0000F6CF462F4F70405D4A3318F0495D31FDE2
:101F10004052419302D0A9F7EACFB4E0A695979535
:101F2000879577956795BA95C9F70097610571050B
:101F300008959B01AC010A2E069457954795379555
:101F40002795BA95C9F7620F731F841F951FA01DAF
:061F50000895F894FFCF94
:101F5600F80000D90220005374617274696E672E0E
:101F66002E2E0041546D6567613235363000476F5D
:101F7600616C3A2025640A00506F733A2025640A82
:101F8600005265663A2025640A00494E56414C497E
:101F9600442049442054494D45522053455420502D
:101FA6004552494F444500494E56414C4944204903
:101FB600442054494D455220494E495400494E56F5
:101FC600414C49442049442054494D4552205354DC
:101FD60041525400494E56414C49442049442054EC
:0A1FE600494D45522053544F50005E
:00000001FF
