:100000000C94D7000C94F8000C94F8000C94900217
:100010000C94F8000C94F8000C94F8000C94F80080
:100020000C94F8000C94F8000C94F8000C94F80070
:100030000C94F8000C94F8000C94F8000C94F80060
:100040000C94F8000C9410050C94F8000C94F80033
:100050000C94F8000C94F8000C94F8000C94F80040
:100060000C94F8000C94F8000C94F8000C94F80030
:100070000C94F8000C94F8000C94F8000C94F80020
:100080000C94F8000C94F8000C94F8000C94F80010
:100090000C94F8000C94F8000C94F8000C9456069C
:1000A0000C94F8000C94F8000C943B050C94F800A8
:1000B0000C94F8000C94F8000C94F8000C94F800E0
:1000C0000C94F8000C94F8000C94F8000C94F800D0
:1000D0000C94F8000C94F8000C94F8000C94F800C0
:1000E0000C94F8007506C706C706C706C706C706FC
:1000F000C706C7067506C706C706C706C706C706EA
:10010000C706C7067706C706C706C706C706C706D7
:10011000C706C706C706C706C706C706C706C70677
:10012000C706C7067706C706C706C706C706C706B7
:10013000C706C706C706C706C706C706C706C70657
:10014000C706C706C306C706C706C706C706C7064B
:10015000C706C706A006C706C706C706C706C7065E
:10016000C706C706C706C706C706C706C706C70627
:10017000C706C7069406C706C706C706C706C7064A
:10018000C706C706B2060C9475060C9439010C9488
:10019000C7060C9494060C94A0060C94C3060C9409
:1001A00077060C94B2060C9495050C942301112447
:1001B0001FBECFEFD1E2DEBFCDBF00E00CBF12E02B
:1001C000A0E0B2E0E0E9F0E200E00BBF02C007907F
:1001D0000D92A43BB107D9F722E0A4EBB2E001C035
:1001E0001D92A53FB207E1F70E94FA000C94461059
:1001F0000C9400000E94CC082FEF81EE94E0215077
:1002000080409040E1F700C000000E94C707F4CF93
:100210009093C5008093C4008EE08093C20010923A
:10022000C00088E18093C10069E371E083E291E05E
:100230000E94C00B0895E0ECF0E0908195FFFDCFA7
:100240008093C6000895CF93C82F8A3019F48DE0AB
:100250000E941B018C2F0E941B0180E090E0CF9137
:100260000895E0ECF0E080818823ECF78091C600EF
:1002700008950E943101082E000C990B089584B155
:10028000866884B9209A23988CB581658CBD0895C1
:100290008EBD0DB407FEFDCF8EB50895882311F0F5
:1002A0002F9A08952F980895CF93C82F80E00E9429
:1002B0004E0183E00E9448018C2F0E94480180E09B
:1002C0000E944801C82F81E00E944E018C2FCF91DF
:1002D0000895CF93DF93D82FC62F80E00E944E0160
:1002E00082E00E9448018D2F0E9448018C2F0E94BD
:1002F000480181E00E944E01DF91CF91089580E096
:100300000E944E0181E80E94480181E00E944E0156
:100310000895CF9380E00E944E0180EA0E94480138
:1003200080E00E944801C82F81E00E944E018C2F7E
:10033000CF9108951F93CF93DF93182FD62FC42FFB
:1003400080E00E944E0185E00E944801812F0E94BA
:1003500048018D2F0E9448018C2F0E94480181E0A6
:100360000E944E01DF91CF911F91089580E00E947D
:100370004E0180EC0E94480181E00E944E010895E8
:100380005298F894EA9AEAE6F0E0808182608083ED
:1003900078941092B40240E061E08BE20E949A01EE
:1003A0004FEF61E08BE20E949A0140E061E08CE255
:1003B0000E949A018CE20E94540180FF03C081E0F8
:1003C0008093B40208950E94B6011092B4028EE0A8
:1003D0000E94540180FF05C040E860EE8FE00E945B
:1003E0009A010E94C00140E060EE8FE00E949A01F5
:1003F0000895EF92FF920F931F93CF93DF937C01A9
:1004000006C08FE99FE00197F1F700C0000080E38C
:100410000E94540183FDF5CFF701608166956695D2
:10042000669581E30E946901F70160816295660F1C
:10043000607E82E30E946901F70161816F7085E34C
:100440000E946901F7018181882399F087010E5F7D
:100450001F4FC0E0D0E0F80161918F018C2F8A5CC2
:100460000E9469012196F701218130E0C217D3076C
:1004700094F34FEF6BE080E30E949A01DF91CF91FC
:100480001F910F91FF90EF900895EF92FF920F93BD
:100490001F93CF93DF937C018CE20E94540180FD77
:1004A00004C08091B4028823A1F181E60E94540126
:1004B000880F880F880FF701808382E60E9454011D
:1004C000829586958770F7019081892B808385E6D8
:1004D0000E9454018F70F7018183882399F087016E
:1004E0000E5F1F4FC0E0D0E08C2F8A590E9454014C
:1004F000F80181938F012196F701218130E0C21725
:10050000D30794F340E061E08CE20E949A011092DC
:10051000B402DF91CF911F910F91FF90EF9008955A
:100520001F920F920FB60F9211240BB60F921F93CA
:100530002F933F934F935F936F937F938F939F93EB
:10054000AF93BF93EF93FF93CF93DF93CDB7DEB716
:100550002A97DEBFCDBFF8948CE20E94540180FF41
:1005600003C081E08093B40240E061E08CE20E942D
:100570009A01CE0101960E944502998191115CC0B9
:100580008091000290910102892B31F00E94660552
:100590001092010210920002209104023091050293
:1005A0002115310591F41C811A508B81082E000C05
:1005B000990B80589F4F22E3AC01249FC001259FD7
:1005C000900D11240E94A30725C02130310551F45C
:1005D0001D8112588E8152E3859FC00111240E9413
:1005E000A30718C02230310551F41B811A508E81A7
:1005F00022E3829FC00111240E94A3070BC0233075
:10060000310541F41B811A5081E090E09093030280
:1006100080930202812F0E94AC038F81882351F0C6
:100620000E94C608811103C00E94B50805C08F81D1
:10063000811102C00E94C9088981813039F48B81FF
:1006400090E090930502809304021CC08430D1F4A2
:100650008B811F928F938DE092E09F938F930E94E6
:100660000B0C0F900F900F900F90809102029091C1
:100670000302892B39F08B8142E3849FC00111244E
:100680000E94A3072A960FB6F894DEBF0FBECDBF17
:10069000DF91CF91FF91EF91BF91AF919F918F919A
:1006A0007F916F915F914F913F912F911F910F908B
:1006B0000BBE0F900FBE0F901F901895E5EBF2E068
:1006C000108285E08183E7EBF2E08FEB92E01192FC
:1006D000E817F907E1F7EFEBF2E0108211821282DE
:1006E000138214820895CF93DF9300D01F921F923C
:1006F000CDB7DEB785EB92E00E944502EFEBF2E06A
:10070000A5EBB2E012968C911297808313968C9190
:100710001397818314968C911497828315968C91EC
:100720001597838316968C91848385E0DE0111965C
:1007300001900D928A95E1F729813A814B815C8184
:100740006D8170E080E090E00F900F900F900F901F
:100750000F90DF91CF910895CF92DF92EF92FF92A9
:100760008B350CF08AE5682F863A0CF466EA062E83
:10077000000C770B880B990B0E949E0A20E030E05A
:1007800044E353E40E94FB099B01AC0160E070E08C
:1007900080EC9FE30E9489096B017C0120E030E03E
:1007A00040E050E40E94F609181614F120E030E011
:1007B00040E85FE3C701B6010E944E0B8823C4F0F6
:1007C000609196007091970080E090E00E949C0AF2
:1007D000A70196010E94530B20E030E040EA51E46B
:1007E0000E94FB090E946D0A709399006093980023
:1007F000FF90EF90DF90CF900895F8946B9AE0E926
:10080000F0E080E88083808182608083E1E9F0E02D
:100810008081886180838081826080838FE39CE90E
:100820009093970080939600789480E00E94AC03A8
:10083000089520E030E040E851E40E94530B9B0112
:10084000AC0160E074E284E79BE40E94FB0920E0D5
:1008500030E040E85FE30E9489090E946D0AE6E209
:10086000F1E0718360838081918196958795909363
:100870002901809328010895E1E2F1E08081887FD9
:1008800080830895E1E2F1E08081826080830895B1
:1008900010927B0080E480937C0080E880937A0053
:1008A0000895EAE7F0E0808180648083808186FD9E
:1008B000FDCF80917800909179000895613021F505
:1008C000BC0180E090E00E949C0A2FE632E143E800
:1008D0005AE30E94530B20E034E244E75BE40E94B9
:1008E000530B20E030E040E05BE30E94530B20E03C
:1008F00030E040E85FE30E9489090E946D0A70932E
:100900008900609388000895623021F5BC0180E081
:1009100090E00E949C0A2FE632E143E85AE30E94ED
:10092000530B20E034E244E75BE40E94530B20E0E9
:1009300030E040E05BE30E94530B20E030E040E811
:100940005FE30E9489090E946D0A7093A900609379
:10095000A80008958BE192E00E941F0C0895F8947E
:10096000813079F41092800098E090938100EFE656
:10097000F0E09081926090837093C7026093C6020A
:1009800016C0823079F41092A00098E09093A100F4
:10099000E2E7F0E09081926090837093C5026093EB
:1009A000C40205C088E392E00E941F0C0895789469
:1009B000682F84E690E00E945E040895813051F42F
:1009C0001092850010928400E1E8F0E0808184605C
:1009D00080830895823051F41092A5001092A400F3
:1009E000E1EAF0E080818460808308958EE492E003
:1009F0000E941F0C0895813031F4E1E8F0E080811D
:100A0000887F80830895823031F4E1EAF0E08081CC
:100A1000887F8083089585E692E00E941F0C0895E8
:100A20001F920F920FB60F9211240BB60F922F93B5
:100A30003F934F935F936F937F938F939F93AF9366
:100A4000BF93EF93FF93E091C602F091C70219950F
:100A5000FF91EF91BF91AF919F918F917F916F9196
:100A60005F914F913F912F910F900BBE0F900FBE52
:100A70000F901F9018951F920F920FB60F9211248E
:100A80000BB60F922F933F934F935F936F937F9388
:100A90008F939F93AF93BF93EF93FF93E091C40223
:100AA000F091C5021995FF91EF91BF91AF919F9180
:100AB0008F917F916F915F914F913F912F910F9007
:100AC0000BBE0F900FBE0F901F9018951092CA0288
:100AD0001092C9021092C80265E975E082E00E9496
:100AE000AF0462E088EC90E00E945E0482E00E9425
:100AF000DE0408958091CA0208950E9451049F93D4
:100B00008F938BE792E09F938F930E940B0C0E9430
:100B1000510421E030E00F900F900F900F90C2979A
:100B200010F020E030E0C9010895CF93DF93CDB7F6
:100B3000DEB72A970FB6F894DEBF0FBECDBF0E9476
:100B40007D05892B81F18091C9028F938091C80224
:100B50008F9385E892E09F938F930E940B0C0F90E8
:100B60000F900F900F908091C8029091C902892B2D
:100B700049F581E090E09093C9028093C80283E038
:100B8000898381E08A838B83CE0101960E94F901DB
:100B90008091CA028F5F8093CA0262E08CEB92E080
:100BA0000E945E040FC08091C8029091C902892BF7
:100BB00049F01092C9021092C80262E088EC90E0FD
:100BC0000E945E042A960FB6F894DEBF0FBECDBF1A
:100BD000DF91CF9108958CE08093B8008FEF8093E0
:100BE000BB0084E08093BC0008958091BC008170BC
:100BF0000895ECEBF0E0808180FDFDCF809106024E
:100C00000895CF93DF93EC01ECEBF0E0908190FD41
:100C1000FDCF6093CD0298819093CE0290FD13C0DA
:100C2000623088F0FE013196AFECB2E06250262FC0
:100C300030E02E5F3F4FCE01820F931F21912D9305
:100C4000E817F907D9F71092CB0288EF80930602D4
:100C500085EA8093BC00DF91CF910895ECEBF0E042
:100C6000808180FDFDCF1092CB0288EF8093060239
:100C700085EA8093BC000895ECEBF0E0208120FD34
:100C8000FDCF2091CB0220FF0DC0662359F02EEC42
:100C900032E0A82FB92FF90181918D938E2F821BFD
:100CA0008617D0F38091CB02817008951F920F9226
:100CB0000FB60F9211240BB60F922F933F938F9381
:100CC0009F93AF93BF93EF93FF93E091B9008E2F63
:100CD00090E0FC013897E135F10508F058C088270D
:100CE000EE58FF4F8F4F0C9429091092CC02E091DF
:100CF000CC028091CD02E81770F481E08E0F8093D2
:100D0000CC02F0E0E253FD4F80818093BB0085E888
:100D10008093BC0043C08091CB0281608093CB0262
:100D200084E98093BC003AC0E091CC0281E08E0F50
:100D30008093CC028091BB00F0E0E253FD4F8083B2
:100D40002091CC0230E08091CD0290E001972817ED
:100D5000390724F485EC8093BC0020C085E880939B
:100D6000BC001CC08091BB00E091CC02F0E0E253DB
:100D7000FD4F80838091CB0281608093CB0284E918
:100D80008093BC000BC085EA8093BC0007C08091B3
:100D9000B9008093060284E08093BC00FF91EF913C
:100DA000BF91AF919F918F913F912F910F900BBE6B
:100DB0000F900FBE0F901F901895CF93DF9300D028
:100DC000CDB7DEB790E599831A828B8363E0CE01BD
:100DD00001960E9401068FE99FE00197F1F700C09C
:100DE00000000F900F900F90DF91CF910895E2E0F7
:100DF000F1E080818F7D80838081877F80832AE6F8
:100E00002A95F1F700C0A6E0B1E08C9190E0982F10
:100E100088272081286020832AE62A95F1F700C0E0
:100E20003C91208120622083832B0895E2E0F1E051
:100E300080818F7B80838AE68A95F1F700C080816C
:100E400080648083089510920701E1E0F1E08081E1
:100E50008A678083E2E0F1E08081806180830E9484
:100E6000160780E00E94DD061092D20208958823C2
:100E700031F0E2E0F1E08081826080830895E2E079
:100E8000F1E080818D7F80830895CF93DF938B3F46
:100E90002FEF920784F4CC27DD27C61BD70B8C17C6
:100EA0009D070CF4EC0180E00E9437078C2F8195A0
:100EB0000E94DD0612C08630910564F0EC018617B1
:100EC00097070CF4EB0181E00E9437078C2F0E94FA
:100ED000DD0603C080E00E94DD06DF91CF9108951A
:100EE000CF93DF939B01C4EDD2E01C821D821E8252
:100EF0001F821B821A8219821882998788877B87B2
:100F00006A875D874C87BC016F5F7F4F8FEF9FE7DC
:100F10000E94F6087F876E872F5F3F4F032E000CDD
:100F2000440B550B6FEF7FEF8FEF9FE30E940A0991
:100F3000288B398B4A8B5B8B82E390E09D8B8C8B6B
:100F4000DF91CF9108959093D5028093D4020895B4
:100F50009093E9028093E80208951092D8021092CB
:100F6000D9021092DA021092DB02089561E00E9429
:100F70005E04089581E00E94DE04089581E00E94ED
:100F8000FB0408958091D4029091D5020895CF92E8
:100F9000DF92EF92FF920F931F93CF93DF930E9404
:100FA000F706FC01CC27DD27C81BD90BA4EDB2E066
:100FB0004D915C911197480F591F1E968D919C91F0
:100FC0001F978417950794F091958195910948177B
:100FD00059077CF08091DC029091DD02489F8001EE
:100FE000499F100D589F100D112405C00FEF1FE7EA
:100FF00002C001E010E8A4EDB2E0052E000C660B83
:10100000770B1496CD90DD90ED90FC9017979A0198
:10101000AB012C0D3D1D4E1D5F1D50968D919D9178
:101020000D90BC91A02D82179307A407B5076CF40F
:101030008093D8029093D902A093DA02B093DB0296
:101040004FEF5FEF6FEF7FE329C0CC24DD24760103
:10105000C81AD90AEA0AFB0A2C153D054E055F0598
:101060006CF48093D8029093D902A093DA02B093E3
:10107000DB0241E050E060E070EC10C0A4EDB2E0B3
:1010800014962D933D934D935C9317971A960D905C
:10109000BC91A02D0E943109AB01BC01A4EDB2E0CE
:1010A00012968D919C911397E80FF91F1C962D9124
:1010B0003C911D97E29FC001E39F900DF29F900D20
:1010C00011241396DC93CE931297012E000C220B61
:1010D000330B400F511F621F731F092E000CAA0B08
:1010E000BB0B480F591F6A1F7B1FDB01CA01772307
:1010F00024F481589F4FAF4FBF4F689416F8B595B1
:10110000A795979587951694D1F7813020E8920797
:101110002FEFA207B20724F481E090E8AFEFBFEF12
:10112000811520E89207A105B10524F08FEF9FE714
:10113000A0E0B0E08093D3026091E8027091E902F0
:101140000E944507DF91CF911F910F91FF90EF9083
:10115000DF90CF900895749A0895749808956C9ACA
:101160001092EA020E94AB08089581E08093EA029F
:101170000E94AD082FE789EA93E02150804090401B
:10118000E1F700C000000E94AB0808958091EA02D8
:1011900008951092EA02089587E690E00E940801FF
:1011A00085B7806885BF87E992E00E941F0C0E9486
:1011B0003F010E94B6010E94E3010E945E030E946B
:1011C000FD030E9448040E94AF080E94EB050E94A4
:1011D000230744E050E060E070E084E090E00E948B
:1011E000700787EA92E00E941F0C089597FB072E74
:1011F00016F4009407D077FD09D00E94390907FC46
:1012000005D03EF4909581959F4F08957095619516
:101210007F4F0895052E97FB1EF400940E9421092C
:1012200057FD07D00E944D0907FC03D04EF40C94E3
:10123000210950954095309521953F4F4F4F5F4F75
:10124000089590958095709561957F4F8F4F9F4F32
:101250000895EE0FFF1F881F8BBF0790F691E02DBA
:101260001994B7FF0C946F090E946F09821B930BAE
:101270000895AA1BBB1B51E107C0AA1FBB1FA617DD
:10128000B70710F0A61BB70B881F991F5A95A9F72F
:1012900080959095BC01CD010895A1E21A2EAA1B5C
:1012A000BB1BFD010DC0AA1FBB1FEE1FFF1FA21716
:1012B000B307E407F50720F0A21BB30BE40BF50B13
:1012C000661F771F881F991F1A9469F7609570959C
:1012D000809590959B01AC01BD01CF0108950E94BE
:1012E0007A09A59F900DB49F900DA49F800D911D2C
:1012F00011240895A29FB001B39FC001A39F700D58
:10130000811D1124911DB29F700D811D1124911D0D
:1013100008955058BB27AA270E94A1090C94140BCA
:101320000E94060B38F00E940D0B20F039F49F3F0D
:1013300019F426F40C94030B0EF4E095E7FB0C94DF
:10134000FD0AE92F0E94250B58F3BA1762077307AD
:101350008407950720F079F4A6F50C94470B0EF45A
:10136000E0950B2EBA2FA02D0B01B90190010C01B5
:10137000CA01A0011124FF27591B99F0593F50F4CD
:10138000503E68F11A16F040A22F232F342F442725
:10139000585FF3CF469537952795A795F04053951D
:1013A000C9F77EF41F16BA0B620B730B840BBAF0ED
:1013B0009150A1F0FF0FBB1F661F771F881FC2F758
:1013C0000EC0BA0F621F731F841F48F4879577956C
:1013D0006795B795F7959E3F08F0B0CF9395880F26
:1013E00008F09927EE0F9795879508950E94D90ADE
:1013F00008F481E008950E940F0A0C94140B0E94D7
:101400000D0B58F00E94060B40F029F45F3F29F0C5
:101410000C94FD0A51110C94480B0C94030B0E9480
:10142000250B68F39923B1F3552391F3951B550BC5
:10143000BB27AA2762177307840738F09F5F5F4FA7
:10144000220F331F441FAA1FA9F335D00E2E3AF0E6
:10145000E0E832D091505040E695001CCAF72BD0FE
:10146000FE2F29D0660F771F881FBB1F261737074F
:101470004807AB07B0E809F0BB0B802DBF01FF2781
:1014800093585F4F3AF09E3F510578F00C94FD0A57
:101490000C94480B5F3FE4F3983ED4F38695779520
:1014A0006795B795F7959F5FC9F7880F911D96953A
:1014B000879597F90895E1E0660F771F881FBB1F96
:1014C000621773078407BA0720F0621B730B840B43
:1014D000BA0BEE1F88F7E09508950E942D0B88F057
:1014E0009F5798F0B92F9927B751B0F0E1F0660FE8
:1014F000771F881F991F1AF0BA95C9F714C0B13029
:1015000091F00E94470BB1E008950C94470B672FB0
:10151000782F8827B85F39F0B93FCCF38695779557
:101520006795B395D9F73EF4909580957095619540
:101530007F4F8F4F9F4F0895E89409C097FB3EF46B
:1015400090958095709561957F4F8F4F9F4F992310
:10155000A9F0F92F96E9BB279395F695879577958E
:101560006795B795F111F8CFFAF4BB0F11F460FF4E
:101570001BC06F5F7F4F8F4F9F4F16C0882311F0A6
:1015800096E911C0772321F09EE8872F762F05C0BA
:10159000662371F096E8862F70E060E02AF09A9555
:1015A000660F771F881FDAF7880F9695879597F94A
:1015B0000895990F0008550FAA0BE0E8FEEF1616E4
:1015C0001706E807F907C0F012161306E407F50737
:1015D00098F0621B730B840B950B39F40A2661F0AB
:1015E000232B242B252B21F408950A2609F4A1404E
:1015F000A6958FEF811D811D089597F99F6780E85B
:1016000070E060E008959FEF80EC089500240A9454
:101610001616170618060906089500240A941216CD
:101620001306140605060895092E0394000C11F400
:10163000882352F0BB0F40F4BF2B11F460FF04C0AD
:101640006F5F7F4F8F4F9F4F089557FD9058440F06
:10165000551F59F05F3F71F04795880F97FB991F11
:1016600061F09F3F79F087950895121613061406CE
:10167000551FF2CF4695F1DF08C01616170618065B
:10168000991FF1CF86957105610508940895E89436
:10169000BB2766277727CB0197F908950E94D90ABF
:1016A00008F48FEF08950E94660B0C94140B0E94AF
:1016B000060B38F00E940D0B20F0952311F00C94CE
:1016C000FD0A0C94030B11240C94480B0E94250B6B
:1016D00070F3959FC1F3950F50E0551F629FF00185
:1016E000729FBB27F00DB11D639FAA27F00DB11D9E
:1016F000AA1F649F6627B00DA11D661F829F222727
:10170000B00DA11D621F739FB00DA11D621F839FAD
:10171000A00D611D221F749F3327A00D611D231F83
:10172000849F600D211D822F762F6A2F11249F57D1
:1017300050409AF0F1F088234AF0EE0FFF1FBB1FD4
:10174000661F771F881F91505040A9F79E3F510593
:1017500080F00C94FD0A0C94480B5F3FE4F3983E34
:10176000D4F3869577956795B795F795E7959F5F3D
:10177000C1F7FE2B880F911D9695879597F90895CF
:101780000F931F93CF93DF93009731F46115710589
:1017900019F480E090E03AC08B01EC016EE070E05B
:1017A00081E090E00E944A0EFC01892B91F380E8D1
:1017B00083830115110571F01387028781E8838304
:1017C0008091EB029091EC02892B21F4F093EC02D2
:1017D000E093EB022097C9F0D187C08783818260B4
:1017E00083838091ED029091EE02892B71F4F09346
:1017F000EE02E093ED028091EF029091F002892BCE
:1018000021F4F093F002E093EF02CF01DF91CF914A
:101810001F910F910895CF93DF93CDB7DEB7AE013F
:101820004A5F5F4FFA0161917191AF018091ED02C2
:101830009091EE020E944F0CDF91CF9108950F938B
:101840001F93CF93DF93E091ED02F091EE0223819D
:1018500021FF1BC08C01D0E0C0E0F80181918F0115
:101860006091ED027091EE02DB011896ED91FC9112
:101870001997882331F01995892B79F3DFEFCFEF92
:10188000ECCF8AE01995892B19F08FEF9FEF02C0FA
:101890008D2F9C2FDF91CF911F910F9108952F9243
:1018A0003F924F925F926F927F928F929F92AF92F0
:1018B000BF92CF92DF92EF92FF920F931F93CF933D
:1018C000DF93CDB7DEB72C970FB6F894DEBF0FBE0F
:1018D000CDBF7C016B018A01FC01178216828381D6
:1018E00081FFBDC1CE0101964C01F7019381F60144
:1018F00093FD859193FF81916F01882309F4ABC11A
:10190000853239F493FD859193FF81916F01853282
:1019100029F4B70190E00E94B00FE7CF512C312C91
:1019200020E02032A0F48B3269F030F4803259F09C
:10193000833269F420612CC08D3239F0803339F460
:10194000216026C02260246023C0286021C027FDBA
:1019500027C030ED380F3A3078F426FF06C0FAE0A1
:101960005F9E300D1124532E13C08AE0389E300D37
:101970001124332E20620CC08E3221F426FD6BC15F
:10198000206406C08C3611F4206802C0883641F409
:10199000F60193FD859193FF81916F018111C1CF74
:1019A000982F9F7D9554933028F40C5F1F4FFFE3D1
:1019B000F9830DC0833631F0833771F0833509F038
:1019C0005BC022C0F801808189830E5F1F4F4424D1
:1019D0004394512C540115C03801F2E06F0E711C74
:1019E000F801A080B18026FF03C0652D70E002C021
:1019F0006FEF7FEFC5012C870E94A50F2C0183019B
:101A00002C852F77222E17C03801F2E06F0E711C43
:101A1000F801A080B18026FF03C0652D70E002C0F0
:101A20006FEF7FEFC5012C870E94930F2C012C854F
:101A30002068222E830123FC1BC0832D90E04816D2
:101A40005906B0F4B70180E290E00E94B00F3A94DA
:101A5000F4CFF50127FC859127FE81915F01B70145
:101A600090E00E94B00F31103A94F1E04F1A510803
:101A70004114510471F7E5C0843611F0893639F507
:101A8000F80127FF07C060817181828193810C5F1B
:101A90001F4F08C060817181072E000C880B990BC5
:101AA0000E5F1F4F2F76722E97FF09C0909580957D
:101AB000709561957F4F8F4F9F4F2068722E2AE05F
:101AC00030E0A4010E94E80FA82EA81844C0853772
:101AD00029F42F7EB22E2AE030E025C0F22FF97FC4
:101AE000BF2E8F36C1F018F4883579F0B4C0803736
:101AF00019F0883721F0AFC02F2F2061B22EB4FE2D
:101B00000DC08B2D8460B82E09C024FF0AC09F2F02
:101B10009660B92E06C028E030E005C020E130E034
:101B200002C020E132E0F801B7FE07C06081718198
:101B3000828193810C5F1F4F06C06081718180E0BC
:101B400090E00E5F1F4FA4010E94E80FA82EA81876
:101B5000FB2DFF777F2E76FE0BC0372D3E7FA51421
:101B600050F474FE0AC072FC08C0372D3E7E05C0DA
:101B7000BA2C372D03C0BA2C01C0B52C34FF0DC0D0
:101B8000FE01EA0DF11D8081803311F4397E09C018
:101B900032FF06C0B394B39404C0832F867809F053
:101BA000B39433FD13C030FF06C05A2CB31418F49D
:101BB000530C5B18B32CB31468F4B70180E290E0C7
:101BC0003C870E94B00FB3943C85F5CFB31410F45A
:101BD0003B1801C0312C34FF12C0B70180E390E004
:101BE0003C870E94B00F3C8532FF17C031FD03C017
:101BF00088E790E002C088E590E0B7010CC0832F31
:101C0000867859F031FF02C08BE201C080E237FDD7
:101C10008DE2B70190E00E94B00FA51438F4B7012F
:101C200080E390E00E94B00F5A94F7CFAA94F40199
:101C3000EA0DF11D8081B70190E00E94B00FA11064
:101C4000F5CF332009F451CEB70180E290E00E9435
:101C5000B00F3A94F6CFF7018681978102C08FEFDB
:101C60009FEF2C960FB6F894DEBF0FBECDBFDF916D
:101C7000CF911F910F91FF90EF90DF90CF90BF9089
:101C8000AF909F908F907F906F905F904F903F901C
:101C90002F9008950F931F93CF93DF93869F80011A
:101CA000879F100D969F100D1124C8010E94660E8B
:101CB000EC01009729F0A80160E070E00E949E0FFF
:101CC000CE01DF91CF911F910F910895CF93DF93B4
:101CD0008230910510F482E090E0E091F302F091FF
:101CE000F40220E030E0C0E0D0E0309711F1408114
:101CF000518148175907C0F04817590761F482818C
:101D00009381209719F09B838A832BC09093F402D0
:101D10008093F30226C02115310519F042175307AD
:101D200018F49A01BE01DF01EF010280F381E02D7A
:101D3000DCCF2115310509F1281B390B2430310581
:101D400090F412968D919C9113976115710521F075
:101D5000FB019383828304C09093F4028093F30287
:101D6000FD01329644C0FD01E20FF31F8193919370
:101D7000225031092D933C933AC02091F1023091C9
:101D8000F202232B41F42091090230910A02309390
:101D9000F2022093F10220910702309108022115EE
:101DA000310541F42DB73EB740910B0250910C0222
:101DB000241B350BE091F102F091F202E217F307D8
:101DC000A0F42E1B3F0B2817390778F0AC014E5FAB
:101DD0005F4F2417350748F04E0F5F1F5093F202F4
:101DE0004093F1028193919302C0E0E0F0E0CF01D3
:101DF000DF91CF9108950F931F93CF93DF930097B7
:101E000009F48CC0FC013297138212820091F30214
:101E10001091F4020115110581F420813181820FA6
:101E2000931F2091F1023091F2022817390779F5BA
:101E3000F093F202E093F10271C0D80140E050E06B
:101E4000AE17BF0750F412962D913C911397AD0138
:101E50002115310509F1D901F3CF9D01DA01338351
:101E6000228360817181860F971F8217930769F41F
:101E7000EC0128813981260F371F2E5F3F4F3183B8
:101E800020838A819B8193838283452B29F4F0935D
:101E9000F402E093F30242C01396FC93EE93129780
:101EA000ED01499159919E01240F351FE217F30767
:101EB00071F480819181840F951F029611969C93F5
:101EC0008E938281938113969C938E931297E0E078
:101ED000F0E0D80112968D919C911397009719F01C
:101EE000F8018C01F6CF8D919C9198012E5F3F4FA8
:101EF000820F931F2091F1023091F20228173907C7
:101F000069F4309729F41092F4021092F30202C09F
:101F1000138212821093F2020093F102DF91CF91AB
:101F20001F910F910895FC010590615070400110C0
:101F3000D8F7809590958E0F9F1F0895DC0101C002
:101F40006D9341505040E0F70895FC01615070409E
:101F500001900110D8F7809590958E0F9F1F0895DE
:101F60000F931F93CF93DF93FB01238121FD03C0C8
:101F70008FEF9FEF28C022FF16C046815781248132
:101F800035814217530744F4A081B1819D012F5F31
:101F90003F4F318320838C93268137812F5F3F4FC2
:101FA0003783268310C0EB01092F182F0084F18599
:101FB000E02D1995892BE1F68E819F8101969F83F3
:101FC0008E83812F902FDF91CF911F910F910895D4
:101FD000FA01AA27283051F1203181F1E8946F935A
:101FE0006E7F6E5F7F4F8F4F9F4FAF4FB1E03ED000
:101FF000B4E03CD0670F781F891F9A1FA11D680F9E
:10200000791F8A1F911DA11D6A0F711D811D911DD0
:10201000A11D20D009F468943F912AE0269F112445
:102020003019305D3193DEF6CF010895462F4770A9
:10203000405D4193B3E00FD0C9F7F6CF462F4F7004
:10204000405D4A3318F0495D31FD4052419302D062
:10205000A9F7EACFB4E0A695979587957795679508
:10206000BA95C9F700976105710508959B01AC0108
:102070000A2E06945795479537952795BA95C9F72F
:10208000620F731F841F951FA01D0895F894FFCF42
:10209000010001000200F80000F5022000426C750A
:1020A00065746F6F74682120256400494E56414C59
:1020B00049442049442054494D4552205345542019
:1020C000504552494F444500494E56414C494420E1
:1020D00049442054494D455220494E495400494EE7
:1020E00056414C49442049442054494D45522053BF
:1020F0005441525400494E56414C494420494420D1
:1021000054494D45522053544F50004144433A20C6
:102110002564200A00616C72656164795F676F6194
:102120006C3A2025640A00496E697469616C697AA9
:10213000696E672E2E2E00496E697469616C697A2A
:0421400065642100B1
:00000001FF
