:100000000C9460030C947D030C947D030C94040504
:100010000C947D030C947D030C947D030C94220CB2
:100020000C947D030C947D030C947D030C947D0350
:100030000C947D030C94FB0B0C947D030C947D03BA
:100040000C947D030C947D030C947D030C947D0330
:100050000C947D030C947D030C947D030C947D0320
:100060000C947D030C947D030C947D030C947D0310
:1000700000000000005C00000C000C007C287C28C4
:1000800058DC68002410480028542840000C000068
:10009000007884008478000054385400107C1000EC
:1000A00080400000101010000040000060100C00A4
:1000B00038543800487C40004864580044542C00B0
:1000C0001C107C005C5424003854240064140C0080
:1000D00068542C0048543800004800008048000054
:1000E0001028440028282800442810000454080040
:1000F00038445C00781478007C5428003844280088
:100100007C4438007C5444007C140400384474005F
:100110007C107C00447C440020403C007C106C003F
:100120007C4040007C187C0078103C00384438004B
:100130007C1408003844B8007C146800485424003B
:10014000047C04007C407C003C603C007C307C00F3
:100150006C106C000C700C0064544C00007C44006B
:100160000C106000447C00000804080080808000BF
:1001700000040800304878007C48300030484800CF
:1001800030487C00306850001078140090A8780047
:100190007C08700050744000808074007C106800FF
:1001A000447C4000781078007808700030483000B7
:1001B000F82810003048F80078100800505828003F
:1001C000083C4800384078003840380078207800F3
:1001D0004830480098A0780048685800107884009B
:1001E000007C00008478100008040804000000006F
:1001F0000000005F00000007000700147F147F1458
:10020000242A7F2A1223130864623649552250009B
:1002100005030000001C2241000041221C00082AA6
:100220001C2A0808083E080800503000000808088A
:100230000808006060000020100804023E51494593
:100240003E00427F400042615149462141454B31C9
:100250001814127F1027454545393C4A4949300159
:10026000710905033649494936064949291E0036B0
:100270003600000056360000000814224114141401
:10028000141441221408000201510906324979412F
:100290003E7E1111117E7F494949363E414141223E
:1002A0007F4141221C7F494949417F090901013EA3
:1002B000414151327F0808087F00417F41002040C2
:1002C000413F017F081422417F404040407F0204AB
:1002D000027F7F0408107F3E4141413E7F090909AA
:1002E000063E4151215E7F09192946464949493157
:1002F00001017F01013F4040403F1F2040201F7F00
:100300002018207F631408146303047804036151E8
:1003100049454300007F4141020408102041417FCC
:100320000000040201020440404040400001020479
:100330000020545454787F4844443838444444207E
:10034000384444487F3854545418087E0901020840
:100350001454543C7F0804047800447D400020403D
:10036000443D00007F10284400417F40007C041879
:1003700004787C0804047838444444387C14141409
:1003800008081414187C7C080404084854545420A9
:10039000043F4440203C4040207C1C2040201C3C2A
:1003A0004030403C44281028440C5050503C446499
:1003B000544C44000836410000007F0000004136E4
:1003C000080002010302010000000000000000001C
:1003D000065F5F0600000000070700070700001423
:1003E0007F7F147F7F1400242E6B6B3A120000462F
:1003F0006630180C666200307A4F5D377A48000428
:1004000007030000000000001C3E634100000000E4
:1004100041633E1C000000082A3E1C1C3E2A0808BE
:10042000083E3E0808000000A0E060000000000850
:100430000808080808000000006060000000006074
:1004400030180C060301003E7F594D7F3E000042EC
:10045000427F7F40400000627359496F660000226E
:100460006349497F360000181C16137F7F10002750
:100470006745457D3900003C7E4B497930000003DB
:100480006371190F070000367F49497F3600000667
:100490004F49693F1E000000006C6C000000000026
:1004A000A0EC6C00000000081C3663410000001442
:1004B00014141414140000004163361C08000002D8
:1004C0000351590F0600003E7F415D5D1F1E007CF9
:1004D0007E13137E7C0000417F7F49497F36001CDC
:1004E0003E634141632200417F7F41637F1C0041A5
:1004F0007F7F495D416300417F7F491D0103001CEF
:100500003E6341517372007F7F08087F7F000000C7
:10051000417F7F41000000307040417F3F0100413A
:100520007F7F081C776300417F7F41406070007FC0
:100530007F060C067F7F007F7F060C187F7F001CE4
:100540003E6341633E1C00417F7F49090F06001E48
:100550003F21717F5E0000417F7F19396F46002681
:10056000674D597B32000003417F7F410300007FCC
:100570007F40407F7F00001F3F60603F1F00007F83
:100580007F3018307F7F0063771C081C776300077B
:100590004F78784F0700006773594D47637100002B
:1005A0007F7F41410000000103060C18306000000D
:1005B00041417F7F000000080C0603060C08008004
:1005C000808080808080800000030704000000207D
:1005D0007454543C784000413F7F44447C38003898
:1005E0007C44446C280000307848493F7F40003804
:1005F0007C54545C180000487E7F49030200009838
:10060000BCA4A4F87C0400417F7F08047C7800002F
:10061000447D7D4000000040C484FD7D0000004119
:100620007F7F10386C440000417F7F400000007CD9
:100630007C0C180C7C78007C7C04047C78000038EE
:100640007C44447C38000084FCF8A4243C18001846
:100650003C24A4F8FC8400447C78441C1800004826
:100660005C54547424000000043E7F442400003C89
:100670007C40403C7C40001C3C60603C1C00003CDA
:100680007C6030607C3C00446C3810386C44009CCA
:10069000BCA0A0FC7C00004C64745C4C64000008AE
:1006A000083E7741410000000000777700000041DC
:1006B00041773E0808000002030103020301000025
:1006C00011241FBECFEFD4E0DEBFCDBF12E0A0E00B
:1006D000B1E0E0E6F7E202C005900D92A43CB1075C
:1006E000D9F722E0A4ECB2E001C01D92A63EB20709
:1006F000E1F70E947F030C94AE130C9400000E945B
:10070000C90C0E94DE0C8CE691E00E94790F80E01B
:1007100090E0089590BD89B98EE880BD1BB888E14E
:100720008AB960EB73E08CE993E00E94180F08959A
:100730005D9BFECF8CB90895CF93C82F8A3019F4F2
:100740008DE00E9498038C2F0E94980380E090E037
:10075000CF9108955F9B02C08CB1089580E0089509
:100760000E94AA03082E000C990B089587B3806B92
:1007700087BBBE988DB181658DB908958FB9779B80
:10078000FECF8FB10895882311F0C49A0895C498BC
:100790000895CF93C82F80E00E94C30383E00E9496
:1007A000BE038C2F0E94BE0380E00E94BE03C82FB0
:1007B00081E00E94C3038C2FCF910895CF93DF93E4
:1007C000D82FC62F80E00E94C30382E00E94BE03A0
:1007D0008D2F0E94BE038C2F0E94BE0381E00E94D9
:1007E000C303DF91CF91089580E00E94C30381E8A5
:1007F0000E94BE0381E00E94C3030895CF9380E06E
:100800000E94C30380EA0E94BE0380E00E94BE03F0
:10081000C82F81E00E94C3038C2FCF9108951F93AE
:10082000CF93DF93182FD62FC42F80E00E94C303ED
:1008300085E00E94BE03812F0E94BE038D2F0E947F
:10084000BE038C2F0E94BE0381E00E94C303DF9190
:10085000CF911F91089580E00E94C30380EC0E9415
:10086000BE0381E00E94C3030895F8948BB78064AF
:100870008BBF85B7886085BF78941092C40240E032
:1008800061E08BE20E940F044FEF61E08BE20E9477
:100890000F0440E061E08CE20E940F048CE20E94B1
:1008A000C90380FF03C081E08093C40208950E94C1
:1008B0002B041092C4028EE00E94C90380FF05C081
:1008C00040E860EE8FE00E940F040E94350440E093
:1008D00060EE8FE00E940F040895EF92FF920F9355
:1008E0001F93CF93DF937C0106C08CEC94E00197BB
:1008F000F1F700C0000080E30E94C90383FDF5CF3B
:10090000F701608166956695669581E30E94DE0336
:10091000F70160816295660F607E82E30E94DE03CC
:10092000F70161816F7085E30E94DE03F701818129
:10093000882399F087010E5F1F4FC0E0D0E0F801D7
:1009400061918F018C2F8A5C0E94DE032196F70152
:10095000218130E0C217D30794F34FEF6BE080E3BF
:100960000E940F04DF91CF911F910F91FF90EF90A4
:100970000895EF92FF920F931F93CF93DF937C0123
:100980008CE20E94C90380FD04C08091C4028823C8
:10099000A1F181E60E94C903880F880F880FF70133
:1009A000808382E60E94C903829586958770F7014D
:1009B0009081892B808385E60E94C9038F70F7019F
:1009C0008183882399F087010E5F1F4FC0E0D0E03C
:1009D0008C2F8A590E94C903F80181938F012196B7
:1009E000F701218130E0C217D30794F340E061E0C2
:1009F0008CE20E940F041092C402DF91CF911F91EC
:100A00000F91FF90EF9008951F920F920FB60F92E3
:100A100011242F933F934F935F936F937F938F9303
:100A20009F93AF93BF93EF93FF93CF93DF93CDB794
:100A3000DEB72A97DEBFCDBFF8948CE20E94C903CF
:100A400080FF03C081E08093C40240E061E08CE25B
:100A50000E940F04CE0101960E94B9042A960FB697
:100A6000F894DEBF0FBECDBFDF91CF91FF91EF9124
:100A7000BF91AF919F918F917F916F915F914F91B6
:100A80003F912F910F900FBE0F901F901895E5EC9E
:100A9000F2E0AFECB2E08C91828311968C911197C9
:100AA000838312968C911297848313968C9113975B
:100AB000858314968C9186830895EFECF2E0A5EC83
:100AC000B2E012968C911297808313968C911397B3
:100AD000818314968C911497828315968C91159727
:100AE000838316968C91848308950F931F93CF93DD
:100AF000DF930E94F005082F192F0E949806CFEC73
:100B0000D2E0088319838A839B830E94A6068C8384
:100B1000DF91CF911F910F910895E5ECF2E01082E3
:100B200085E08183E7ECF2E08FEC92E01192E81728
:100B3000F907E1F7EFECF2E01082118212821382E2
:100B400014820895CF93DF9300D000D01F92CDB7C9
:100B5000DEB70E9475050E94470585EC92E00E9471
:100B60006D0485E0EFECF2E0DE01119601900D924C
:100B70008A95E1F729813A814B815C816D8170E032
:100B800080E090E00F900F900F900F900F90DF910A
:100B9000CF910895CF93DF9300D000D01F92CDB7AF
:100BA000DEB785EC92E00E94B9040E945D0585E005
:100BB000EFECF2E0DE01119601900D928A95E1F7DB
:100BC00029813A814B815C816D8170E080E090E009
:100BD0000F900F900F900F900F90DF91CF9108958D
:100BE000CF93DF9384E090E00E94490CC82FD0E0BF
:100BF00085E090E00E94490C282F30E0C858D109C8
:100C000088EC8C9FA0018D9F500D1124552314F466
:100C100041505F4F852F952F990F990B863F4FEFCE
:100C200094070CF403968B3091050CF0049627582A
:100C3000310998EC929FA001939F500D11245523E8
:100C400014F441505F4F252F352F330F330B263FC0
:100C50009FEF390714F42E5F3F4F2B30310514F00E
:100C60002C5F3F4F922FDF91CF9108950E94F005A6
:100C7000282F392F8B3084F0682F082E000C770B2B
:100C8000492F092E000C550B55231CF45195419505
:100C9000510964177507ECF5263F9CF4682F082E60
:100CA000000C770B492F092E000C550B55231CF413
:100CB000519541955109519541955109461757074D
:100CC0005CF53B3084F0692F092E000C770B482F20
:100CD000082E000C550B55231CF4519541955109D4
:100CE00046175707E4F0363FECF4292F990F330BE2
:100CF000082E000C990B99231CF49195819591096C
:100D0000919581959109281739077CF484E090E04A
:100D1000089582E090E0089581E090E0089583E0F6
:100D200090E0089580E090E0089580E090E00895DC
:100D3000CF9386E090E00E94490CC82F87E090E0B6
:100D40000E94490C982F8C2FCF91089586B38095DF
:100D50008170089582309105D9F028F40097E9F068
:100D6000019789F01FC08330910519F0049731F085
:100D700019C088E791E00E94790F08958BE791E010
:100D80000E94790F089580E891E00E94790F0895FC
:100D900085E891E00E94790F08958BE891E00E9428
:100DA000790F089584E791E09F938F930E94630FDA
:100DB0000F900F90089590910101992331F090E0E8
:100DC0009093D5028093D4020895806B0E94AC0A60
:100DD0000895CF9390910101992331F090E0909381
:100DE000D7028093D6020AC0C82F8F700E94AC0A27
:100DF0008C2F82958F7080610E94AC0ACF910895EC
:100E000080910101882339F080E00E94DB0680E0B8
:100E10000E94E906089580EB0E94AC0A80E00E94DF
:100E2000AC0A80E10E94AC0A0895FF920F931F93D1
:100E3000CF93DF9380910101882319F00E94090963
:100E40001DC00E94000710E06894FF24F7F800E03E
:100E5000812F806B0E94AC0A80E00E94AC0A80E186
:100E60000E94AC0ACF2DD02F8FEF0E94AF0A21979E
:100E7000D9F71F5F183061F70E940007DF91CF910B
:100E80001F910F91FF900895CF93DF9390910101EF
:100E9000992319F00E94110910C0806B0E94AC0ABE
:100EA00080E00E94AC0A80E10E94AC0AC0E8D0E079
:100EB00080E00E94AF0A2197D9F7DF91CF91089582
:100EC000CF93C0910101CC2319F00E94E20811C018
:100ED00080EB0E94AC0A80E00E94AC0A80E10E9494
:100EE000AC0A8C2F0E944407CF5FC830D1F70E9414
:100EF0000007CF9108958EEA0E94AC0A81EA0E9411
:100F0000AC0A8AED0E94AC0A82E10E94AC0A88EC2D
:100F10000E94AC0A88EA0E94AC0A8FE30E94AC0AE5
:100F200085ED0E94AC0A80E80E94AC0A81E80E942C
:100F3000AC0A80E50E94AC0A89ED0E94AC0A81E20D
:100F40000E94AC0A80E20E94AC0A82E00E94AC0AD5
:100F50008BED0E94AC0A80E30E94AC0A8DEA0E94ED
:100F6000AC0A80E00E94AC0A84EA0E94AC0A86EADD
:100F70000E94AC0A8FEA0E94AC0A8091010188238A
:100F800019F00E94F90808950E9460070895CF9310
:100F9000C62F0E94DB068C2F0E94E906CF91089590
:100FA000853039F0883049F0843059F4809300015D
:100FB000089585E080930001089588E08093000102
:100FC000089588E0809300010895CF93C82F81E8A9
:100FD0000E94AC0A8C2F0E94AC0ACF910895EF9228
:100FE000FF921F93CF93DF9310910001153069F1A9
:100FF000183009F458C0143009F07CC094E089021C
:10100000E0011124C051D0400F2EF4EDEF2EF2E09C
:10101000FF2EF02DF701628173816F5F7F4F738325
:10102000628380910101882339F0FE014491F70128
:1010300080810E94D50804C0FE0184910E94AF0AFD
:10104000115021961111E6CF7CC0082E000C990B8F
:101050008097EC01CC0FDD1FCC0FDD1FC80FD91F0F
:10106000C451DE4F0F2EF4EDEF2EF2E0FF2EF02DE7
:10107000F701628173816F5F7F4F73836283809119
:101080000101882339F0FE014491F70180810E941B
:10109000D50804C0FE0184910E94AF0A1150219628
:1010A0001111E6CF4EC0F8E08F02E0011124C953C0
:1010B000DD4F0F2EF4EDEF2EF2E0FF2EF02DF701B5
:1010C000628173816F5F7F4F7383628380910101BF
:1010D000882339F0FE014491F70180810E94D508F0
:1010E00004C0FE0184910E94AF0A11502196111193
:1010F000E6CF27C0F8E08F02E0011124C953DD4F8D
:1011000018E00F2EF4EDEF2EF2E0FF2EF02DF70198
:10111000628173816F5F7F4F73836283809101016E
:10112000882339F0FE014491F70180810E94D5089F
:1011300004C0FE0184910E94AF0A11502196111142
:10114000E6CFDF91CF911F91FF90EF9008950F931D
:101150001F93CF93DF93EC01892B11F188818823B2
:10116000F9F0219604ED12E08A3019F00E94EF07A1
:1011700014C0F8018081918101968770907899233D
:1011800024F40197886F9F6F0196F8018083918303
:101190001382128260E00E94C70789918111E4CF17
:1011A000DF91CF911F910F910895262F30E0642F8A
:1011B000A90170E8879F400D511D1124CA010E94AA
:1011C000B20A08951F93CF93DF93D0E010E00BC0D5
:1011D000412F6C2F8D2F0E94D508CF5FC038C1F7EB
:1011E000DF5FD83011F0C12FF3CFDF91CF911F9186
:1011F00008950E94E2086BE279E081E00E94A40B6E
:1012000061E084E690E00E94550B81E00E94CF0BE4
:101210000895C0E04FEF6C2F80E00E94D508CF5FAB
:10122000F9CFCF93DF93D82FC0E040E06C2F8D2F04
:101230000E94D508CF5FC038C1F7DF91CF910895E4
:1012400070E09B0140E8849F200D311D1124C901ED
:101250000E94B60A08951F93CF93DF93D0E010E069
:101260008D2F806B0E94AC0AC12F6C2F8D2F0E9496
:1012700020090E94AF0ACF5FC038B9F7DF5FD830CE
:1012800079F7DF91CF911F9108950F931F93CF931B
:10129000DF9390E1699F800D11246770C1E0D0E079
:1012A00002C0CC0FDD1F6A95E2F7442361F0082FDE
:1012B00010E0C8010E94B60AC095682F6C23C801CF
:1012C0000E94B20A0AC0082F10E0C8010E94B60AA4
:1012D0006C2F682BC8010E94B20ADF91CF911F9139
:1012E0000F9108957F928F929F92AF92BF92CF926B
:1012F000DF92EF92FF920F931F93CF93DF93C82F4C
:10130000D62F142F622F70E06D1B7109072E000C71
:10131000880B990B0E94F60D6B017C01612F70E028
:101320006C1B7109072E000C880B990B0E94F60D9F
:101330009B01AC01C701B6010E94530D4B015C013A
:1013400020E030E0A9010E944E0D882324F4B7FA72
:10135000B094B7F8B09420E030E0A901C701B6011D
:101360000E94A60E18165CF020E030E0A901C7012B
:10137000B6010E944E0D782E770C770802C07724B4
:101380007394C11730F5C12CD12C7601402F6D2FED
:101390008C2F0E944509A5019401C701B6010E9446
:1013A000E20C6B017C0120E030E040E05FE30E9452
:1013B000A60E88235CF0D70D20E030E040E85FE324
:1013C000C701B6010E94E10C6B017C01CF5FC11720
:1013D000E8F2DF91CF911F910F91FF90EF90DF9096
:1013E000CF90BF90AF909F908F907F9008953F9245
:1013F0004F925F926F927F928F929F92AF92BF9225
:10140000CF92DF92EF92FF920F931F93CF93DF93D0
:10141000882E762EC22F302E44244A94440E842FD8
:10142000880F91E0C92EC81A93E0692E681ADD244E
:10143000DA94D80CD40EEE24EA94E60EE40EFF24DF
:10144000F394F60EF41A11E0180D141B552453945E
:10145000D0E0332001F10C2FA72CAD1A2A2D4D2DF1
:10146000BD2EB70C6B2D8D2D0E9472092F2D8D2F47
:10147000880D482F6E2D0E9472092F2D882D8D1BEF
:10148000482F6E2D0E9472092A2D412F6B2D812F1E
:101490000E94720930C04C2FAD2EA70C6A2D8D2DE5
:1014A0000E9445094C2FB72CBD1A6B2D8D2D0E9423
:1014B00045094C2F6E2D9D2E980C892D0E944509B3
:1014C0004C2F6F2D892D0E9445094C2F6E2D982C85
:1014D0009D1A892D0E9445094C2F6F2D892D0E9440
:1014E00045094C2F6A2D812F0E9445094C2F6B2DE9
:1014F000812F0E944509C11004C0DF5FC52C5394A1
:1015000053944A94C60C63946394DA94EA94F394E3
:101510001F5F4D1608F09DCFDF91CF911F910F9166
:10152000FF90EF90DF90CF90BF90AF909F908F9003
:101530007F906F905F904F903F90089580E090E093
:101540000895E0E0F4E180838CEC94E00197F1F7FA
:1015500000C000008081089580930010089580935A
:1015600000120895FC01F85E60830895FC01F85EA6
:1015700080810895EF92FF920F931F93CF93DF9393
:10158000D82FC92F79010E9400070D2F1C2FC0E012
:10159000D0E0F801819191918F010E94A708CE15AA
:1015A000DF0541F46EE68E2D0E94C7078AE20E9495
:1015B000EF0707C06EE68C2F0E94C70780E20E94EB
:1015C000EF0760E08C2F8F5F0E94C7072196C8301D
:1015D000D105F9F6DF91CF911F910F91FF90EF9018
:1015E0000895AF92BF92CF92DF92EF92FF920F9346
:1015F0001F93CF93DF936C018B017A01EB015B01A9
:10160000A40EB51E21E0A21AB10834C09E01A701A4
:10161000B801C6010E94BA0A0E94360683309105BD
:1016200079F42197C017D1070CF4E5018FEF9FEFF4
:1016300022E0815090402040E1F700C000C01AC075
:10164000049779F42196AC16BD060CF4E8018FEFEF
:101650009FEF22E0815090402040E1F700C000C0A1
:1016600009C08FEF9FE721E0815090402040E1F7D3
:1016700000C000C00E94A606882341F28FEF9FE7BA
:1016800024E0815090402040E1F700C000000E941B
:101690006007CE01DF91CF911F910F91FF90EF90E6
:1016A000DF90CF90BF90AF900895613011F5BC01ED
:1016B00080E090E00E94F40D2FE632E143E85AE327
:1016C0000E94AB0E20E030E046E95AE40E94AB0EE7
:1016D00020E030E040E05BE30E94AB0E20E030E031
:1016E00040E85FE30E94E10C0E94C50D7BBD6ABD2E
:1016F0000895623021F5BC0180E090E00E94F40D75
:101700002FE632E143E85AE30E94AB0E20E030E0DE
:1017100046E95AE40E94AB0E20E030E040E05BE393
:101720000E94AB0E20E030E040E85FE30E94E10C55
:101730000E94C50D7093870060938600089583E929
:1017400091E00E94790F0895F894813059F41FBCFC
:1017500098E09EBD99B7906499BF7093DB02609347
:10176000DA0216C0823079F410928B0098E09093E0
:101770008A00EDE7F0E09081906190837093D90248
:101780006093D80205C080EB91E00E94790F089524
:101790007894682F84E690E00E94550B089581307C
:1017A00031F41DBC1CBC8EB584608EBD08958230A2
:1017B00051F41092890010928800EAE8F0E08081EC
:1017C00084608083089586EC91E00E94790F0895EB
:1017D000813021F48EB5887F8EBD0895823031F43A
:1017E000EAE8F0E08081887F808308958DED91E0C4
:1017F0000E94790F08951F920F920FB60F92112435
:101800002F933F934F935F936F937F938F939F9308
:10181000AF93BF93EF93FF93E091DA02F091DB0275
:101820000995FF91EF91BF91AF919F918F917F911A
:101830006F915F914F913F912F910F900FBE0F903D
:101840001F9018951F920F920FB60F9211242F938D
:101850003F934F935F936F937F938F939F93AF9338
:10186000BF93EF93FF93E091D802F091D9020995CD
:10187000FF91EF91BF91AF919F918F917F916F9168
:101880005F914F913F912F910F900FBE0F901F903E
:1018900018950E94A10A089545E050E061E070E0CB
:1018A00082E191E00E94F10A8230910571F01CF40E
:1018B000019739F008958330910559F0049769F044
:1018C000089580E40E94E507089580E80E94E507F6
:1018D000089580EC0E94E50708958FEF0E94E507C8
:1018E000089544E050E061E070E082E091E00E9401
:1018F000F10A8230910549F08330910551F001974A
:1019000059F484E00E94D007089585E00E94D00732
:10191000089588E00E94D007089543E050E061E018
:1019200070E082E391E00E94F10A8130910519F0A4
:10193000029721F008950E944C0C08950E94710CAA
:10194000089543E050E061E070E082E291E00E949F
:10195000F10A8130910519F0029721F008950E9453
:101960004C0C08950E94710C089543E050E060E033
:1019700070E082E491E00E94F10A8130910519F053
:10198000029721F008950E948D0C08950E94A10CE9
:1019900008958FE190E00E948A0385B7806885BF33
:1019A0000E94B6030E942B040E9457040E948D05DA
:1019B00080B7806280BF0E947B0708950E94B50CAB
:1019C000FDCF5058BB27AA270E94F90C0C946C0E2F
:1019D0000E945E0E38F00E94650E20F039F49F3FA1
:1019E00019F426F40C945B0E0EF4E095E7FB0C94CE
:1019F000550EE92F0E947D0E58F3BA176207730740
:101A00008407950720F079F4A6F50C949F0E0EF448
:101A1000E0950B2EBA2FA02D0B01B90190010C01FE
:101A2000CA01A0011124FF27591B99F0593F50F416
:101A3000503E68F11A16F040A22F232F342F44276E
:101A4000585FF3CF469537952795A795F040539566
:101A5000C9F77EF41F16BA0B620B730B840BBAF036
:101A60009150A1F0FF0FBB1F661F771F881FC2F7A1
:101A70000EC0BA0F621F731F841F48F487957795B5
:101A80006795B795F7959E3F08F0B0CF9395880F6F
:101A900008F09927EE0F9795879508950E94310ECB
:101AA00008F481E008950E94670D0C946C0E0E946A
:101AB000650E58F00E945E0E40F029F45F3F29F059
:101AC0000C94550E51110C94A00E0C945B0E0E94B8
:101AD0007D0E68F39923B1F3552391F3951B550BB4
:101AE000BB27AA2762177307840738F09F5F5F4FF1
:101AF000220F331F441FAA1FA9F335D00E2E3AF030
:101B0000E0E832D091505040E695001CCAF72BD047
:101B1000FE2F29D0660F771F881FBB1F2617370798
:101B20004807AB07B0E809F0BB0B802DBF01FF27CA
:101B300093585F4F3AF09E3F510578F00C94550E44
:101B40000C94A00E5F3FE4F3983ED4F3869577950E
:101B50006795B795F7959F5FC9F7880F911D969583
:101B6000879597F90895E1E0660F771F881FBB1FDF
:101B7000621773078407BA0720F0621B730B840B8C
:101B8000BA0BEE1F88F7E09508950E94850E88F045
:101B90009F5798F0B92F9927B751B0F0E1F0660F31
:101BA000771F881F991F1AF0BA95C9F714C0B13072
:101BB00091F00E949F0EB1E008950C949F0E672F44
:101BC000782F8827B85F39F0B93FCCF386957795A1
:101BD0006795B395D9F73EF490958095709561958A
:101BE0007F4F8F4F9F4F0895E89409C097FB3EF4B5
:101BF00090958095709561957F4F8F4F9F4F99235A
:101C0000A9F0F92F96E9BB279395F69587957795D7
:101C10006795B795F111F8CFFAF4BB0F11F460FF97
:101C20001BC06F5F7F4F8F4F9F4F16C0882311F0EF
:101C300096E911C0772321F09EE8872F762F05C003
:101C4000662371F096E8862F70E060E02AF09A959E
:101C5000660F771F881FDAF7880F9695879597F993
:101C60000895990F0008550FAA0BE0E8FEEF16162D
:101C70001706E807F907C0F012161306E407F50780
:101C800098F0621B730B840B950B39F40A2661F0F4
:101C9000232B242B252B21F408950A2609F4A14097
:101CA000A6958FEF811D811D089597F99F6780E8A4
:101CB00070E060E008959FEF80EC089500240A949E
:101CC0001616170618060906089500240A94121617
:101CD0001306140605060895092E0394000C11F44A
:101CE000882352F0BB0F40F4BF2B11F460FF04C0F7
:101CF0006F5F7F4F8F4F9F4F089557FD9058440F50
:101D0000551F59F05F3F71F04795880F97FB991F5A
:101D100061F09F3F79F08795089512161306140617
:101D2000551FF2CF4695F1DF08C0161617061806A4
:101D3000991FF1CF86957105610508940895E8947F
:101D4000BB2766277727CB0197F908950E94310EAC
:101D500008F48FEF08950E94BE0E0C946C0E0E9442
:101D60005E0E38F00E94650E20F0952311F00C9461
:101D7000550E0C945B0E11240C94A00E0E947D0E47
:101D800070F3959FC1F3950F50E0551F629FF001CE
:101D9000729FBB27F00DB11D639FAA27F00DB11DE7
:101DA000AA1F649F6627B00DA11D661F829F222770
:101DB000B00DA11D621F739FB00DA11D621F839FF7
:101DC000A00D611D221F749F3327A00D611D231FCD
:101DD000849F600D211D822F762F6A2F11249F571B
:101DE00050409AF0F1F088234AF0EE0FFF1FBB1F1E
:101DF000661F771F881F91505040A9F79E3F5105DD
:101E000080F00C94550E0C94A00E5F3FE4F3983EC6
:101E1000D4F3869577956795B795F795E7959F5F86
:101E2000C1F7FE2B880F911D9695879597F9089518
:101E30000F931F93CF93DF93009731F461157105D2
:101E400019F480E090E03AC08B01EC016EE070E0A4
:101E500081E090E00E947B11FC01892B91F380E8E6
:101E600083830115110571F01387028781E883834D
:101E70008091DC029091DD02892B21F4F093DD0248
:101E8000E093DC022097C9F0D187C087838182600C
:101E900083838091DE029091DF02892B71F4F093AD
:101EA000DF02E093DE028091E0029091E102892B53
:101EB00021F4F093E102E093E002CF01DF91CF91B2
:101EC0001F910F910895A0E0B0E0E9E6FFE00C94C7
:101ED0008713AE014B5F5F4FFA0161917191AF01C2
:101EE0008091DE029091DF020E94A90FE2E00C9443
:101EF000A3130F931F93CF93DF93E091DE02F09132
:101F0000DF02238121FF1BC08C01D0E0C0E0F8017B
:101F100081918F016091DE027091DF02DB011896E2
:101F2000ED91FC911997882331F00995892B79F36C
:101F3000DFEFCFEFECCF8AE00995892B19F08FEF17
:101F40009FEF02C08D2F9C2FDF91CF911F910F919A
:101F50000895ACE0B0E0EFEAFFE00C9477137C0169
:101F60006B018A01FC0117821682838181FFBDC14A
:101F7000CE0101964C01F7019381F60193FD859105
:101F800093FF81916F01882309F4ABC1853239F445
:101F900093FD859193FF81916F01853229F4B701FB
:101FA00090E00E94E112E7CF512C312C20E020324A
:101FB000A0F48B3269F030F4803259F0833269F446
:101FC00020612CC08D3239F0803339F4216026C075
:101FD0002260246023C0286021C027FD27C030ED87
:101FE000380F3A3078F426FF06C0FAE05F9E300DD5
:101FF0001124532E13C08AE0389E300D1124332E45
:1020000020620CC08E3221F426FD6BC1206406C014
:102010008C3611F4206802C0883641F4F60193FD35
:10202000859193FF81916F018111C1CF982F9F7D81
:102030009554933028F40C5F1F4FFFE3F9830DC0D4
:10204000833631F0833771F0833509F05BC022C0ED
:10205000F801808189830E5F1F4F44244394512CE3
:10206000540115C03801F2E06F0E711CF801A08018
:10207000B18026FF03C0652D70E002C06FEF7FEFD7
:10208000C5012C870E94D6122C0183012C852F7745
:10209000222E17C03801F2E06F0E711CF801A080EB
:1020A000B18026FF03C0652D70E002C06FEF7FEFA7
:1020B000C5012C870E94C4122C012C852068222E79
:1020C000830123FC1BC0832D90E048165906B0F411
:1020D000B70180E290E00E94E1123A94F4CFF5015A
:1020E00027FC859127FE81915F01B70190E00E9456
:1020F000E11231103A94F1E04F1A510841145104A1
:1021000071F7E5C0843611F0893639F5F80127FFFB
:1021100007C060817181828193810C5F1F4F08C06D
:1021200060817181072E000C880B990B0E5F1F4F89
:102130002F76722E97FF09C09095809570956195C6
:102140007F4F8F4F9F4F2068722E2AE030E0A4010E
:102150000E941913A82EA81844C0853729F42F7E91
:10216000B22E2AE030E025C0F22FF97FBF2E8F3645
:10217000C1F018F4883579F0B4C0803719F0883789
:1021800021F0AFC02F2F2061B22EB4FE0DC08B2DD9
:102190008460B82E09C024FF0AC09F2F9660B92E14
:1021A00006C028E030E005C020E130E002C020E1B8
:1021B00032E0F801B7FE07C06081718182819381AE
:1021C0000C5F1F4F06C06081718180E090E00E5F60
:1021D0001F4FA4010E941913A82EA818FB2DFF77EA
:1021E0007F2E76FE0BC0372D3E7FA51450F474FE73
:1021F0000AC072FC08C0372D3E7E05C0BA2C372DB0
:1022000003C0BA2C01C0B52C34FF0DC0FE01EA0D8D
:10221000F11D8081803311F4397E09C032FF06C080
:10222000B394B39404C0832F867809F0B39433FD3C
:1022300013C030FF06C05A2CB31418F4530C5B18AB
:10224000B32CB31468F4B70180E290E03C870E949D
:10225000E112B3943C85F5CFB31410F43B1801C0E0
:10226000312C34FF12C0B70180E390E03C870E941C
:10227000E1123C8532FF17C031FD03C088E790E0D2
:1022800002C088E590E0B7010CC0832F867859F032
:1022900031FF02C08BE201C080E237FD8DE2B70161
:1022A00090E00E94E112A51438F4B70180E390E0B9
:1022B0000E94E1125A94F7CFAA94F401EA0DF11D9D
:1022C0008081B70190E00E94E112A110F5CF332088
:1022D00009F451CEB70180E290E00E94E1123A94F5
:1022E000F6CFF7018681978102C08FEF9FEF2C9682
:1022F000E2E10C9493130F931F93CF93DF93869F88
:102300008001879F100D969F100D1124C8010E9417
:102310009711EC01009729F0A80160E070E00E949D
:10232000CF12CE01DF91CF911F910F910895CF93DE
:10233000DF938230910510F482E090E0E091E402B6
:10234000F091E50220E030E0C0E0D0E0309711F1FC
:102350004081518148175907C0F04817590761F467
:1023600082819381209719F09B838A832BC090935D
:10237000E5028093E40226C02115310519F04217C9
:10238000530718F49A01BE01DF01EF010280F381C7
:10239000E02DDCCF2115310509F1281B390B243044
:1023A000310590F412968D919C91139761157105EA
:1023B00021F0FB019383828304C09093E502809314
:1023C000E402FD01329644C0FD01E20FF31F819348
:1023D0009193225031092D933C933AC02091E2020F
:1023E0003091E302232B41F42091540130915501A7
:1023F0003093E3022093E202209152013091530185
:102400002115310541F42DB73EB740915601509149
:102410005701241B350BE091E202F091E302E21731
:10242000F307A0F42E1B3F0B2817390778F0AC01F7
:102430004E5F5F4F2417350748F04E0F5F1F5093D4
:10244000E3024093E2028193919302C0E0E0F0E066
:10245000CF01DF91CF9108950F931F93CF93DF9317
:10246000009709F48CC0FC0132971382128200910C
:10247000E4021091E5020115110581F420813181FA
:10248000820F931F2091E2023091E302281739074F
:1024900079F5F093E302E093E20271C0D80140E0E5
:1024A00050E0AE17BF0750F412962D913C91139750
:1024B000AD012115310509F1D901F3CF9D01DA01F3
:1024C0003383228360817181860F971F8217930760
:1024D00069F4EC0128813981260F371F2E5F3F4FA9
:1024E000318320838A819B8193838283452B29F4C6
:1024F000F093E502E093E40242C01396FC93EE935E
:102500001297ED01499159919E01240F351FE21751
:10251000F30771F480819181840F951F02961196C3
:102520009C938E938281938113969C938E931297A2
:10253000E0E0F0E0D80112968D919C9113970097FE
:1025400019F0F8018C01F6CF8D919C9198012E5FC6
:102550003F4F820F931F2091E2023091E302281730
:10256000390769F4309729F41092E5021092E402D9
:1025700002C0138212821093E3020093E202DF9101
:10258000CF911F910F910895FC010590615070400B
:102590000110D8F7809590958E0F9F1F0895DC014C
:1025A00001C06D9341505040E0F70895FC01615027
:1025B000704001900110D8F7809590958E0F9F1F65
:1025C00008950F931F93CF93DF93FB01238121FD88
:1025D00003C08FEF9FEF28C022FF16C046815781AE
:1025E000248135814217530744F4A081B1819D01B4
:1025F0002F5F3F4F318320838C93268137812F5F5C
:102600003F4F3783268310C0EB01092F182F00841A
:10261000F185E02D0995892BE1F68E819F81019648
:102620009F838E83812F902FDF91CF911F910F91E8
:102630000895FA01AA27283051F1203181F1E89458
:102640006F936E7F6E5F7F4F8F4F9F4FAF4FB1E0A5
:102650003ED0B4E03CD0670F781F891F9A1FA11DA0
:10266000680F791F8A1F911DA11D6A0F711D811DA1
:10267000911DA11D20D009F468943F912AE0269F66
:1026800011243019305D3193DEF6CF010895462FC5
:102690004770405D4193B3E00FD0C9F7F6CF462FA6
:1026A0004F70405D4A3318F0495D31FD405241930F
:1026B00002D0A9F7EACFB4E0A695979587957795CC
:1026C0006795BA95C9F700976105710508959B0153
:1026D000AC010A2E06945795479537952795BA95DC
:1026E000C9F7620F731F841F951FA01D08952F92B5
:1026F0003F924F925F926F927F928F929F92AF9292
:10270000BF92CF92DF92EF92FF920F931F93CF93DE
:10271000DF93CDB7DEB7CA1BDB0B0FB6F894DEBF75
:102720000FBECDBF09942A88398848885F846E849B
:102730007D848C849B84AA84B984C884DF80EE80E5
:10274000FD800C811B81AA81B981CE0FD11D0FB6EE
:10275000F894DEBF0FBECDBFED010895F894FFCF12
:102760000501F30104020B02120219024A024A0295
:102770004A021E022E0235023C02430219024A029C
:102780004A024B025902650219024A024A024A02EF
:102790004A02700280028D0219024A024A024A026B
:1027A0004A029B02A502B5024A024A024A024A02B2
:1027B00000000000E6022000040001000500010006
:1027C00003000100030001000300000053746F7058
:1027D00070696E672E2E2E00555000444F574E00E4
:1027E0004C454654005249474854004E45555452B2
:1027F000414C00494E56414C4944204944205449DB
:102800004D45522053455420504552494F444500B0
:10281000494E56414C49442049442054494D455263
:1028200020494E495400494E56414C4944204944A0
:102830002054494D455220535441525400494E565C
:10284000414C49442049442054494D455220535459
:102850004F500043484F4F534520464F4E5420534E
:10286000495A450053697A6520340053697A6520D6
:10287000350053697A652038004261636B00434834
:102880004F4F534520434F4E54524153540032351D
:102890002E3020250035302E3020250037352E30C3
:1028A0002025003130302E3020250047414D452075
:1028B00053455454494E475300436F6E74726F6CC6
:1028C0006C65727300446966666963756C7479003F
:1028D00053595354454D2053455454494E47530082
:1028E00053657420636F6E74726173740053657402
:1028F00020666F6E742073697A6500506C61792070
:1029000067616D650053797374656D2073657474C8
:10291000696E67730047616D652073657474696ED5
:0429200067730000D9
:00000001FF
